:10000000FC1F0020F900000003E2FF1F03E2FF1FB6
:1000100003E2FF1F03E2FF1F03E2FF1F01E2FF1FD6
:1000200001E2FF1F01E2FF1F01E2FF1F03E2FF1FCA
:1000300003E2FF1F01E2FF1F03E2FF1F03E2FF1FB6
:1000400003E2FF1F03E2FF1F03E2FF1F03E2FF1FA4
:1000500003E2FF1F03E2FF1F03E2FF1F03E2FF1F94
:1000600003E2FF1F03E2FF1F03E2FF1F03E2FF1F84
:1000700003E2FF1F03E2FF1F03E2FF1F03E2FF1F74
:10008000B5E6FF1F03E2FF1F03E2FF1F03E2FF1FAE
:1000900003E2FF1F03E2FF1F03E2FF1F03E2FF1F54
:1000A00003E2FF1F03E2FF1F03E2FF1F03E2FF1F44
:1000B00003E2FF1F03E2FF1F03E2FF1F03E2FF1F34
:1000C00003E2FF1F03E2FF1F03E2FF1F45E2FF1FE2
:1000D00003E2FF1F03E2FF1F03E2FF1F03E2FF1F14
:1000E00003E2FF1F03E2FF1F03E2FF1F03E2FF1F04
:1000F00003E2FF1F03E2FF1F3D4B4CF220521A8028
:100100004DF628121A8000BF00BFD32223F80E2C10
:1001100000221A81072223F80A2C4FF4A64223F862
:10012000082CA3F51F43D63B324A1A60324A5A6064
:1001300003F5533303F2CA331A78110742BF1A7812
:1001400042F008021A702D4B0A221A70A3F6FF73B0
:1001500024221A70A02203F8012C294B1A78920746
:10016000FBD51A78D006FCD41A7802F00C02082AC3
:10017000FAD1244B03221A7040225A70224A234B90
:1001800023498B4204D252F8041F43F8041BF7E7BB
:10019000204A214B9A424FF0000302D242F8043B1E
:1001A000F7E71E491E4A51F8231042F82310013385
:1001B000402BF6D11B4B1A60114B1A789106FBD5D8
:1001C0001A785206FCD5184B184A1A60184B202290
:1001D0001A700B4B1B7803F00C030C2BF9D1154B49
:1001E00002221A60443B144A1A6062B600F028B832
:1001F0000E200540823F04000100002B0050064005
:1002000006400640044006400C04000000E2FF1FC8
:1002100024ECFF1F00F0FF1F34F9FF1F0000000057
:1002200000F0FF1F08ED00E04480044000000311CF
:100230000040064048800440C0100500FFFFFFFF5B
:1002400001B40248844601BC604700BFC1E7FF1FFC
:10025000FFFFFFFFFFFFFFFFFFFFFFFFFFFFFFFFAE
:10026000FFFFFFFFFFFFFFFFFFFFFFFFFFFFFFFF9E
:10027000FFFFFFFFFFFFFFFFFFFFFFFFFFFFFFFF8E
:10028000FFFFFFFFFFFFFFFFFFFFFFFFFFFFFFFF7E
:10029000FFFFFFFFFFFFFFFFFFFFFFFFFFFFFFFF6E
:1002A000FFFFFFFFFFFFFFFFFFFFFFFFFFFFFFFF5E
:1002B000FFFFFFFFFFFFFFFFFFFFFFFFFFFFFFFF4E
:1002C000FFFFFFFFFFFFFFFFFFFFFFFFFFFFFFFF3E
:1002D000FFFFFFFFFFFFFFFFFFFFFFFFFFFFFFFF2E
:1002E000FFFFFFFFFFFFFFFFFFFFFFFFFFFFFFFF1E
:1002F000FFFFFFFFFFFFFFFFFFFFFFFFFFFFFFFF0E
:10030000FFFFFFFFFFFFFFFFFFFFFFFFFFFFFFFFFD
:10031000FFFFFFFFFFFFFFFFFFFFFFFFFFFFFFFFED
:10032000FFFFFFFFFFFFFFFFFFFFFFFFFFFFFFFFDD
:10033000FFFFFFFFFFFFFFFFFFFFFFFFFFFFFFFFCD
:10034000FFFFFFFFFFFFFFFFFFFFFFFFFFFFFFFFBD
:10035000FFFFFFFFFFFFFFFFFFFFFFFFFFFFFFFFAD
:10036000FFFFFFFFFFFFFFFFFFFFFFFFFFFFFFFF9D
:10037000FFFFFFFFFFFFFFFFFFFFFFFFFFFFFFFF8D
:10038000FFFFFFFFFFFFFFFFFFFFFFFFFFFFFFFF7D
:10039000FFFFFFFFFFFFFFFFFFFFFFFFFFFFFFFF6D
:1003A000FFFFFFFFFFFFFFFFFFFFFFFFFFFFFFFF5D
:1003B000FFFFFFFFFFFFFFFFFFFFFFFFFFFFFFFF4D
:1003C000FFFFFFFFFFFFFFFFFFFFFFFFFFFFFFFF3D
:1003D000FFFFFFFFFFFFFFFFFFFFFFFFFFFFFFFF2D
:1003E000FFFFFFFFFFFFFFFFFFFFFFFFFFFFFFFF1D
:1003F000FFFFFFFFFFFFFFFFFFFFFFFFFFFFFFFF0D
:10040000FFFFFFFFFFFFFFFFFCFFFFFFFEFFFF40BF
:10041000FEE7FEE7F0B50C4C0C4E23780C4D43F094
:10042000020706EBC70283F0010350602A782370AD
:10043000002A14BFC820882082F0010240EA01414E
:100440002A7046F83710F0BD48F4FF1F00E0FF1F88
:100450009FF4FF1F2DE9F743924D2B78DBB213F089
:10046000040F1CBF04222A7003F00802284602F081
:10047000FF01002A00F093818B4B1C78E4B2230922
:1004800040F08A81894EA40806EBC402506856F8F1
:100490003420C2F38302092A00F056810D2A03D0CA
:1004A000012A40F0768119E1814F416879608149E4
:1004B000026846F8341080493A60012008707F4E87
:1004C0007F49336092B2B2F5A06F0B8067D024D819
:1004D00040F221139A4200F08680B2F5917F0CD24F
:1004E000822A3FD0B2F5817F4BD0802A40F0A58090
:1004F000744C002323706370A2E040F2A1339A424F
:1005000000F0818040F221439A4200F0838040F263
:1005100002339A4240F0918043E040F281618A4286
:100520000BD8B2F5D06F4AD240F2A1539A4276D09E
:1005300040F221639A427AD07FE0B2F5106F0ED07C
:1005400007D8B2F5086F78D15F4B5E4C1B782370EB
:100550006BE0A2F5FD42403A012A40D96DE0B9783E
:10056000594A1BE0BA88594B0AB10F2210E1554C89
:100570000022227062701B78980761D501232370D6
:100580005EE0BA88510658D1494B5B88002B54D1A4
:1005900091004E4A0A44117821F0020111701C4664
:1005A00055E0BA88530648D1414B5B88002B44D1B3
:1005B0009100464A0A44117841F00201EEE77A8838
:1005C000434B5C68002C38D019888A4205D1120A46
:1005D000032A0CBF23781B8939E00C33F1E7BB8871
:1005E000042B2AD12EE0BB883BBBF98849B9788817
:1005F00000910A460B4600F09DFA10B9334B0F22CA
:100600001A700023CBE7BB88BBB92E4800F032FB41
:10061000D8B912E0BB8883B900F060FB0BE0BB885F
:100620005BB900F081FA274C207001230FE0BB88F2
:100630001BB900F06BFB0028E3D10F22234BA7E08E
:10064000022304E02823234C01E01E4C0623FF88EC
:100650009F4228BF1F46402FB84628BF4FF0400892
:1006600020464146FFF7D6FEB7EB0807444405D1C4
:10067000B8F1400F40F08D80B84604E0402FB846F6
:1006800028BF4FF0400820464146FFF7C3FEB7EBB6
:100690000807444402D1B8F1400F7AD10E4B3460C0
:1006A0001F8076E0802007409020074000E0FF1F79
:1006B0008CF4FF1F800040009FF4FF1F00F4FF1F19
:1006C00004F4FF1F96F4FF1F9EF4FF1FC020074095
:1006D00014EBFF1FC0EBFF1F94F4FF1FDFF834E1A2
:1006E000BEF8002040F221139A4229D1BEF804201E
:1006F000474B22B11988BEF8062091421DD8BEF89A
:1007000006101A88424F8B1A402B28BF4023984668
:10071000BEF8023000901846434600F00BFA60B174
:100720003B883C4A4344D2889BB29A423B8007D8DC
:1007300039480021FFF76EFE02E0384B0F221A7095
:10074000374B46F8343024E0DFF8F880D8F80070F2
:10075000AFB1DFF8F490B9F80040402C264628BF2E
:10076000402638463146FFF755FEA01B80B2A9F857
:10077000000008B9402E00D1B819C8F80000254B78
:100780001A88B2F5A06F04D100225A709A78254BCE
:100790001A70254B01221A7008232B705CE6DC07C7
:1007A0001DD5214C1E4A214D02232370204B197068
:1007B000204B1A609A60204ADA605D601961996185
:1007C000164B0D221A701D4AFF231370037011740B
:1007D00013711B4B9F221A700123237014E019061A
:1007E00041BF0E4A0D211170802248BF2A709A071E
:1007F00041BF12490A78D2B20A7044BF02222A705D
:10080000DB0644BF10232B7003B0BDE8F08300BFAC
:1008100004F4FF1F8CF4FF1F96F4FF1FC020074055
:1008200080004000982007409420074008F4FF1FF4
:1008300048F4FF1F00E0FF1F4CF4FF1F8820074013
:100840008420074000F4FF1F94F4FF1F174A136829
:1008500043F480231360164B80221A701978144ACF
:100860000906FBD4134B1449C3F307200870C3F3E4
:1008700007401B0E08750B76FF2301F81C3C01F89E
:10088000143C01F88C3C137843F0400313700021B2
:10089000012302F8783C02F80C1C02F8883C074B54
:1008A00008221A60064B10221A70704734800440E8
:1008B0000C21074000E0FF1F9C20074004E100E0FE
:1008C00008210740F0B52F4A137813F0300F26D0D7
:1008D00072B62D4B2D4F1B7803F0FF002BB93B78E0
:1008E0002B4B4021197062B619E062B6294B2A4C95
:1008F00019782578C9B2EDB21C464B1CDBB2402BEF
:1009000028BF0023AB423E7818BF2449F6B21CBF73
:10091000CE541946431E13F0FF00EED12170204B38
:100920001978C9B20D0620D513781C061DD51D4BAC
:100930001D481D780378EDB2DBB2AB420ED0013317
:10094000DBB2402B1478194C104E28BF0023E45C16
:10095000E4B23470164C2478072CEED90370137867
:10096000180642BF0E4B7C201870490609D5137833
:100970005B0641BF0F4B00221A70094B44BF3C225B
:100980001A70F0BD04A0064016A0064007A006405D
:1009900011A0064022F5FF1FA1F4FF1FE2F4FF1F84
:1009A00003A0064024F5FF1F23F5FF1FA2F4FF1F3D
:1009B00014A00640A0F4FF1F72B6044B4AF2026274
:1009C0001A804BF280421A8062B670470C200540B4
:1009D00038B5244B40F207121A60234A136823F0FB
:1009E00008031360214B1B681B070BD5204C636861
:1009F000A3F58053B3F5F83F04D21E4D1E4B2A6871
:100A00009A421FD100F08EF8FFF720FF00F08CF81B
:100A1000072806D072B600F0F3F862B6FFF7CCFFF5
:100A2000F4E7144B00221A600B24144DFFF7C4FFA7
:100A3000013DFBD1013CF8D1FFF7BEFF72B6104B70
:100A40001C70FEE772B60F4B1C60FFF7B5FF00206D
:100A50002860226861684FF0FF339E46954608473C
:100A600038BD00BF0C90044014F00F4010F00F4050
:100A700000100000FC1F002046436274A0860100A5
:100A80000821074008ED00E00E4B06221A70C0F363
:100A9000074203F8012CC0F30722C0B203F8022C6E
:100AA00003F8030CCA781A718A78DA704A789A7057
:100AB0000A785A70702203F8072C802203F8072C5A
:100AC000704700BF07000240030610B522D500F0B2
:100AD000400303F0FF043BB10F4B0A221A700F4B87
:100AE0000E221A70002213E010F0300208D00A4BD8
:100AF0000A221A70094B08221A70094B1C7009E06F
:100B000010F0010007D0044B0A201870034B197035
:100B1000034B1A70012010BD1EECFF1F31F9FF1F9F
:100B200030F9FF1F70470000014B1878704700BF75
:100B30001EECFF1FF0B5D418B4F5806F059D01D8E9
:100B40008C4206D9264B0A221A70264B08221A70AC
:100B500022E0254E2B4432449D4204D015F8016B0F
:100B600002F8016FF8E78C4238D11D4B1D491A7805
:100B7000022A1E4605D0052A03D00A221A700F2326
:100B800009E01A4F3B781B0602D5194B1D782DB191
:100B90000A2333700E230B700020F0BD1CB906230E
:100BA00033700C701AE001221A708302114803F5A9
:100BB00080530360104809240470C3F307441B0AE0
:100BC000DBB200F8014C00F8023C0C4B1D707023A6
:100BD0003B7080233B70032333700D700120F0BD08
:100BE0001EECFF1F31F9FF1F2BF5FF1F0000024015
:100BF00030F9FF1F28F5FF1F0700024004000240E4
:100C000070B5174B174D18782B78012BC0B202D056
:100C1000022B0FD070BD0421FFF756FFF0B902235D
:100C20002B70114B11491860114BBDE870401868CA
:100C3000FFF72ABF0721FFF747FF78B90A4E34684C
:100C4000B4F5806F09D20A4B084918682144204442
:100C50000434FFF719FF346070BD287070BD00BF09
:100C60000000024030F9FF1F2CF9FF1F2CF5FF1F79
:100C700028F5FF1F70B5154C154D2378032B06463C
:100C800015D3042B07D9062B11D1072323704FF45A
:100C90007A732B600BE0FFF7B3FF23780A2B06D0A3
:100CA0000C4B1B780BB9052300E0042323700A4B7F
:100CB0001B7833702B6873701A0A1B0CF37023783F
:100CC00033710023B2707371012070BD1EECFF1FE1
:100CD00020ECFF1F30F9FF1F31F9FF1F094B1A7875
:100CE0000A2A08BF0221084A0BBF19700A210023F3
:100CF000197013BF0F2301201370137018BF002049
:100D0000704700BF1EECFF1F31F9FF1F034B02228B
:100D10001A70034B00221A70012070471EECFF1F4F
:100D200031F9FF1F0001000068EBFF1F12000000F7
:100D30000002000092EBFF1F1B00000000030000F8
:100D40001AECFF1F00000000010300007AEBFF1FF8
:100D50000000000002030000E8EBFF1F000000009D
:100D6000EE030000AEEBFF1F0000000000000000DB
:100D7000000000000000000012010002000000401E
:100D800009128988100101020001180342006C0059
:100D900069006E006B0069006E006C00610062000B
:100DA000730009021B0001010280320904000000E7
:100DB000FE01020209210D102700040101001203A7
:100DC0004D005300460054003100300030007E00DA
:100DD00028000000000104000100000000000000E5
:100DE000000157494E55534200000000000000002A
:100DF0000000000000000000320342006C006900A7
:100E00006E006B007900500065006E0064006100A8
:100E10006E007400200042006F006F0074006C00D0
:100E20006F006100640065007200040309040200A1
:040E300001000000BD
:10100000FC1F00209911000055110000551100002F
:101010005511000055110000551100006511000028
:1010200065110000651100006511000055110000F8
:101030005511000065110000551100005711000006
:101040005511000055110000353100005511000008
:1010500055110000551100005511000055110000F8
:1010600055110000551100005511000055110000E8
:1010700055110000551100005511000055110000D8
:1010800055110000551100005511000055110000C8
:1010900055110000551100005511000055110000B8
:1010A00055110000551100005511000055110000A8
:1010B0005511000055110000551100005511000098
:1010C000551100005511000055110000F11A0000E3
:1010D0005511000055110000551100005511000078
:1010E000011300005D1300009113000009140000BB
:1010F000591400005511000010B5054C237833B980
:10110000044B13B10448AFF300800123237010BDDA
:1011100058EDFF1F00000000AC4E0000084B10B55A
:101120001BB108490848AFF300800848036803B9B9
:1011300010BD074B002BFBD0BDE81040184700BF87
:10114000000000005CEDFF1FAC4E000058EDFF1FDB
:1011500000000000FEE7024A136801331360704785
:10116000BCEDFF1F08B50B4D2C462B68580301D56D
:1011700000F0BEFC2368590501D5FFF7EBFF23689B
:101180001A0501D5FFF7E6FF2368DB04EDD5FFF76D
:10119000E1FFEAE73480044038B5134A134B1449A1
:1011A0008B4204D252F8040F43F8040BF8E7114BBA
:1011B000114A0021934202D243F8041BFAE70F4B75
:1011C0004BF67F321A60072243F8042C62B600F017
:1011D000CBFA0B4C0B4DAC4203D054F8043B984770
:1011E000F9E701F03DFAFEE7A84E000000E4FF1F1A
:1011F00058EDFF1F58EDFF1F58F9FF1F14E000E0E6
:10120000984E0000A84E0000024A1368184410606F
:101210001846704700E4FF1FEFF313839BB9EFF309
:10122000108098B9EFF3058323B10F2B04D9084A36
:10123000985C01E04FF48070EFF311833BB198426A
:1012400028BF184670474FF0FF3070471846704768
:10125000F0E300E0084B4FF480721A604FF4007224
:101260001A604FF480621A604FF400621A604FF403
:1012700080521A60704700BF04E100E0112830B5C9
:1012800021D8042A1FD8DFE802F0070905030B0064
:10129000092306E00A2304E0082302E00C2300E00F
:1012A0000B23094A02EBC002546872B6226822F48A
:1012B0007022226042F08075044A45EA034342F8F6
:1012C0002010236062B630BD2045000074EDFF1F82
:1012D000094B03EBC0035A6872B6136823F0877397
:1012E00023F4803343F080731360044B002243F8EF
:1012F000202062B6704700BF2045000074EDFF1F3C
:10130000144B10B51C681C60E30704D5124B1A6817
:101310000AB11B689847A00704D50F4B5A680AB159
:101320005B689847610704D50B4B9A680AB19B68C4
:101330009847220704D5084BDA680AB1DB6898475A
:10134000E30606D5044B1A691AB11B69BDE81040C3
:10135000184710BDA090044074EDFF1F0A4B10B554
:101360001C681C60E20704D5084B5A690AB15B6926
:101370009847A30706D5054B9A691AB19B69BDE842
:101380001040184710BD00BFA0A0044074EDFF1F1F
:101390001B4B10B51C681C60A10704D5194BDA69FA
:1013A0000AB1DB699847620704D5164B1A6A0AB17D
:1013B0001B6A9847230704D5124B5A6A0AB15B6A25
:1013C0009847E00604D50F4B9A6A0AB19B6A984782
:1013D000A10604D50B4BDA6A0AB1DB6A98476206AC
:1013E00004D5084B1A6B0AB11B6B9847230606D528
:1013F000044B5A6B1AB15B6BBDE81040184710BD27
:10140000A0B0044074EDFF1F114B10B51C681C60A8
:10141000E00604D50F4B9A6B0AB19B6B9847A10667
:1014200004D50C4BDA6B0AB1DB6B9847620604D526
:10143000084B1A6C0AB11B6C9847230606D5054B5E
:101440005A6C1AB15B6CBDE81040184710BD00BF64
:10145000A0C0044074EDFF1F014B1A681A6070476A
:10146000A0D00440014B1868704700BF00D0034073
:10147000044B054900221A600A60044A10601022D9
:101480001A60704714D0034004D0034000D00340DA
:1014900000280EDB03024FF48072B3F5004F06D331
:1014A000013A012AA3EB000101D00B46F5E71B0A24
:1014B00010E043421B024FF48072B3F5014F06D394
:1014C000013A012A00EB030101D00B46F5E71B0AA4
:1014D000C3F58073013A43EA0223014A136070475F
:1014E0000CD00340704710B500234FF4377242FA16
:1014F00003F48C4202D30133072BF8D1144A1A416A
:1015000002EB5102B2FBF1F14FF6FF720139914249
:1015100028BF1146C21E012A07D80E4A0E4C0020D1
:10152000106020600D4801600EE017280FD80C4AAB
:1015300022FA00F000F0010080F0010438B10948FF
:10154000094A14600460416043F00803136010BD51
:10155000006CDC02009003400490034008900340BC
:101560006006F0000480034000800340112810B59D
:1015700018D80D4B53F8302092F880423CB101232B
:1015800011B182F8803010BD82F8003110BD03EB3C
:10159000C0035B681A6811B142F0030201E022F057
:1015A00002021A6010BD00BF2045000011289FBF35
:1015B000044B53F8303093F80002C0B288BF0020CB
:1015C000704700BF20450000112816D80B4A02EBD7
:1015D000C00301295B6852F8302004D182F88012E0
:1015E0004FF4A27208E0002082F8800211B94FF493
:1015F000807201E040F203121A607047204500003B
:1016000010B57F29D4BF00210121FFF7AFFF0121D1
:10161000BDE81040FFF7D8BF2DE9F04107460E4660
:1016200090460825012408EA04013846FFF79EFF8A
:1016300001213046FFF79AFF00213046FFF796FF61
:101640006400013DE4B2EED1BDE8F0812DE9F04146
:1016500007460E4690460824802508EA05013846CC
:10166000FFF784FF01213046FFF780FF002130465D
:10167000FFF77CFF013C4FEA5505EED1BDE8F08154
:1016800012B91A46FFF7C8BF1A46FFF7DFBF2DE9A8
:10169000F04180460F4608260025012438460121E6
:1016A000FFF764FF4046FFF781FF00B125430021AB
:1016B0003846FFF75BFF6400013EE4B2EED12846F6
:1016C000BDE8F0812DE9F04180460F460825002451
:1016D000802638460121FFF749FF4046FFF766FFA5
:1016E00000B1344300213846FFF740FF013D4FEA87
:1016F0005606EED12046BDE8F0810AB9FFF7C7BF14
:10170000FFF7E0BF72B60B4B0B4A0C491B68926C9B
:10171000096862B6490102D5322B88BF0132C3F590
:101720003B4330207F33B3FBF0F34FF47A7000FB80
:101730000230704718E000E074EDFF1F04ED00E098
:1017400038B50446FFF7DEFF054664B1FFF7DAFF60
:10175000401BB0F57A7F03D3013C04D005F57A75C0
:1017600000F004FFF2E738BD10B5FFF773FD124B30
:10177000124A134C00204BF6FF7118605960282361
:1017800013609360136193611362936213639363B5
:101790000922226004F58054043420600948016065
:1017A00009490B608B60094B04201A60FFF7C8FFE2
:1017B000BDE8104000F0BABC048003400C80034038
:1017C00000800340089003400C90034000900340C9
:1017D00070B50646C1EBC10433782BB1013CFBD197
:1017E000002070BD013CFBD03378002BFAD0FFF70E
:1017F00089FF0546337813B1013CFBD1F0E7FFF7D1
:1018000081FF401B70BD70B50646C1EBC104337843
:101810002BB9013CFBD1002070BD013CFBD03378DB
:10182000002BFAD1FFF76EFF0546337813B9013C60
:10183000FBD1F0E7FFF766FF401B70BD11280DD804
:10184000074B53F8300021B1114600F50070FFF747
:10185000BFBF114600F50070FFF7D5BF00207047ED
:10186000204500007FB5164B16491B680393164BA5
:101870001B680293154B1B680193154B04A81B684A
:1018800040F8103D134B0022145C01326340102AD3
:1018900001FB03F3F8D10B4E0F4D01221A248118DE
:1018A00011F8011C4B407343B3FBF4F104FB1131FD
:1018B000413125F812100132112AF0D104B070BD67
:1018C0005480044093010001588004405C8004402F
:1018D00060800440C59D1C8182E4FF1F70B50C4BE5
:1018E0000C4D1A7842F0020605EBC60482F00102A4
:1018F000606058781A70002814BFC824882480F0CB
:10190000010044EA0141587045F8361070BD00BF2F
:10191000C0EDFF1F00E0FF1F0138032807D8054B6B
:1019200003EB80004068003018BF012070470020A2
:10193000704700BFC0EDFF1F431E032B10B50ED82C
:10194000084A02EB8302506850B141685160064971
:10195000048831F81320121B21F8132010BD002039
:1019600010BD00BFC0EDFF1F48F9FF1F431E032B32
:1019700010B510D872B6094A02EB8302506840B124
:10198000416851600649048831F81320121B21F880
:10199000132062B610BD002010BD00BFC0EDFF1FB8
:1019A00048F9FF1F013803280CD8074B03EB8000D0
:1019B000436972B600201BB11A885B681044FAE7CD
:1019C00062B6704700207047C0EDFF1F0138032842
:1019D0000BD872B6064B03EB80004369002013B1AD
:1019E00001305B68FBE762B670470020704700BFBC
:1019F000C0EDFF1F70B472B6194C1A4901231A19B1
:101A000012F8012C12071FD59A00164E51F83250C9
:101A10002DB906EB431308305860134B09E042F030
:101A2000010251F832507DB906EBC203083058600C
:101A30000E4B46F832300E4A92F82430013B82F8C1
:101A4000243062B670BC70470133052BD7D162B623
:101A5000074B002283F8242070BC00F0D1BB00BFEC
:101A6000B045000000E0FF1F88004000C8004000B3
:101A7000C0EDFF1F431E032B10B533D81A4A400197
:101A800040F01000104472B6184AD41894F825405B
:101A9000032C0BD8DFE804F015040207052411E03D
:101AA000083002240EE0083004240BE09B00D0181C
:101AB00044690CB9416101E0C06A41601344D962D4
:101AC0000FE00324134410F0080F0A8883F8254020
:101AD00001F10803436014BFC823882343EA02438B
:101AE000036062B610BD00BF00E0FF1FC0EDFF1F26
:101AF0002DE9F74FDFF8DC92B64B1D78EDB215F00B
:101B0000040F1C4611D0B44B93F8443053B1B34A80
:101B1000117801F0FF0329B1013BDBB213700BB95F
:101B200000F0C8FC042389F8003005F0080303F036
:101B3000FF06002B00F0A482A94BAA4E1A78D2B25D
:101B400013094FEA920540F00F8206EBC50359686E
:101B500056F83530C3F38303013B0C2B00F20082AF
:101B6000DFE813F0C501C501FE01FE01FE01FE0123
:101B7000FE01FE01DB01FE01FE01FE010D000A680F
:101B8000954C4B68A264E36492B2974B46F83530AB
:101B900040F2A151002301208A4223653361B361E1
:101BA0006070254600F062811DD8B2F5817F00F09B
:101BB000EF8009D8802A00F0D480822A00F0D680F5
:101BC000212A40F064815BE140F2A1318A4200F0B9
:101BD0003981B2F5A06F00F05E8140F202339A4283
:101BE00000F0E78053E1B2F5106F20D00FD8B2F5C6
:101BF000D06FC0F04C8140F281639A4240F208817C
:101C0000B2F5086F40F0438194F8443034E142F279
:101C100021218A4200F0118142F221339A4200F0E0
:101C20003A8142F221039A4200F05E812FE194F85A
:101C30004A2084F844201F46F219136A1B0603D574
:101C4000506A083800F0DCFA0837802FF4D1674F6B
:101C50004FF00008A7F1110B654A52F828004FEA2F
:101C6000880A40B141680192009100F0C9FA0099D8
:101C7000019A0846F5E75F4B42F80A004AF803006C
:101C80005AF80B0030B14268009200F0B9FA009A9D
:101C90001046F7E7584B03F1180243F80A00574B78
:101CA0004AF8020023F818003B78023B032B07D8C0
:101CB000DFE803F002040204002300E001233B708C
:101CC00008F10108B8F1040F07F10107C4D100239E
:101CD0004B4FDFF814A184F824304FF00108494B32
:101CE00008EB0702434412F8012C9B0012F0080F86
:101CF0001A704FEA880B25D000F064FA38B106EB71
:101D0000481308305860404B46F83B3006E095F8E1
:101D1000243046F83B00013385F8243000F052FAB5
:101D20004BF0010338B106EBC30E0830CEF80400C7
:101D300046F833A006E046F8330095F82430013326
:101D400085F824304BF002004BF0030208F1010843
:101D50000023B8F1050F46F8303046F83230BED1D6
:101D60009AE084F83C3084F83D3097E0B4F84C2099
:101D7000042A00F28C809200244984F83C3084F8D4
:101D80003D308B5C9E0740F1898084F83C0085E003
:101D9000B4F84C2002F07F03042B78D8B4F84A3012
:101DA000002B74D19100194A0A44117821F00201E4
:101DB00046E0B4F84C2002F07F03042B67D8B4F857
:101DC0004A30002B63D19100104A0A44117841F047
:101DD000020135E080200740C0EDFF1FB5EEFF1F78
:101DE0009020074000E0FF1FC8004000E5EDFF1F06
:101DF000C4EDFF1F14EEFF1FD4EDFF1F48F9FF1FB6
:101E0000B045000030C8011088004000C0200740E5
:101E1000B4F84A20B4F84C10AA4B5D68BDB31888DA
:101E2000904208D15888884205D1120A032A0CBF73
:101E30002B781B8934E00C33EFE794F84A10A24A60
:101E4000117029E0B4F84C20032A20D194F86420C2
:101E500084F83C3084F83E3084F83F3084F84130D8
:101E600084F83D0084F84020062318E0B4F84C3094
:101E7000032B0CD194F8643084F83C3003460EE018
:101E8000B4F84C20032A02D184F8640004E08F4B9C
:101E90000F221A7028E000231D4601E002233C3582
:101EA000B4F84E609E4228BF1E46402E374628BFDB
:101EB000402728463946FFF711FDF61B3D4403D164
:101EC000402F11D1374603E0402E374628BF402728
:101ED00028463946FFF702FDF61B3D4401D1402F4D
:101EE00002D12565A4F866600122794B37E0794B71
:101EF000B3F8482042F221039A420AD1764A0023DD
:101F0000C85C98540133072BFAD100210846FFF72B
:101F1000E5FC724B46F8353022E06E4F3E6D96B1CF
:101F2000B7F86640402C254628BF40253046294654
:101F3000FFF7D4FC601B80B2A7F8660008B9402DFB
:101F400000D170193865B7F84820624BB2F5A06F20
:101F500006D1002283F8492093F84A20604B1A707A
:101F60005B4B01221A7087E006EBC504013B6168F8
:101F700002F00802DFB2A1F1080002F0FF03002A1C
:101F800043D000F03DF9534B03EB870ED819DEF830
:101F9000141019B34A68CEF8142001F108026260E7
:101FA00090F82520032A10D8DFE802F00205080B7C
:101FB0003B44032207E03B44022204E03B44052269
:101FC00001E03B44042283F8252014F0080F0A881E
:101FD00014BFC823882343EA02434BE090F825202E
:101FE000032A09D8DFE802F0484802053B440022F2
:101FF00008E03B44012205E014F0080F14BF03225F
:1020000002223B4483F8252036E056F83520120C96
:102010001FFA82FE21F808EC32B32E4A21F8063C62
:102020004FEA870C41F8043C02EB0C014B680BB9FA
:10203000486001E04B6D58606244DFF8988050655D
:10204000284A32F81730734422F8173000F0BAF8F3
:1020500010B10830606007E098F8243046F8350089
:10206000013388F8243007E01F4A1C4B14F0080F96
:1020700008BF134646F83530082389F800303BE5A1
:10208000E80739D5134A124D1748114602232B7021
:1020900001F8686B154BA83283E80300DA6098609A
:1020A0001E619E61094B0D221A70114AFF231370A5
:1020B0002370167413710F4B9F221A7001232B701B
:1020C0002DE000BFB4450000B6EEFF1FC020074062
:1020D00094200740C0EDFF1F50F9FF1FC8004000CB
:1020E0009820074048F9FF1F8800400000E0FF1FCC
:1020F0008820074084200740290604D5094B0D227B
:102100001A7080232370AA0705D5074A1378DBB21B
:10211000137002232370EB0644BF1023237003B017
:10212000BDE8F08FC02007408820074008B5FFF7C2
:1021300099FB00231C481946C21819500833882BF4
:102140005160194AF8D119490B6843F480230B6098
:10215000174B80211970187815490006FBD4154BD0
:10216000C2F307201870C2F30740120E18751A76D2
:10217000114AFF231370137202F8703C0B7843F07E
:1021800040030B7001230021137582F88010137136
:102190000A4B70221A70A3F21F3308221A60084BF0
:1021A00010221A7008BD00BF00E0FF1F34800440F9
:1021B0000C2107409C2007408020074023E400E0DA
:1021C0000821074010B572B60B480268B2FA82F1D6
:1021D0000B2902DD62B6002010BD4FF00043CB405A
:1021E00022EA0302026062B6044C48234B43E01823
:1021F0000022E250426010BD7CE5FF1FA0E0FF1FFF
:102200000C4B4822C31AB3FBF2F30B2B11D80A4A2A
:10221000127822B1094A12780AB1FFF7EBBB72B605
:1022200007494FF0004222FA03F30A681A430A6092
:1022300062B67047A0E0FF1FE4EDFF1F04EEFF1F32
:102240007CE5FF1F10B5104C23686BB120684388F4
:102250005A1C03441C7A03889A4212D3FFF7D0FF1A
:10226000094B00221A600DE0084B1B7813B94FF0A0
:10227000FF3010BD0320FFF779FB20600028E5D177
:10228000F5E74280204610BDA8EEFF1F04EEFF1FB9
:1022900010B50B4C236813B122686AB902E0094BF0
:1022A0001B7813B94FF0FF3010BD0320FFF75EFB22
:1022B00020600028F0D1F5E753881344187A10BD48
:1022C000A8EEFF1F04EEFF1F044B9888044B1A680A
:1022D0001AB1138852889B1A1844704748F9FF1F97
:1022E000A8EEFF1F2DE9F84FDFF87890DFF878B0FF
:1022F00080460E460027CA4686B39BF800306BB373
:10230000D9F8003053B90320FFF730FBCAF80000BA
:1023100020B3038813B9FFF773FFF4E7DAF800502E
:102320002B46698833F8084B641AB44228BF3446F8
:1023300022461944404602F0ABFD6B88A044274476
:10234000361B1C442B88A4B2A3426C80D4D82846E8
:10235000FFF756FF0023C9F80030CDE73846BDE847
:10236000F88F00BFA8EEFF1F04EEFF1F10B5094B4A
:102370001B786BB1084C206818B1FFF741FF0023B0
:1023800023600320FFF7F2FA10B1FFF739FFF8E7F7
:1023900010BD00BF04EEFF1FA8EEFF1F2DE9F8439C
:1023A0002A4C2B4E012380460D4623712746002DD3
:1023B00048D0A3680BBB47F20959337803F0FF02FA
:1023C0000BB9227112E00420FFF700FB072806D8A2
:1023D00001232371FFF7F6FEA06070B93871B9F1DF
:1023E000010901D0237B2BB1012323734FF0FF3070
:1023F000BDE8F88300F0BAF8DFE7A1680023237393
:102400004B88C3F14002AA4228BF2A4698180B44C1
:102410004880AD1A073308EB0209C84504D018F804
:10242000012B03F8012FF8E74B883F2B06D94023F7
:102430000B800420FFF71EFB0023A36005236373BA
:10244000C846B4E725712846BDE8F883A8EEFF1F0B
:1024500004EEFF1F07B502AB012103F8010D18467A
:10246000FFF79CFF03B05DF804FB70B50F4B1B78C2
:10247000D3B10F4CA568012626714DB100266B889B
:10248000667329462B800420FFF7F4FAA66009E062
:10249000FFF798FE014620B104206573FFF7EAFAC2
:1024A00000E066730023237170BD00BF04EEFF1FC0
:1024B000A8EEFF1F38B50D4C237903F0FF059BB93B
:1024C000A16831B14B880B800420FFF7D3FAA560D7
:1024D00038BDFFF777FE014620B10420BDE8384043
:1024E000FFF7C8BA0123637338BD00BFA8EEFF1F12
:1024F00030B5A0F1080300F1300200240025E3E923
:1025000002459342FBD10023836330BD816B10B53C
:102510004C1C072C00EBC1018463C1E9002304BFFC
:102520000023836310BD2DE9F8430F4D846B804673
:1025300005F13809002600270CB1013C00E0062413
:1025400008EBC401F5E90223D1E9000101F016FA14
:1025500002460B463046394601F05EF84D450646C8
:102560000F46E9D1BDE8F883284600007047FFFF19
:102570007047054B016082B01B680193019B43606B
:102580000023836002B07047BCEDFF1F2DE9F043CC
:10259000214F42683B6887B004460393039B9A42ED
:1025A00036D88168006800F0DBFB0026814606EB28
:1025B00046054D444FF00008A9786B782A780091C1
:1025C0003046414608F1010800F02EFCB8F1020F38
:1025D00005F10F05F0D10136052EE8D12168A36879
:1025E000C888013393FBF0F200FB12330A89396883
:1025F000A36005916368059913448B42636005D21B
:10260000054B1B680493049B1344636000F09AFC21
:1026100007B0BDE8F08300BFBCEDFF1F38B505462D
:1026200000F0B8FB0B4C58B100F0B4FB04F11401FE
:10263000B5FBF0F303FB1050A06200F0BBFB1434B9
:102640002146054800F0FCF821460448BDE8384022
:10265000FFF78FBFC4F2FF1F68F3FF1FF0F2FF1FE9
:102660002DE9F843394C3A4E00F0D6F804F1380021
:1026700000F0D6FA00F004FA364800F0E3F800F073
:102680009BFD012384F844303746DFF8D49099F855
:10269000003003F0FF05002B53D172B64AF20263FB
:1026A00033804BF28043338062B694F84430DFF8D5
:1026B0009C8053B100F080FD00F074FB88F8450069
:1026C000284688F84450FFF7A9FF234800F0C0FAD5
:1026D00094F845300B2B07D0FF2B08D01D4800F095
:1026E000F7F800F02FFC02E01C48FFF74FFFFFF760
:1026F000EBFD002812DDFF2384F845304AF2026822
:102700004BF28045FFF7E0FD002807DD00F044FABA
:1027100072B6A7F800803D8062B6F3E70B4D05F175
:10272000380000F0B9FA0028B1D005F1380000F007
:10273000BEFA10F0FF0FA8D1A86A0130FFF76EFFB4
:10274000A3E700F027F80020BDE8F883C4F2FF1FDC
:102750000C20054068F3FF1FFCF2FF1FF0F2FF1F83
:1027600024EEFF1F13B5094C0A2232238DE80C001A
:1027700045210023064A204600F0A6FA04F1140081
:1027800002B0BDE8104000F097BA00BFC4F2FF1FCE
:102790006846000037B50E4B0E4A1A600E4B0F49C3
:1027A0001A680092009A4AF202640A324BF28040A0
:1027B0001D680195019DAA4204D972B60C8008805B
:1027C00062B6F5E772B6064B00221A70FEE700BF4C
:1027D000FC1F002046436274BCEDFF1F0C20054027
:1027E000082107400B4B4CF220521A804DF628125C
:1027F0001A8000BF00BFD32223F80E2C00221A81BA
:102800004FF4B77223F80A2C4FF4585223F8082CCF
:10281000704700BF0E200540FFF7E4BFFFFFFFFF3A
:1028200010B5064C2346221D04F1080104F10C00EA
:1028300000F08CFE0123637310BD00BF10F3FF1F77
:102840004161704738B51A4C00238360C36004F1BE
:102850001000FFF74DFE174A1748136843F0007346
:102860001360164B04221A60154A00214FF6FF75BB
:1028700011600560106840F00F0010601A6842F0A7
:1028800002021A600F4A136843F0800313600920A4
:10289000FEF79AFE022209200B49FEF7EFFC0B4BD4
:1028A000F0221A7004F10C00BDE8384000F0E0BDE1
:1028B00010F3FF1F3C8004400890034054900340F5
:1028C0000090034058900340212800002AE400E0D3
:1028D0002DE9F3414C4D0446286800F0D9FF48A388
:1028E000D3E9002301F04AF801F05AFA00232B60E3
:1028F000464D6A7B074632B3A86820606B7300F0D0
:10290000E9FF02460B4605F11000FFF7FFFD05F158
:102910001000FFF708FE01F043FA296D064601F0AA
:1029200093FA0021804601F055FD08B1012308E02B
:102930000021404601F030FD10B14FF0FF3300E0C0
:102940006B6D23612E6526696B6D9E420DD0002351
:10295000002EA36001DAE36007E06369D88878237A
:10296000B0FBF3F001F026FBE06021686E653846AD
:1029700001F074FBA16801F069FA0146A0603846D5
:1029800001F06CFBE16801F061FA2149E06001F0BF
:1029900065FB01F029FD011E1CDB6069C3889942BB
:1029A00018DA00F0DDF90025074605EB45043C4444
:1029B0000026A178637822780091284631460136B6
:1029C00000F032FA022E04F10F04F2D10135052D88
:1029D000EBD112E00024002500231A4619462046B8
:1029E000009500F021FA0023204600951A460121A7
:1029F000013400F019FA052CEED102B0BDE8F081E7
:102A0000358A38DF807DD13E0490034010F3FF1FEC
:102A10000000F04203490123002202700B704A605B
:102A20001846704780F3FF1F044B054900221A70B7
:102A300001230B7002701846704700BF80F3FF1F20
:102A400008F3FF1F034A0123137200220270184685
:102A5000704700BF80F3FF1F044B1B7A0BB9037054
:102A600001E0002202701846704700BF80F3FF1F8C
:102A7000024A0023037013720120704780F3FF1F86
:102A800010B5064C04F10C0000F037F90123236265
:102A900000236362A362E362236310BD80F3FF1F20
:102AA00037B5FFF7CFFBC0B2FF281C4C4FF0000337
:102AB00021D0626AE362511C22440229616282F8D9
:102AC000340029DDA06A6362092825DC052190FB1A
:102AD000F1F101EB8105401B94F8365094F8353044
:102AE00094F83420009589B280B200F09DF9A36A71
:102AF0000133A36210E06362A362E36A0133012B36
:102B0000E36201D100F01EFAE26A044B082AC1BF59
:102B100002221A6200221A6303B030BD80F3FF1F45
:102B200010B5FFF78FFB1A4B1A6BC0B20AB9FF281A
:102B30002CD0511C1A44196382F8370093F83700DF
:102B4000144B1A78FF2A03D1BDE81040FFF798BF55
:102B5000824219D15A68914218DB0D4C9B6804F1EE
:102B60003800984708B1502000E04620FFF772FC7B
:102B700094F83800FFF76EFC94F8381004F139002F
:102B80000131FFF70BFCDFE70C33DAE710BD00BFC4
:102B900080F3FF1F3CE8FF1F054B1B6A012B03D08E
:102BA000022B03D1FFF7BCBFFFF77ABFFFF768BF67
:102BB00080F3FF1F0E4A137813B50BB9037014E0AE
:102BC00051680C4B0B40002BBEBF03F1FF3363F089
:102BD0000F030133402200929B0110244FF48062C6
:102BE00091FBF4F1044CA0470346184602B010BD17
:102BF00080F3FF1F0F00008091E8FF1F07B5074813
:102C00000A2232238DE80C00012100F19B020023EF
:102C10000C3000F059F803B05DF804FB80F3FF1F9F
:102C2000034B40F207121A600123036043607047B0
:102C30000C900440044A136823F008031360034B0C
:102C40001868C0F3C000704714F00F4010F00F4038
:102C500038B543680F4D012B04460FD0FFF7EAFF4C
:102C6000636805EB43035B78984205D1A368B3F52D
:102C7000FA7F0DDA01330AE0012363602878FEF75A
:102C800095FC6B78834203D1002363602360A360CB
:102C900038BD00BF18E9FF1F0368012B05D080680D
:102CA000A0F5FA7358425841704700207047034618
:102CB000012200681A6070470022C280026082729E
:102CC00002710281C260704710B583729DF80830AE
:102CD0000371BDF80C3003810023C1800260C36022
:102CE00010BD83729DF800300371BDF8043003817C
:102CF0000023C1800260C36070470023C360704737
:102D00000279C36830B55343026803EB43031344AD
:102D10000361002302795C1CDBB29A420DD905697C
:102D200003EB43032D78CD54CA1803695B785370C5
:102D300003699B7893702346ECE730BD837A10B526
:102D400004460BB9FFF7DCFFE368E1885A1C92FBED
:102D5000F1F301FB13239942B8BF0023E36010BDD8
:102D6000827A03682AB90079414301EB410158187E
:102D70007047184670474FF420431B78312B07D11A
:102D80004AF201031878A0F12303584258417047D2
:102D90000020704708B5FFF7EEFF10B14AF20203BA
:102DA000187808BD08B5FFF7E6FF10B14AF2030333
:102DB000187808BD73B502460D46FFF7EBFF904249
:102DC00028D302EBC20202F520444AF204036179DF
:102DD0009B5CA279E67A120402EB0162217A0A4432
:102DE000E17900EBC00002EB01220244A17A607A93
:102DF00001EB0021207B00EB062080B2019002F560
:102E000020420A2000900432284689B2FFF769FF69
:102E1000012000E0002002B070BDFFFF014B1878D8
:102E2000704700BF3CF4FF1F04280DDC01290BDCB8
:102E300001EB81010844054900EB40000844837020
:102E40009DF800304270C370704700BF3CF4FF1F14
:102E5000004870473DF4FF1F08B5014601F0FEF839
:102E6000014B186008BD00BF1CE9FF1F2DE9F04FA2
:102E7000DFF8CCA087B04FF0000C4FF0020800251F
:102E8000435D0193431900265A789B78029203937D
:102E90000AEB050B9BF80170019B04979BF80270ED
:102EA00015F80AE0059743FA06F41E2707FB06C942
:102EB000A40118FB0E9E04F04004E4B201F80E4099
:102EC000029B8E4444F020048EF8014043FA06F23F
:102ED000BDF81040039B920118FB049702F04002DA
:102EE000D2B2CA550F4442F020027A703341BDF885
:102EF00014209B0118FB029903F04003DBB201F898
:102F000009300136894443F02003082E89F8013046
:102F1000C0D103350F2DB3D10CF1F00CBCF5F07F0F
:102F200000F10F00ABD101F5F0724B7843F02003B4
:102F30004B7002318A42F8D107B0BDE8F08F00BF74
:102F400020E9FF1F10B5054C23782BB9216A601CBE
:102F5000FFF78CFF0123237010BD00BF3CF4FF1F5F
:102F6000174B18600420988040F20220D8809960A6
:102F70001448154900230B604860A0F53B30A0F2CF
:102F8000EA30013292B20B81CB604A810280038821
:102F90006FEA43436FEA53439BB2038003889BB2BB
:102FA00043F4007303804B896FEA43436FEA534352
:102FB0009BB24B814B899BB243F400734B817047AA
:102FC00000900040088003400C900040174B1860B0
:102FD0000420988040F20220D88099601448154956
:102FE00000230B604860A0F53B30A0F2DA300132DC
:102FF00092B20B81CB604A81028003886FEA43431F
:103000006FEA53439BB2038003889BB243F480630F
:1030100003804B896FEA43436FEA53439BB24B8172
:103020004B899BB243F480634B81704720900040F2
:10303000188003402C900040194B10B518600120F7
:1030400098801848184C00230380C0F802101749D4
:1030500000F576207A300B604860A0F57620623863
:1030600092B20B814A81028023604A8102800388E8
:103070006FEA43436FEA53439BB2038003889BB2DA
:1030800043F4C06303804B896FEA43436FEA5343C1
:103090009BB24B814B899BB243F4C0634B8110BD03
:1030A0004090004046900040589000404C900040B6
:1030B0000A4B186001209880094800230380C0F85B
:1030C0000210084900F5762092B21A300B60486071
:1030D0000B814A814A82044A136070476090004025
:1030E000669000406C9000407890004010B50E4C07
:1030F0001022042104F12400FFF732FF10220421E2
:1031000004F16400FFF762FF10220A2104F1A40019
:10311000FFF792FF10221E21D4F84401FFF7C8FFE9
:10312000024B03221A7010BD3CF4FF1F1D800040AB
:10313000FFF7DCBF074B02221A70074B1A783AB12F
:10314000D3F84421196A1A620022C3F844111A7094
:10315000FFF7CCBF1F8000403CF4FF1F114B04223F
:103160001A60114A00211160104940F2FF200860E6
:10317000116841F0090111601A6842F002021A60F8
:10318000652243F8402C4FF4007243F83C2C084A67
:10319000136843F080031360064B4FF451721A60BA
:1031A000704700BF54800340008003400880034004
:1031B0005880034010900440F8B501210E20FEF71E
:1031C00003FA01210F20FEF7FFF901210C20FEF781
:1031D000FBF901210B20FEF7F7F901211020FEF782
:1031E000F3F901210420FEF7EFF94A4A00210124F6
:1031F000EF25AF26B1FA81F35B09043304FA03F338
:10320000DB4303F0BF030020135401300A28FBD135
:10321000013108291572567202F10A02EAD13E4ABA
:1032200000210124DF259F260B1C18BF0123043336
:1032300004FA03F3DB4303F0BF030020135401300F
:103240000A28FBD1013108291572567202F10A02CF
:10325000EAD1324900231022A1F1400402F15000CA
:1032600041F8232044F8230001332C48082B4FEA6F
:103270004202A0F14006F1D100221023A0F1640423
:103280004FF49075062A3ED09100471831443B62B6
:1032900003F150070F620132082A4FEA4303F1D1CC
:1032A0001F4A204D136843F0020313601E4B002495
:1032B0001C60DC7603F582531C3302221A801B4B00
:1032C00004221A602B6843F002032B60184B9922EA
:1032D0001C701A70FFF70AFF2B6843F080732B6095
:1032E000FFF73CFF134B03F5A472C3F8442103F529
:1032F0004A72C3F82843546014811A621C70BDE8F6
:10330000F840FFF71FBECF2BBEDCC4F89C30E5654C
:10331000C1E700BFE0F4FF1F30F5FF1FA0F4FF1F5F
:10332000408004403C8004400080004000E100E018
:10333000001002403CF4FF1F064B1A7802F0DF0237
:103340001A701A7802F0EF021A70034A13789B067B
:10335000FCD470470260064003600640074A1368C9
:1033600043F040031360064B1B221A7080225A70F0
:10337000044A4FF400731360536070473480044074
:103380000160064000A0044004490B78034A9B07F3
:10339000FBD5137843F002031370704703600640B7
:1033A000064B1A7842F010021A701A78490042F05F
:1033B0002002C9B21A709970FFF7E6BF026006409A
:1033C00001B1B9E7024A137843F004031370704760
:1033D00002600640014B1970FFF7D6BF046006403B
:1033E000036810B5EBB1022BDFBF0F4A137843F02F
:1033F000080313700368012B06D1FFF79DFF0A4AEB
:10340000137803F0F7031370084B1C780368012B43
:10341000E4B201DDFFF7B8FF0368013B036020461B
:1034200010BD184610BD00BF026006400460064093
:1034300049000A4B41F00101C9B210B51970144698
:10344000FFF7A2FF064A137803F0EF03137001346D
:103450000460BDE81040FFF7C3BF00BF0460064032
:103460000260064000680028D4BF00200120704799
:1034700038B53348334C324DFFF770FF1D213048CB
:10348000FFF78EFF2B232370FFF77EFF402323706F
:10349000FFF77AFFFFF750FF0120FEF751F91D21DA
:1034A0002748FFF77DFF0D232370FFF76DFF264AA6
:1034B0002348137843F0040313701D210122FFF702
:1034C000B7FF2B68002B03DD1D48FFF789FFF8E7E6
:1034D0001D211B48FFF764FF0E232370FFF754FFE5
:1034E00002232370FFF750FFFFF726FF1D2114482A
:1034F000FFF756FF2D2323700125FFF745FF2570A9
:10350000FFF742FFFFF718FF1D210D48FFF748FFA7
:103510002E232370FFF738FF2570FFF735FFFFF7E5
:103520000BFF1D210648FFF73BFF2A232370FFF7FF
:103530002BFF03232370FFF727FFBDE83840FBE68E
:1035400044F9FF1F0460064002600640F8B52C4CA9
:103550000F4620461D2116461D46FFF721FF294B29
:1035600000221A70FFF710FF274A137843F0040374
:1035700013701D2104222046FFF75AFF2368002BF9
:1035800002DD2046FFF72CFF2368002B0DDD1C48D1
:10359000FFF726FF40B200F08BF917A3D3E9002311
:1035A00000F0ECF900F0FCFB38602368002B0DDD27
:1035B0001348FFF715FF40B200F07AF90EA3D3E9E4
:1035C000002300F0DBF900F0EBFB30602368002BF8
:1035D0000DDD0B48FFF704FF40B200F069F906A3C8
:1035E000D3E9002300F0CAF900F0DAFB28600120DB
:1035F000F8BD00BFAFF300809A9999999999E33F7C
:1036000044F9FF1F046006400260064081F000415B
:1036100002E000BF83F0004330B54FEA41044FEAB7
:10362000430594EA050F08BF90EA020F1FBF54EA52
:10363000000C55EA020C7FEA645C7FEA655C00F0EE
:10364000E2804FEA5454D4EB5555B8BF6D420CDDBF
:103650002C4480EA020281EA030382EA000083EA42
:10366000010180EA020281EA0303362D88BF30BDE2
:1036700011F0004F4FEA01314FF4801C4CEA113138
:1036800002D0404261EB410113F0004F4FEA033397
:103690004CEA133302D0524263EB430394EA050F22
:1036A00000F0A780A4F10104D5F1200E0DDB02FA91
:1036B0000EFC22FA05F2801841F1000103FA0EF225
:1036C000801843FA05F359410EE0A5F120050EF1EB
:1036D000200E012A03FA0EFC28BF4CF0020C43FA1C
:1036E00005F3C01851EBE37101F0004507D54FF029
:1036F000000EDCF1000C7EEB00006EEB0101B1F579
:10370000801F1BD3B1F5001F0CD349085FEA3000BE
:103710004FEA3C0C04F101044FEA445212F5800FC9
:1037200080F09A80BCF1004F08BF5FEA500C50F166
:10373000000041EB045141EA050130BD5FEA4C0C49
:10374000404141EB010111F4801FA4F10104E9D1D2
:1037500091F0000F04BF01460020B1FA81F308BFC9
:103760002033A3F10B03B3F120020CDA0C3208DD95
:1037700002F1140CC2F10C0201FA0CF021FA02F170
:103780000CE002F11402D8BFC2F1200C01FA02F1E0
:1037900020FA0CFCDCBF41EA0C019040E41AA2BF05
:1037A00001EB0451294330BD6FEA04041F3C1CDACD
:1037B0000C340EDC04F11404C4F1200220FA04F0ED
:1037C00001FA02F340EA030021FA04F345EA030197
:1037D00030BDC4F10C04C4F1200220FA02F001FA59
:1037E00004F340EA0300294630BD21FA04F02946DB
:1037F00030BD94F0000F83F4801306BF81F4801174
:103800000134013D4EE77FEA645C18BF7FEA655CE6
:1038100029D094EA050F08BF90EA020F05D054EAB8
:10382000000C04BF1946104630BD91EA030F1EBFBD
:103830000021002030BD5FEA545C05D140004941C1
:1038400028BF41F0004130BD14F580043CBF01F5B4
:10385000801130BD01F0004545F0FE4141F470019A
:103860004FF0000030BD7FEA645C1ABF1946104675
:103870007FEA655C1CBF0B46024650EA013406BF76
:1038800052EA033591EA030F41F4002130BD00BF35
:1038900090F0000F04BF0021704730B54FF48064F2
:1038A00004F132044FF000054FF0000150E700BF73
:1038B00090F0000F04BF0021704730B54FF48064D2
:1038C00004F1320410F0004548BF40424FF00001BF
:1038D0003EE700BF42004FEAE2014FEA31014FEA02
:1038E00002701FBF12F07F4393F07F4F81F0605151
:1038F000704792F0000F14BF93F07F4F704730B5C0
:103900004FF4607401F0004521F0004120E700BF52
:1039100050EA010208BF704730B54FF000050AE0D9
:1039200050EA010208BF704730B511F0004502D5DA
:10393000404261EB41014FF4806404F132045FEADC
:10394000915C3FF4DCAE4FF003025FEADC0C18BF81
:1039500003325FEADC0C18BF033202EBDC02C2F177
:10396000200300FA03FC20FA02F001FA03FE40EA09
:103970000E0021FA02F11444C1E600BF70B54FF009
:10398000FF0C4CF4E06C1CEA11541DBF1CEA1355EB
:1039900094EA0C0F95EA0C0F00F0DEF82C4481EA53
:1039A000030621EA4C5123EA4C5350EA013518BF73
:1039B00052EA033541F4801143F4801338D0A0FB60
:1039C00002CE4FF00005E1FB02E506F00042E0FB0D
:1039D00003E54FF00006E1FB03569CF0000F18BF13
:1039E0004EF0010EA4F1FF04B6F5007F64F54074BB
:1039F00004D25FEA4E0E6D4146EB060642EAC6214E
:103A000041EA55514FEAC52040EA5E504FEACE2EBA
:103A1000B4F1FD0C88BFBCF5E06F1ED8BEF1004FBD
:103A200008BF5FEA500E50F1000041EB045170BD39
:103A300006F0004646EA010140EA020081EA03017D
:103A4000B4EB5C04C2BFD4EB0C0541EA045170BD79
:103A500041F480114FF0000E013C00F3AB8014F1F3
:103A6000360FDEBF002001F0004170BDC4F100043C
:103A7000203C35DA0C341BDC04F11404C4F12005BD
:103A800000FA05F320FA04F001FA05F240EA020018
:103A900001F0004221F0004110EBD37021FA04F64E
:103AA00042EB06015EEA430E08BF20EAD37070BD08
:103AB000C4F10C04C4F1200500FA04F320FA05F067
:103AC00001FA04F240EA020001F0004110EBD37069
:103AD00041F100015EEA430E08BF20EAD37070BDD9
:103AE000C4F1200500FA05F24EEA020E20FA04F3B2
:103AF00001FA05F243EA020321FA04F001F0004161
:103B000021FA04F220EA020000EBD3705EEA430ED1
:103B100008BF20EAD37070BD94F0000F0FD101F000
:103B20000046400041EB010111F4801F08BF013C39
:103B3000F7D041EA060195F0000F18BF704703F077
:103B40000046520043EB030313F4801F08BF013DFE
:103B5000F7D043EA0603704794EA0C0F0CEA1355BA
:103B600018BF95EA0C0F0CD050EA410618BF52EA74
:103B70004306D1D181EA030101F000414FF000007A
:103B800070BD50EA410606BF1046194652EA430688
:103B900019D094EA0C0F02D150EA013613D195EAFC
:103BA0000C0F05D152EA03361CBF104619460AD144
:103BB00081EA030101F0004141F0FE4141F470014E
:103BC0004FF0000070BD41F0FE4141F4780170BD3E
:103BD00070B54FF0FF0C4CF4E06C1CEA11541DBFA3
:103BE0001CEA135594EA0C0F95EA0C0F00F0A7F8A5
:103BF000A4EB050481EA030E52EA03354FEA0131D2
:103C000000F088804FEA03334FF0805545EA1313E4
:103C100043EA12634FEA022245EA111545EA1065AC
:103C20004FEA00260EF000419D4208BF964244F143
:103C3000FD0404F5407402D25B084FEA3202B61A62
:103C400065EB03055B084FEA32024FF480104FF436
:103C5000002CB6EB020E75EB030E22BFB61A7546AA
:103C600040EA0C005B084FEA3202B6EB020E75EB3D
:103C7000030E22BFB61A754640EA5C005B084FEAA5
:103C80003202B6EB020E75EB030E22BFB61A754672
:103C900040EA9C005B084FEA3202B6EB020E75EB7D
:103CA000030E22BFB61A754640EADC0055EA060E3E
:103CB00018D04FEA051545EA16754FEA06164FEA81
:103CC000C30343EA52734FEAC2025FEA1C1CC0D12D
:103CD00011F4801F0BD141EA00014FF000004FF0BA
:103CE000004CB6E711F4801F04BF01430020B4F17B
:103CF000FD0C88BFBCF5E06F3FF6AFAEB5EB030C33
:103D000004BFB6EB020C5FEA500C50F1000041EB2F
:103D1000045170BD0EF0004E4EEA113114EB5C04FC
:103D2000C2BFD4EB0C0541EA045170BD41F48011CF
:103D30004FF0000E013C90E645EA060E8DE60CEAD7
:103D4000135594EA0C0F08BF95EA0C0F3FF43BAFF4
:103D500094EA0C0F0AD150EA01347FF434AF95EAAB
:103D60000C0F7FF425AF104619462CE795EA0C0F8F
:103D700006D152EA03353FF4FDAE1046194622E75C
:103D800050EA410618BF52EA43067FF4C5AE50EA36
:103D900041047FF40DAF52EA43057FF4EBAE12E726
:103DA0004FEA4102B2F1E04324BFB3F5001CDCF15D
:103DB000FE5C0DD901F0004C4FEAC0024CEA507095
:103DC000B2F1004F40EB830008BF20F001007047C4
:103DD00011F0804F21D113F13872BCBF01F00040C7
:103DE000704741F480114FEA5252C2F11802C2F1F9
:103DF000200C10FA0CF320FA02F018BF40F001007A
:103E00004FEAC1234FEAD32303FA0CFC40EA0C002B
:103E100023FA02F34FEA4303CCE77FEA625307D168
:103E200050EA01331EBF4FF0FE4040F4400070479F
:103E300001F0004040F0FE4040F40000704700BF39
:103E400080F0004002E000BF81F0004142001FBF4F
:103E50005FEA410392EA030F7FEA226C7FEA236C58
:103E60006AD04FEA1262D2EB1363C1BFD21841404D
:103E700048404140B8BF5B42192B88BF704710F0E3
:103E8000004F40F4000020F07F4018BF404211F086
:103E9000004F41F4000121F07F4118BF494292EAEE
:103EA000030F3FD0A2F1010241FA03FC10EB0C001A
:103EB000C3F1200301FA03F100F0004302D54942A7
:103EC00060EB4000B0F5000F13D3B0F1807F06D354
:103ED00040084FEA310102F10102FE2A51D2B1F14C
:103EE000004F40EBC25008BF20F0010040EA030041
:103EF0007047490040EB000010F4000FA2F10102EE
:103F0000EDD1B0FA80FCACF1080CB2EB0C0200FA77
:103F10000CF0AABF00EBC25052421843BCBFD040C5
:103F20001843704792F0000F81F4000106BF80F43F
:103F300000000132013BB5E74FEA41037FEA226C02
:103F400018BF7FEA236C21D092EA030F04D092F0CD
:103F5000000F08BF0846704790EA010F1CBF002001
:103F6000704712F07F4F04D1400028BF40F000405E
:103F7000704712F100723CBF00F50000704700F07E
:103F8000004343F0FE4040F4000070477FEA2262A5
:103F900016BF08467FEA23630146420206BF5FEA76
:103FA000412390EA010F40F4800070474FF0000376
:103FB00004E000BF10F0004348BF40425FEA000C3D
:103FC00008BF704743F0964301464FF000001CE0E5
:103FD00050EA010208BF70474FF000030AE000BF3B
:103FE00050EA010208BF704711F0004302D5404279
:103FF00061EB41015FEA010C02BF844601460020EB
:1040000043F0B64308BFA3F18053A3F50003BCFA05
:104010008CF2083AA3EBC25310DB01FA02FC6344B2
:1040200000FA02FCC2F12002BCF1004F20FA02F2B9
:1040300043EB020008BF20F00100704702F12002AC
:1040400001FA02FCC2F1200250EA4C0021FA02F20D
:1040500043EB020008BF20EADC7070474FF0FF0C12
:104060001CEAD0521EBF1CEAD15392EA0C0F93EA0D
:104070000C0F6FD01A4480EA010C400218BF5FEAAF
:1040800041211ED04FF0006343EA501043EA511122
:10409000A0FB01310CF00040B1F5000F3EBF49001C
:1040A00041EAD3715B0040EA010062F17F02FD2A20
:1040B0001DD8B3F1004F40EBC25008BF20F0010003
:1040C000704790F0000F0CF0004C08BF49024CEA1A
:1040D000502040EA51207F3AC2BFD2F1FF0340EAAC
:1040E000C250704740F400004FF00003013A5DDC1D
:1040F00012F1190FDCBF00F000407047C2F100025E
:10410000410021FA02F1C2F1200200FA02FC5FEA4A
:10411000310040F1000053EA4C0308BF20EADC7094
:10412000704792F0000F00F0004C02BF400010F406
:10413000000F013AF9D040EA0C0093F0000F01F0B3
:10414000004C02BF490011F4000F013BF9D041EAD5
:104150000C018FE70CEAD15392EA0C0F18BF93EAD7
:104160000C0F0AD030F0004C18BF31F0004CD8D101
:1041700080EA010000F00040704790F0000F17BF88
:1041800090F0004F084691F0000F91F0004F14D0CE
:1041900092EA0C0F01D142020FD193EA0C0F03D126
:1041A0004B0218BF084608D180EA010000F0004029
:1041B00040F0FE4040F40000704740F0FE4040F404
:1041C000400070474FF0FF0C1CEAD0521EBF1CEAA3
:1041D000D15392EA0C0F93EA0C0F69D0A2EB0302C1
:1041E00080EA010C49024FEA402037D04FF080535B
:1041F00043EA111143EA10130CF000408B4238BF20
:104200005B0042F17D024FF4000C8B4224BF5B1A2D
:1042100040EA0C00B3EB510F24BFA3EB510340EA7B
:104220005C00B3EB910F24BFA3EB910340EA9C0029
:10423000B3EBD10F24BFA3EBD10340EADC001B0199
:1042400018BF5FEA1C1CE0D1FD2A3FF650AF8B423D
:1042500040EBC25008BF20F0010070470CF0004C4A
:104260004CEA50207F32C2BFD2F1FF0340EAC25075
:10427000704740F400004FF00003013A37E792F036
:10428000000F00F0004C02BF400010F4000F013A94
:10429000F9D040EA0C0093F0000F01F0004C02BF8F
:1042A000490011F4000F013BF9D041EA0C0195E7F8
:1042B0000CEAD15392EA0C0F08D142027FF47DAF91
:1042C00093EA0C0F7FF470AF084676E793EA0C0F81
:1042D00004D14B023FF44CAF08466EE730F0004C7F
:1042E00018BF31F0004CCAD130F000427FF45CAF0F
:1042F00031F000437FF43CAF5FE700BF4FF0FF3C7D
:1043000006E000BF4FF0010C02E000BF4FF0010CCF
:104310004DF804CD4FEA40024FEA41037FEA226C98
:1043200018BF7FEA236C11D001B052EA530C18BFBA
:1043300090EA010F58BFB2EB030088BFC81738BF1F
:104340006FEAE17018BF40F0010070477FEA226C0D
:1043500002D15FEA402C05D17FEA236CE4D15FEA09
:10436000412CE1D05DF8040B704700BF844608463D
:104370006146FFE70FB5FFF7C9FF002848BF10F1FE
:10438000000F0FBD4DF808EDFFF7F4FF0CBF012043
:1043900000205DF808FB00BF4DF808EDFFF7EAFFCD
:1043A00034BF012000205DF808FB00BF4DF808ED88
:1043B000FFF7E0FF94BF012000205DF808FB00BF7D
:1043C0004DF808EDFFF7D2FF94BF012000205DF803
:1043D00008FB00BF4DF808EDFFF7C8FF34BF012010
:1043E00000205DF808FB00BF4FEA4002B2F1FE4F2B
:1043F0000FD34FF09E03B3EB12620DD94FEA0023A7
:1044000043F0004310F0004F23FA02F018BF40427F
:1044100070474FF00000704712F1610F01D1420266
:1044200005D110F0004008BF6FF0004070474FF01A
:1044300000007047024B13B1024800F005B8704706
:104440000000000055440000002301461A461846AB
:1044500000F014B838B5074D074C2C1BA41005D03C
:10446000013C55F8043D9847002CF9D1BDE838408F
:1044700000F01ABD00000000000000002DE9F04728
:10448000254C2568D5F84841064688469246994607
:10449000C4B360681F2817DC431C76B104EB8005A9
:1044A0000122C5F888A0D4F8881182401143022E59
:1044B000C4F88811C5F808911ED00230636044F832
:1044C00020800020BDE8F087144B03B34FF4C87080
:1044D000AFF300800446D0B1D5F84831002780E81A
:1044E0008800C5F8484138460123C4F88871C4F8EB
:1044F0008C71002EE1D0D1E7D4F88C110A43C4F8B6
:104500008C21DAE705F5A674C5F84841C1E74FF0FC
:10451000FF30BDE8F08700BF804E000000000000C3
:104520000000FE43009004400400FE430490044059
:104530000800FE43089004400C00FE430C90044029
:104540001000FE43109004400008FE4300A0044009
:104550000408FE4304A004400410FE4304B00440D9
:104560000810FE4308B004400C10FE430CB0044099
:104570001010FE4310B004401410FE4314B0044069
:104580001810FE4318B004401C10FE431CB0044039
:104590001018FE4310C004401418FE4314C0044019
:1045A0001818FE4318C004401C18FE431CC00440E9
:1045B000191519150001000069E5FF1F1200000020
:1045C00000020000FCE4FF1F6D000000000300007B
:1045D000F8E4FF1F0000000001030904E0E4FF1FEE
:1045E0000000000002030904C4E4FF1F00000000F3
:1045F0000303090482E4FF1F000000000403090410
:1046000058E4FF1F000000000503090428E4FF1F11
:10461000000000000603090404E4FF1F000000007E
:10462000000000000000000000000000FFFFFFFF8E
:1046300028BA039F3234A43F39530C75504EBE3F05
:10464000E8628CD18584CA3F69514D799291CF3F00
:10465000E8628CD18584CA3F39530C75504EBE3FF9
:1046600028BA039F3234A43F00000000000000007D
:10467000000000000000000000000000000000003A
:1046800000000000000011339F11339F11339F1170
:10469000339F11339F11339F11339F11339F113378
:1046A0009F11339F11339F11339F11339F11339FFC
:1046B00011339F11339F11339F11339F11339F117A
:1046C000339F11339F000000000000000000000035
:1046D0000011339F00000000000000000011339F14
:1046E00011339F00000000000000000000000011D6
:1046F000339F00000000000000000011339F1133C1
:104700009F00000000000000000011339F11339F44
:1047100000000000000000000011339F11339F11C2
:10472000339F11339F11339F11339F11339F1133E7
:104730009F11339F11339F11339F00000011339F4E
:1047400011339F11339F00000000000011339F11AF
:10475000339F11339F0000000000000000000000A4
:104760000000000000000000000000000000000049
:104770000000000000000000000000000000000039
:104780000000000000000000000000000000000029
:104790000000000011339F11339F11339F11339F8D
:1047A00011339F11339F11339F11339F11339F1189
:1047B000339F11339F11339F11339F11339F113357
:1047C0009F11339F11339F11339F11339F11339FDB
:1047D00000000000000000000000000000000000D9
:1047E00000000000000000000000000000000000C9
:1047F00000000000000000000000000000000000B9
:1048000000000000000000000000000011339F11B4
:10481000339F00000011339F11339F11339F1133D9
:104820009F11339F11339F11339F11339F11339F7A
:1048300000000011339F11339F11339F11339F11DB
:10484000339F11339F11339F0000000000000000D0
:104850000000000000000000000000000000000058
:104860000000000000000000000000000000000048
:104870000000000000000000000000000000000038
:104880000000000000000000000000000011339F45
:1048900011339F11339F11339F11339F11339F1198
:1048A000339F00000000000000000011339F11330F
:1048B0009F11339F11339F11339F11339F11339FEA
:1048C00000000000000000000000000011339F0005
:1048D00000000000000000000000000000000000D8
:1048E0000000000000000011339F000000000000E5
:1048F00000000000000000000000000000000000B8
:10490000000000000011339F11339F11339F1133BA
:104910009F11339F11339F11339F0000000000004F
:1049200000000000000011339F11339F11339F11CD
:10493000339F11339F11339F0000000000000000DF
:104940000000000000000000000000000000000067
:104950000000000000000000000000000000000057
:104960000000000000000000000000000000000047
:104970000000000011339F11339F11339F11339FAB
:1049800011339F11339F11339F11339F11339F11A7
:10499000339F11339F11339F11339F11339F113375
:1049A0009F11339F11339F11339F11339F11339FF9
:1049B00000000000000000000000000000000000F7
:1049C000000011339F000000000000000000000004
:1049D0000000000000000000000011339F11339F11
:1049E00011339F11339F11339F000000000000001E
:1049F000000000000011339F11339F0000000000F1
:104A00000011339F11339F11339F000000000000FD
:104A100000000011339F00000000000000000000B3
:104A2000000000000011339F0000000000000000A3
:104A30000000000000000000000000000000000076
:104A400000000000000011339F11339F000000118F
:104A5000339F11339F11339F11339F11339F1133B4
:104A60009F11339F11339F11339F00000011339F1B
:104A700011339F11339F11339F11339F11339F11B6
:104A8000339F000000000000000000000000000054
:104A90000000000000000000000000000000000016
:104AA0000000000000000000000000000000000006
:104AB00000000000000000000000000000000000F6
:104AC0000000000000000011339F11339F11339F3D
:104AD00011339F11339F11339F11339F000000004A
:104AE000000000000011339F11339F11339F1133D9
:104AF0009F11339F11339F11339F0000000000006E
:104B000000000000000011339F00000000000000C2
:104B10000000000000000000000000000000000095
:104B20000011339F000000000000000000000000A2
:104B30000000000000000000000000000000001164
:104B4000339F11339F11339F11339F11339F1133C3
:104B50009F11339F000000000000000000000000D3
:104B600011339F11339F11339F11339F11339F11C5
:104B7000339F000000000000000000000000000063
:104B80000000000000000000000000000000000025
:104B90000000000000000000000000000000000015
:104BA00000000000000000000000000000002F03D3
:104BB000BE2F03BE2F03BE2F03BE2F03BE2F03BE87
:104BC0002F03BE2F03BE2F03BE2F03BE2F03BE2F06
:104BD00003BE2F03BE2F03BE2F03BE2F03BE2F0322
:104BE000BE2F03BE2F03BE2F03BE00000000000037
:104BF00000000000000000000000000000000000B5
:104C000000000000000000000000000000000000A4
:104C1000000000002F03BE0000000000002F03BEB4
:104C20002F03BE0000000000000000000000002F65
:104C300003BE0000000000002F03BE2F03BE2F03A1
:104C4000BE2F03BE0000000000000000002F03BEC6
:104C50000000000000002F03BE0000000000002F35
:104C600003BE0000000000000000002F03BE000093
:104C7000000000002F03BE0000000000002F03BE54
:104C80000000000000000000002F03BE2F03BE2F15
:104C900003BE2F03BE2F03BE2F03BE2F03BE000093
:104CA000000000000000000000002F03BE2F03BE24
:104CB0002F03BE2F03BE2F03BE2F03BE0000000034
:104CC00000000000000000000000000000000000E4
:104CD000000000000000002F03BE000000000000E4
:104CE00000000000000000000000000000000000C4
:104CF00000000000000000002F03BE2F03BE2F03A2
:104D0000BE2F03BE2F03BE2F03BE2F03BE2F03BE35
:104D10002F03BE2F03BE2F03BE2F03BE2F03BE2FB4
:104D200003BE2F03BE2F03BE2F03BE2F03BE2F03D0
:104D3000BE0000000000000000000000002F03BEC5
:104D40000000000000000000000000000000002F34
:104D500003BE0000000000000000002F03BE0000A2
:104D6000000000000000000000000000002F03BE53
:104D70000000000000000000002F03BE2F03BE2F24
:104D800003BE2F03BE2F03BE2F03BE2F03BE0000A2
:104D9000000000000000000000002F03BE2F03BE33
:104DA0002F03BE2F03BE2F03BE0000000000000033
:104DB00000000000000000000000000000000000F3
:104DC00000000000000000000000000000000000E3
:104DD0000000000000002F03BE2F03BE2F03BE0003
:104DE00000002F03BE2F03BE0000000000000000E3
:104DF000002F03BE2F03BE2F03BE2F03BE2F03BE03
:104E00000000002F03BE0000000000000000002F83
:104E100003BE0000002F03BE2F03BE2F03BE2F03CF
:104E2000BE2F03BE0000000000000000002F03BEE4
:104E30000000000000002F03BE2F03BE2F03BE00A2
:104E400000000000000000000000002F03BE2F0340
:104E5000BE00000000000000000000000000000094
:104E60000000000000000000000000000000000042
:104E70000000000000000000000000000000FFFF34
:104E800030E9FF1FF8B500BFF8BC08BC9E4670476C
:104E90005FF800F089E5FF1F354400001D11000098
:084EA00065270000FD2B000056
:044EA800F8B500BF9A
:104EAC0058F9FF1F240342006C0069006E006B0070
:104EBC007900500065006E00640061006E007400A3
:104ECC002000440046005500300342006C0069008D
:104EDC006E006B007900500065006E00640061008C
:104EEC006E007400200046006100640065006300E1
:104EFC0061006E00640079002A0342006C006900B6
:104F0C006E006B007900500065006E00640061005B
:104F1C006E0074002000530065007200690061008F
:104F2C006C001803000000000000000000000000EE
:104F3C000000000000000000000000000000000065
:104F4C000000000000000000000000000000000055
:104F5C000000000000000000000000000000000045
:104F6C00000000001C0342006C0069006E006B0026
:104F7C007900500065006E00640061006E007400E2
:104F8C00180342006C0069006E006B0069006E0033
:104F9C006C006100620073000403090409026D00D7
:104FAC0004010080FA080B0002020201040904004B
:104FBC000001020201040524001001052401010175
:104FCC000424020605240600010705820310004094
:104FDC0009040100020A0000040705030240000056
:104FEC00070584024000000904020001FF000005CF
:104FFC00070501024000000904030000FE01010640
:10500C0009210D10270004010112010002EF020119
:10501C00400912888800030102030100FFFFFFFF13
:10502C00020000000100000010B5431E0A4491422A
:10503C0004D011F8014B03F8014FF8E710BD034BF6
:10504C001878C043C0F3C010704700BF0000024086
:10505C00024B70221A7080221A70704700000240B6
:10506C00074B09221A70C0F3074203F8012CC0F356
:10507C000722C0B203F8022C03F8030CFFF7E8BFB9
:10508C00070002400B4B06221A70C0F3074203F8CC
:10509C00012CC0F30722C0B203F8022C03F8030C56
:1050AC00CA781A718A78DA704A789A700A785A70C3
:1050BC00FFF7CEBF07000240800200F5204070478A
:1050CC002DE9F843D518B5F5806F04460F46104608
:1050DC00244E01D88D4204D9234B0A221A7008237E
:1050EC0012E006F1010E1A4608997044FFF79CFF76
:1050FC00BD4234D11C4B1A78022A984608D0052A96
:10510C0006D00A221A700F2333700020BDE8F883F2
:10511C00164B1B781B0605D596F80194114FB9F167
:10512C00000F04D00A2388F800300E23ECE725B9D1
:10513C00062388F800303D7011E0A002012100F533
:10514C002040C7F8040487F80114FFF789FF0323F4
:10515C0088F8003087F800900846BDE8F8830120F5
:10516C00BDE8F883B8EEFF1F80E5FF1F000002408A
:10517C00030610B522D500F0400303F0FF043BB149
:10518C000F4B0A221A700F4B0E221A70002213E0DA
:10519C0010F0300208D00A4B0A221A70094B082270
:1051AC001A7083F8014409E010F0010007D0044B99
:1051BC000A201870034B197083F80124012010BDCC
:1051CC0080E5FF1FB8EEFF1F38B5194B194C187846
:1051DC0094F80134012BC0B202D0022B10D038BD90
:1051EC000421FFF7C5FF08BB0223C4F8080484F8A8
:1051FC000134611CD4F80404BDE83840FFF742BF09
:10520C000721FFF7B5FF88B9D4F80854B5F5806FBE
:10521C000AD2D4F80404611C294428440435FFF74D
:10522C0031FFC4F8085438BD84F8010438BD00BF00
:10523C0000000240B8EEFF1F70B5154C154D2378D9
:10524C00032B064615D3042B07D9062B11D10723A4
:10525C0023704FF47A7363600BE0FFF7B5FF23788C
:10526C000A2B06D095F801340BB9052300E0042372
:10527C0023702B783370636873701A0A1B0CF370ED
:10528C00237833710023B2707371012070BD00BF9D
:10529C0080E5FF1FB8EEFF1F084B1A780A2A084A50
:1052AC0005D10221197000231370012070470A21C7
:1052BC0019700F2313700020704700BF80E5FF1F8B
:1052CC00B8EEFF1F034B02221A70034B00221A7018
:1052DC000120704780E5FF1FB8EEFF1F01000000A2
:1052EC0001000000152A000002000000410000002F
:1052FC00B52B00000300000001000000292A00006B
:10530C000400000001000000452A00000500000018
:10531C0001000000592A00000600000001000000F6
:10532C00712A0000FF0000000000000000000000D7
:10533C001FB50446084611461A4672B6069B0094E1
:10534C00FFF7BEFE164B08B9187023E05A680132FD
:10535C005A6002A8FFF770FF9DF808309BB163708C
:10536C000522104B22701B78A3700F4B1B78E37037
:10537C000E4B1B7823710E4B1B7863710D4B1B78F6
:10538C00A371002006E09DF80C30052B01D0022BF8
:10539C00DFD1012062B60023237004B010BD00BF22
:1053AC0080F3FF1F10000240110002401200024067
:1053BC001300024017000240030000000000803F71
:1053CC000200010503040806070B090A0E0C0D0068
:1053DC00000000001CECFF1F84ECFF1FECECFF1F17
:1053EC0000000000000000000000000000000000B1
:1053FC0000000000000000000000000000000000A1
:10540C000000000000000000000000000000000090
:10541C000000000000000000000000000000000080
:10542C000000000000000000000000000000000070
:10543C000000000000000000000000000000000060
:10544C000000000000000000000000000000000050
:10545C000000000000000000000000000000000040
:10546C000000000000000000000000000000000030
:10547C00000000000000000001000000000000001F
:10548C000E33CDAB34126DE6ECDE05000B000000E4
:10549C000000000000000000000000000000000000
:1054AC0000000000000000000000000000000000F0
:1054BC0000000000000000000000000000000000E0
:1054CC0000000000000000000000000000000000D0
:0400000300001000E9
:00000001FF
