:10000000FC1F0020F900000003E2FF1F03E2FF1FB6
:1000100003E2FF1F03E2FF1F03E2FF1F01E2FF1FD6
:1000200001E2FF1F01E2FF1F01E2FF1F03E2FF1FCA
:1000300003E2FF1F01E2FF1F03E2FF1F03E2FF1FB6
:1000400003E2FF1F03E2FF1F03E2FF1F03E2FF1FA4
:1000500003E2FF1F03E2FF1F03E2FF1F03E2FF1F94
:1000600003E2FF1F03E2FF1F03E2FF1F03E2FF1F84
:1000700003E2FF1F03E2FF1F03E2FF1F03E2FF1F74
:10008000B5E6FF1F03E2FF1F03E2FF1F03E2FF1FAE
:1000900003E2FF1F03E2FF1F03E2FF1F03E2FF1F54
:1000A00003E2FF1F03E2FF1F03E2FF1F03E2FF1F44
:1000B00003E2FF1F03E2FF1F03E2FF1F03E2FF1F34
:1000C00003E2FF1F03E2FF1F03E2FF1F45E2FF1FE2
:1000D00003E2FF1F03E2FF1F03E2FF1F03E2FF1F14
:1000E00003E2FF1F03E2FF1F03E2FF1F03E2FF1F04
:1000F00003E2FF1F03E2FF1F3D4B4CF220521A8028
:100100004DF628121A8000BF00BFD32223F80E2C10
:1001100000221A81072223F80A2C4FF4A64223F862
:10012000082CA3F51F43D63B324A1A60324A5A6064
:1001300003F5533303F2CA331A78110742BF1A7812
:1001400042F008021A702D4B0A221A70A3F6FF73B0
:1001500024221A70A02203F8012C294B1A78920746
:10016000FBD51A78D006FCD41A7802F00C02082AC3
:10017000FAD1244B03221A7040225A70224A234B90
:1001800023498B4204D252F8041F43F8041BF7E7BB
:10019000204A214B9A424FF0000302D242F8043B1E
:1001A000F7E71E491E4A51F8231042F82310013385
:1001B000402BF6D11B4B1A60114B1A789106FBD5D8
:1001C0001A785206FCD5184B184A1A60184B202290
:1001D0001A700B4B1B7803F00C030C2BF9D1154B49
:1001E00002221A60443B144A1A6062B600F028B832
:1001F0000E200540823F04000100002B0050064005
:1002000006400640044006400C04000000E2FF1FC8
:1002100020ECFF1F00F0FF1F34F9FF1F000000005B
:1002200000F0FF1F08ED00E04480044000000311CF
:100230000040064048800440C0100500FFFFFFFF5B
:1002400001B40248844601BC604700BFC1E7FF1FFC
:10025000FFFFFFFFFFFFFFFFFFFFFFFFFFFFFFFFAE
:10026000FFFFFFFFFFFFFFFFFFFFFFFFFFFFFFFF9E
:10027000FFFFFFFFFFFFFFFFFFFFFFFFFFFFFFFF8E
:10028000FFFFFFFFFFFFFFFFFFFFFFFFFFFFFFFF7E
:10029000FFFFFFFFFFFFFFFFFFFFFFFFFFFFFFFF6E
:1002A000FFFFFFFFFFFFFFFFFFFFFFFFFFFFFFFF5E
:1002B000FFFFFFFFFFFFFFFFFFFFFFFFFFFFFFFF4E
:1002C000FFFFFFFFFFFFFFFFFFFFFFFFFFFFFFFF3E
:1002D000FFFFFFFFFFFFFFFFFFFFFFFFFFFFFFFF2E
:1002E000FFFFFFFFFFFFFFFFFFFFFFFFFFFFFFFF1E
:1002F000FFFFFFFFFFFFFFFFFFFFFFFFFFFFFFFF0E
:10030000FFFFFFFFFFFFFFFFFFFFFFFFFFFFFFFFFD
:10031000FFFFFFFFFFFFFFFFFFFFFFFFFFFFFFFFED
:10032000FFFFFFFFFFFFFFFFFFFFFFFFFFFFFFFFDD
:10033000FFFFFFFFFFFFFFFFFFFFFFFFFFFFFFFFCD
:10034000FFFFFFFFFFFFFFFFFFFFFFFFFFFFFFFFBD
:10035000FFFFFFFFFFFFFFFFFFFFFFFFFFFFFFFFAD
:10036000FFFFFFFFFFFFFFFFFFFFFFFFFFFFFFFF9D
:10037000FFFFFFFFFFFFFFFFFFFFFFFFFFFFFFFF8D
:10038000FFFFFFFFFFFFFFFFFFFFFFFFFFFFFFFF7D
:10039000FFFFFFFFFFFFFFFFFFFFFFFFFFFFFFFF6D
:1003A000FFFFFFFFFFFFFFFFFFFFFFFFFFFFFFFF5D
:1003B000FFFFFFFFFFFFFFFFFFFFFFFFFFFFFFFF4D
:1003C000FFFFFFFFFFFFFFFFFFFFFFFFFFFFFFFF3D
:1003D000FFFFFFFFFFFFFFFFFFFFFFFFFFFFFFFF2D
:1003E000FFFFFFFFFFFFFFFFFFFFFFFFFFFFFFFF1D
:1003F000FFFFFFFFFFFFFFFFFFFFFFFFFFFFFFFF0D
:10040000FFFFFFFFFFFFFFFFFEFFFFFFFEFFFF40BD
:10041000FEE7FEE7F0B50C4C0C4E23780C4D43F094
:10042000020706EBC70283F0010350602A782370AD
:10043000002A14BFC820882082F0010240EA01414E
:100440002A7046F83710F0BD48F4FF1F00E0FF1F88
:100450009FF4FF1F2DE9F743924D2B78DBB213F089
:10046000040F1CBF04222A7003F00802284602F081
:10047000FF01002A00F093818B4B1C78E4B2230922
:1004800040F08A81894EA40806EBC402506856F8F1
:100490003420C2F38302092A00F056810D2A03D0CA
:1004A000012A40F0768119E1814F416879608149E4
:1004B000026846F8341080493A60012008707F4E87
:1004C0007F49336092B2B2F5A06F0B8067D024D819
:1004D00040F221139A4200F08680B2F5917F0CD24F
:1004E000822A3FD0B2F5817F4BD0802A40F0A58090
:1004F000744C002323706370A2E040F2A1339A424F
:1005000000F0818040F221439A4200F0838040F263
:1005100002339A4240F0918043E040F281618A4286
:100520000BD8B2F5D06F4AD240F2A1539A4276D09E
:1005300040F221639A427AD07FE0B2F5106F0ED07C
:1005400007D8B2F5086F78D15F4B5E4C1B782370EB
:100550006BE0A2F5FD42403A012A40D96DE0B9783E
:10056000594A1BE0BA88594B0AB10F2210E1554C89
:100570000022227062701B78980761D501232370D6
:100580005EE0BA88510658D1494B5B88002B54D1A4
:1005900091004E4A0A44117821F0020111701C4664
:1005A00055E0BA88530648D1414B5B88002B44D1B3
:1005B0009100464A0A44117841F00201EEE77A8838
:1005C000434B5C68002C38D019888A4205D1120A46
:1005D000032A0CBF23781B8939E00C33F1E7BB8871
:1005E000042B2AD12EE0BB883BBBF98849B9788817
:1005F00000910A460B4600F09DFA10B9334B0F22CA
:100600001A700023CBE7BB88BBB92E4800F032FB41
:10061000D8B912E0BB8883B900F060FB0BE0BB885F
:100620005BB900F081FA274C207001230FE0BB88F2
:100630001BB900F06BFB0028E3D10F22234BA7E08E
:10064000022304E02823234C01E01E4C0623FF88EC
:100650009F4228BF1F46402FB84628BF4FF0400892
:1006600020464146FFF7D6FEB7EB0807444405D1C4
:10067000B8F1400F40F08D80B84604E0402FB846F6
:1006800028BF4FF0400820464146FFF7C3FEB7EBB6
:100690000807444402D1B8F1400F7AD10E4B3460C0
:1006A0001F8076E0802007409020074000E0FF1F79
:1006B0008CF4FF1F800040009FF4FF1F00F4FF1F19
:1006C00004F4FF1F96F4FF1F9EF4FF1FC020074095
:1006D00014EBFF1FC0EBFF1F94F4FF1FDFF834E1A2
:1006E000BEF8002040F221139A4229D1BEF804201E
:1006F000474B22B11988BEF8062091421DD8BEF89A
:1007000006101A88424F8B1A402B28BF4023984668
:10071000BEF8023000901846434600F00BFA60B174
:100720003B883C4A4344D2889BB29A423B8007D8DC
:1007300039480021FFF76EFE02E0384B0F221A7095
:10074000374B46F8343024E0DFF8F880D8F80070F2
:10075000AFB1DFF8F490B9F80040402C264628BF2E
:10076000402638463146FFF755FEA01B80B2A9F857
:10077000000008B9402E00D1B819C8F80000254B78
:100780001A88B2F5A06F04D100225A709A78254BCE
:100790001A70254B01221A7008232B705CE6DC07C7
:1007A0001DD5214C1E4A214D02232370204B197068
:1007B000204B1A609A60204ADA605D601961996185
:1007C000164B0D221A701D4AFF231370037011740B
:1007D00013711B4B9F221A700123237014E019061A
:1007E00041BF0E4A0D211170802248BF2A709A071E
:1007F00041BF12490A78D2B20A7044BF02222A705D
:10080000DB0644BF10232B7003B0BDE8F08300BFAC
:1008100004F4FF1F8CF4FF1F96F4FF1FC020074055
:1008200080004000982007409420074008F4FF1FF4
:1008300048F4FF1F00E0FF1F4CF4FF1F8820074013
:100840008420074000F4FF1F94F4FF1F174A136829
:1008500043F480231360164B80221A701978144ACF
:100860000906FBD4134B1449C3F307200870C3F3E4
:1008700007401B0E08750B76FF2301F81C3C01F89E
:10088000143C01F88C3C137843F0400313700021B2
:10089000012302F8783C02F80C1C02F8883C074B54
:1008A00008221A60064B10221A70704734800440E8
:1008B0000C21074000E0FF1F9C20074004E100E0FE
:1008C00008210740F0B52F4A137813F0300F26D0D7
:1008D00072B62D4B2D4F1B7803F0FF002BB93B78E0
:1008E0002B4B4021197062B619E062B6294B2A4C95
:1008F00019782578C9B2EDB21C464B1CDBB2402BEF
:1009000028BF0023AB423E7818BF2449F6B21CBF73
:10091000CE541946431E13F0FF00EED12170204B38
:100920001978C9B20D0620D513781C061DD51D4BAC
:100930001D481D780378EDB2DBB2AB420ED0013317
:10094000DBB2402B1478194C104E28BF0023E45C16
:10095000E4B23470164C2478072CEED90370137867
:10096000180642BF0E4B7C201870490609D5137833
:100970005B0641BF0F4B00221A70094B44BF3C225B
:100980001A70F0BD04A0064016A0064007A006405D
:1009900011A0064022F5FF1FA1F4FF1FE2F4FF1F84
:1009A00003A0064024F5FF1F23F5FF1FA2F4FF1F3D
:1009B00014A00640A0F4FF1F72B6044B4AF2026274
:1009C0001A804BF280421A8062B670470C200540B4
:1009D00038B5244B40F207121A60234A136823F0FB
:1009E00008031360214B1B681B070BD5204C636861
:1009F000A3F58053B3F5F83F04D21E4D1E4B2A6871
:100A00009A421FD100F08EF8FFF720FF00F08CF81B
:100A1000072806D072B600F0F3F862B6FFF7CCFFF5
:100A2000F4E7144B00221A600B24144DFFF7C4FFA7
:100A3000013DFBD1013CF8D1FFF7BEFF72B6104B70
:100A40001C70FEE772B60F4B1C60FFF7B5FF00206D
:100A50002860226861684FF0FF339E46954608473C
:100A600038BD00BF0C90044014F00F4010F00F4050
:100A700000100000FC1F002046436274A0860100A5
:100A80000821074008ED00E00E4B06221A70C0F363
:100A9000074203F8012CC0F30722C0B203F8022C6E
:100AA00003F8030CCA781A718A78DA704A789A7057
:100AB0000A785A70702203F8072C802203F8072C5A
:100AC000704700BF07000240030610B522D500F0B2
:100AD000400303F0FF043BB10F4B0A221A700F4B87
:100AE0000E221A70002213E010F0300208D00A4BD8
:100AF0000A221A70094B08221A70094B1C7009E06F
:100B000010F0010007D0044B0A201870034B197035
:100B1000034B1A70012010BD18ECFF1F31F9FF1FA5
:100B200030F9FF1F70470000014B1878704700BF75
:100B300018ECFF1FF0B5D418B4F5806F059D01D8EF
:100B40008C4206D9264B0A221A70264B08221A70AC
:100B500022E0254E2B4432449D4204D015F8016B0F
:100B600002F8016FF8E78C4238D11D4B1D491A7805
:100B7000022A1E4605D0052A03D00A221A700F2326
:100B800009E01A4F3B781B0602D5194B1D782DB191
:100B90000A2333700E230B700020F0BD1CB906230E
:100BA00033700C701AE001221A708302114803F5A9
:100BB00080530360104809240470C3F307441B0AE0
:100BC000DBB200F8014C00F8023C0C4B1D707023A6
:100BD0003B7080233B70032333700D700120F0BD08
:100BE00018ECFF1F31F9FF1F2BF5FF1F000002401B
:100BF00030F9FF1F28F5FF1F0700024004000240E4
:100C000070B5174B174D18782B78012BC0B202D056
:100C1000022B0FD070BD0421FFF756FFF0B902235D
:100C20002B70114B11491860114BBDE870401868CA
:100C3000FFF72ABF0721FFF747FF78B90A4E34684C
:100C4000B4F5806F09D20A4B084918682144204442
:100C50000434FFF719FF346070BD287070BD00BF09
:100C60000000024030F9FF1F2CF9FF1F2CF5FF1F79
:100C700028F5FF1F70B5154C154D2378032B06463C
:100C800015D3042B07D9062B11D1072323704FF45A
:100C90007A732B600BE0FFF7B3FF23780A2B06D0A3
:100CA0000C4B1B780BB9052300E0042323700A4B7F
:100CB0001B7833702B6873701A0A1B0CF37023783F
:100CC00033710023B2707371012070BD18ECFF1FE7
:100CD0001CECFF1F30F9FF1F31F9FF1F094B1A7879
:100CE0000A2A08BF0221084A0BBF19700A210023F3
:100CF000197013BF0F2301201370137018BF002049
:100D0000704700BF18ECFF1F31F9FF1F034B022291
:100D10001A70034B00221A700120704718ECFF1F55
:100D200031F9FF1F0001000068EBFF1F12000000F7
:100D30000002000092EBFF1F1B00000000030000F8
:100D400014ECFF1F00000000010300007AEBFF1FFE
:100D50000000000002030000E8EBFF1F000000009D
:100D6000EE030000AEEBFF1F0000000000000000DB
:100D7000000000000000000012010002000000401E
:100D800009128988000101020001180342006C0069
:100D900069006E006B0069006E006C00610062000B
:100DA000730009021B0001010280320904000000E7
:100DB000FE01020209210D102700040101001203A7
:100DC0004D005300460054003100300030007E00DA
:100DD00028000000000104000100000000000000E5
:100DE000000157494E55534200000000000000002A
:100DF00000000000000000002C0350004F005600CF
:100E0000500065006E00640061006E0074002000F8
:100E100042006F006F0074006C006F00610064009E
:100E200065007200040309040200000001000000D4
:00000001FF
