:10000000FC1F0020F900000003E2FF1F03E2FF1FB6
:1000100003E2FF1F03E2FF1F03E2FF1F01E2FF1FD6
:1000200001E2FF1F01E2FF1F01E2FF1F03E2FF1FCA
:1000300003E2FF1F01E2FF1F03E2FF1F03E2FF1FB6
:1000400003E2FF1F03E2FF1F03E2FF1F03E2FF1FA4
:1000500003E2FF1F03E2FF1F03E2FF1F03E2FF1F94
:1000600003E2FF1F03E2FF1F03E2FF1F03E2FF1F84
:1000700003E2FF1F03E2FF1F03E2FF1F03E2FF1F74
:10008000B5E6FF1F03E2FF1F03E2FF1F03E2FF1FAE
:1000900003E2FF1F03E2FF1F03E2FF1F03E2FF1F54
:1000A00003E2FF1F03E2FF1F03E2FF1F03E2FF1F44
:1000B00003E2FF1F03E2FF1F03E2FF1F03E2FF1F34
:1000C00003E2FF1F03E2FF1F03E2FF1F45E2FF1FE2
:1000D00003E2FF1F03E2FF1F03E2FF1F03E2FF1F14
:1000E00003E2FF1F03E2FF1F03E2FF1F03E2FF1F04
:1000F00003E2FF1F03E2FF1F3D4B4CF220521A8028
:100100004DF628121A8000BF00BFD32223F80E2C10
:1001100000221A81072223F80A2C4FF4A64223F862
:10012000082CA3F51F43D63B324A1A60324A5A6064
:1001300003F5533303F2CA331A78110742BF1A7812
:1001400042F008021A702D4B0A221A70A3F6FF73B0
:1001500024221A70A02203F8012C294B1A78920746
:10016000FBD51A78D006FCD41A7802F00C02082AC3
:10017000FAD1244B03221A7040225A70224A234B90
:1001800023498B4204D252F8041F43F8041BF7E7BB
:10019000204A214B9A424FF0000302D242F8043B1E
:1001A000F7E71E491E4A51F8231042F82310013385
:1001B000402BF6D11B4B1A60114B1A789106FBD5D8
:1001C0001A785206FCD5184B184A1A60184B202290
:1001D0001A700B4B1B7803F00C030C2BF9D1154B49
:1001E00002221A60443B144A1A6062B600F028B832
:1001F0000E200540823F04000100002B0050064005
:1002000006400640044006400C04000000E2FF1FC8
:1002100024ECFF1F00F0FF1F34F9FF1F0000000057
:1002200000F0FF1F08ED00E04480044000000311CF
:100230000040064048800440C0100500FFFFFFFF5B
:1002400001B40248844601BC604700BFC1E7FF1FFC
:10025000FFFFFFFFFFFFFFFFFFFFFFFFFFFFFFFFAE
:10026000FFFFFFFFFFFFFFFFFFFFFFFFFFFFFFFF9E
:10027000FFFFFFFFFFFFFFFFFFFFFFFFFFFFFFFF8E
:10028000FFFFFFFFFFFFFFFFFFFFFFFFFFFFFFFF7E
:10029000FFFFFFFFFFFFFFFFFFFFFFFFFFFFFFFF6E
:1002A000FFFFFFFFFFFFFFFFFFFFFFFFFFFFFFFF5E
:1002B000FFFFFFFFFFFFFFFFFFFFFFFFFFFFFFFF4E
:1002C000FFFFFFFFFFFFFFFFFFFFFFFFFFFFFFFF3E
:1002D000FFFFFFFFFFFFFFFFFFFFFFFFFFFFFFFF2E
:1002E000FFFFFFFFFFFFFFFFFFFFFFFFFFFFFFFF1E
:1002F000FFFFFFFFFFFFFFFFFFFFFFFFFFFFFFFF0E
:10030000FFFFFFFFFFFFFFFFFFFFFFFFFFFFFFFFFD
:10031000FFFFFFFFFFFFFFFFFFFFFFFFFFFFFFFFED
:10032000FFFFFFFFFFFFFFFFFFFFFFFFFFFFFFFFDD
:10033000FFFFFFFFFFFFFFFFFFFFFFFFFFFFFFFFCD
:10034000FFFFFFFFFFFFFFFFFFFFFFFFFFFFFFFFBD
:10035000FFFFFFFFFFFFFFFFFFFFFFFFFFFFFFFFAD
:10036000FFFFFFFFFFFFFFFFFFFFFFFFFFFFFFFF9D
:10037000FFFFFFFFFFFFFFFFFFFFFFFFFFFFFFFF8D
:10038000FFFFFFFFFFFFFFFFFFFFFFFFFFFFFFFF7D
:10039000FFFFFFFFFFFFFFFFFFFFFFFFFFFFFFFF6D
:1003A000FFFFFFFFFFFFFFFFFFFFFFFFFFFFFFFF5D
:1003B000FFFFFFFFFFFFFFFFFFFFFFFFFFFFFFFF4D
:1003C000FFFFFFFFFFFFFFFFFFFFFFFFFFFFFFFF3D
:1003D000FFFFFFFFFFFFFFFFFFFFFFFFFFFFFFFF2D
:1003E000FFFFFFFFFFFFFFFFFFFFFFFFFFFFFFFF1D
:1003F000FFFFFFFFFFFFFFFFFFFFFFFFFFFFFFFF0D
:10040000FFFFFFFFFFFFFFFFFCFFFFFFFEFFFF40BF
:10041000FEE7FEE7F0B50C4C0C4E23780C4D43F094
:10042000020706EBC70283F0010350602A782370AD
:10043000002A14BFC820882082F0010240EA01414E
:100440002A7046F83710F0BD48F4FF1F00E0FF1F88
:100450009FF4FF1F2DE9F743924D2B78DBB213F089
:10046000040F1CBF04222A7003F00802284602F081
:10047000FF01002A00F093818B4B1C78E4B2230922
:1004800040F08A81894EA40806EBC402506856F8F1
:100490003420C2F38302092A00F056810D2A03D0CA
:1004A000012A40F0768119E1814F416879608149E4
:1004B000026846F8341080493A60012008707F4E87
:1004C0007F49336092B2B2F5A06F0B8067D024D819
:1004D00040F221139A4200F08680B2F5917F0CD24F
:1004E000822A3FD0B2F5817F4BD0802A40F0A58090
:1004F000744C002323706370A2E040F2A1339A424F
:1005000000F0818040F221439A4200F0838040F263
:1005100002339A4240F0918043E040F281618A4286
:100520000BD8B2F5D06F4AD240F2A1539A4276D09E
:1005300040F221639A427AD07FE0B2F5106F0ED07C
:1005400007D8B2F5086F78D15F4B5E4C1B782370EB
:100550006BE0A2F5FD42403A012A40D96DE0B9783E
:10056000594A1BE0BA88594B0AB10F2210E1554C89
:100570000022227062701B78980761D501232370D6
:100580005EE0BA88510658D1494B5B88002B54D1A4
:1005900091004E4A0A44117821F0020111701C4664
:1005A00055E0BA88530648D1414B5B88002B44D1B3
:1005B0009100464A0A44117841F00201EEE77A8838
:1005C000434B5C68002C38D019888A4205D1120A46
:1005D000032A0CBF23781B8939E00C33F1E7BB8871
:1005E000042B2AD12EE0BB883BBBF98849B9788817
:1005F00000910A460B4600F09DFA10B9334B0F22CA
:100600001A700023CBE7BB88BBB92E4800F032FB41
:10061000D8B912E0BB8883B900F060FB0BE0BB885F
:100620005BB900F081FA274C207001230FE0BB88F2
:100630001BB900F06BFB0028E3D10F22234BA7E08E
:10064000022304E02823234C01E01E4C0623FF88EC
:100650009F4228BF1F46402FB84628BF4FF0400892
:1006600020464146FFF7D6FEB7EB0807444405D1C4
:10067000B8F1400F40F08D80B84604E0402FB846F6
:1006800028BF4FF0400820464146FFF7C3FEB7EBB6
:100690000807444402D1B8F1400F7AD10E4B3460C0
:1006A0001F8076E0802007409020074000E0FF1F79
:1006B0008CF4FF1F800040009FF4FF1F00F4FF1F19
:1006C00004F4FF1F96F4FF1F9EF4FF1FC020074095
:1006D00014EBFF1FC0EBFF1F94F4FF1FDFF834E1A2
:1006E000BEF8002040F221139A4229D1BEF804201E
:1006F000474B22B11988BEF8062091421DD8BEF89A
:1007000006101A88424F8B1A402B28BF4023984668
:10071000BEF8023000901846434600F00BFA60B174
:100720003B883C4A4344D2889BB29A423B8007D8DC
:1007300039480021FFF76EFE02E0384B0F221A7095
:10074000374B46F8343024E0DFF8F880D8F80070F2
:10075000AFB1DFF8F490B9F80040402C264628BF2E
:10076000402638463146FFF755FEA01B80B2A9F857
:10077000000008B9402E00D1B819C8F80000254B78
:100780001A88B2F5A06F04D100225A709A78254BCE
:100790001A70254B01221A7008232B705CE6DC07C7
:1007A0001DD5214C1E4A214D02232370204B197068
:1007B000204B1A609A60204ADA605D601961996185
:1007C000164B0D221A701D4AFF231370037011740B
:1007D00013711B4B9F221A700123237014E019061A
:1007E00041BF0E4A0D211170802248BF2A709A071E
:1007F00041BF12490A78D2B20A7044BF02222A705D
:10080000DB0644BF10232B7003B0BDE8F08300BFAC
:1008100004F4FF1F8CF4FF1F96F4FF1FC020074055
:1008200080004000982007409420074008F4FF1FF4
:1008300048F4FF1F00E0FF1F4CF4FF1F8820074013
:100840008420074000F4FF1F94F4FF1F174A136829
:1008500043F480231360164B80221A701978144ACF
:100860000906FBD4134B1449C3F307200870C3F3E4
:1008700007401B0E08750B76FF2301F81C3C01F89E
:10088000143C01F88C3C137843F0400313700021B2
:10089000012302F8783C02F80C1C02F8883C074B54
:1008A00008221A60064B10221A70704734800440E8
:1008B0000C21074000E0FF1F9C20074004E100E0FE
:1008C00008210740F0B52F4A137813F0300F26D0D7
:1008D00072B62D4B2D4F1B7803F0FF002BB93B78E0
:1008E0002B4B4021197062B619E062B6294B2A4C95
:1008F00019782578C9B2EDB21C464B1CDBB2402BEF
:1009000028BF0023AB423E7818BF2449F6B21CBF73
:10091000CE541946431E13F0FF00EED12170204B38
:100920001978C9B20D0620D513781C061DD51D4BAC
:100930001D481D780378EDB2DBB2AB420ED0013317
:10094000DBB2402B1478194C104E28BF0023E45C16
:10095000E4B23470164C2478072CEED90370137867
:10096000180642BF0E4B7C201870490609D5137833
:100970005B0641BF0F4B00221A70094B44BF3C225B
:100980001A70F0BD04A0064016A0064007A006405D
:1009900011A0064022F5FF1FA1F4FF1FE2F4FF1F84
:1009A00003A0064024F5FF1F23F5FF1FA2F4FF1F3D
:1009B00014A00640A0F4FF1F72B6044B4AF2026274
:1009C0001A804BF280421A8062B670470C200540B4
:1009D00038B5244B40F207121A60234A136823F0FB
:1009E00008031360214B1B681B070BD5204C636861
:1009F000A3F58053B3F5F83F04D21E4D1E4B2A6871
:100A00009A421FD100F08EF8FFF720FF00F08CF81B
:100A1000072806D072B600F0F3F862B6FFF7CCFFF5
:100A2000F4E7144B00221A600B24144DFFF7C4FFA7
:100A3000013DFBD1013CF8D1FFF7BEFF72B6104B70
:100A40001C70FEE772B60F4B1C60FFF7B5FF00206D
:100A50002860226861684FF0FF339E46954608473C
:100A600038BD00BF0C90044014F00F4010F00F4050
:100A700000100000FC1F002046436274A0860100A5
:100A80000821074008ED00E00E4B06221A70C0F363
:100A9000074203F8012CC0F30722C0B203F8022C6E
:100AA00003F8030CCA781A718A78DA704A789A7057
:100AB0000A785A70702203F8072C802203F8072C5A
:100AC000704700BF07000240030610B522D500F0B2
:100AD000400303F0FF043BB10F4B0A221A700F4B87
:100AE0000E221A70002213E010F0300208D00A4BD8
:100AF0000A221A70094B08221A70094B1C7009E06F
:100B000010F0010007D0044B0A201870034B197035
:100B1000034B1A70012010BD1EECFF1F31F9FF1F9F
:100B200030F9FF1F70470000014B1878704700BF75
:100B30001EECFF1FF0B5D418B4F5806F059D01D8E9
:100B40008C4206D9264B0A221A70264B08221A70AC
:100B500022E0254E2B4432449D4204D015F8016B0F
:100B600002F8016FF8E78C4238D11D4B1D491A7805
:100B7000022A1E4605D0052A03D00A221A700F2326
:100B800009E01A4F3B781B0602D5194B1D782DB191
:100B90000A2333700E230B700020F0BD1CB906230E
:100BA00033700C701AE001221A708302114803F5A9
:100BB00080530360104809240470C3F307441B0AE0
:100BC000DBB200F8014C00F8023C0C4B1D707023A6
:100BD0003B7080233B70032333700D700120F0BD08
:100BE0001EECFF1F31F9FF1F2BF5FF1F0000024015
:100BF00030F9FF1F28F5FF1F0700024004000240E4
:100C000070B5174B174D18782B78012BC0B202D056
:100C1000022B0FD070BD0421FFF756FFF0B902235D
:100C20002B70114B11491860114BBDE870401868CA
:100C3000FFF72ABF0721FFF747FF78B90A4E34684C
:100C4000B4F5806F09D20A4B084918682144204442
:100C50000434FFF719FF346070BD287070BD00BF09
:100C60000000024030F9FF1F2CF9FF1F2CF5FF1F79
:100C700028F5FF1F70B5154C154D2378032B06463C
:100C800015D3042B07D9062B11D1072323704FF45A
:100C90007A732B600BE0FFF7B3FF23780A2B06D0A3
:100CA0000C4B1B780BB9052300E0042323700A4B7F
:100CB0001B7833702B6873701A0A1B0CF37023783F
:100CC00033710023B2707371012070BD1EECFF1FE1
:100CD00020ECFF1F30F9FF1F31F9FF1F094B1A7875
:100CE0000A2A08BF0221084A0BBF19700A210023F3
:100CF000197013BF0F2301201370137018BF002049
:100D0000704700BF1EECFF1F31F9FF1F034B02228B
:100D10001A70034B00221A70012070471EECFF1F4F
:100D200031F9FF1F0001000068EBFF1F12000000F7
:100D30000002000092EBFF1F1B00000000030000F8
:100D40001AECFF1F00000000010300007AEBFF1FF8
:100D50000000000002030000E8EBFF1F000000009D
:100D6000EE030000AEEBFF1F0000000000000000DB
:100D7000000000000000000012010002000000401E
:100D800009128988100101020001180342006C0059
:100D900069006E006B0069006E006C00610062000B
:100DA000730009021B0001010280320904000000E7
:100DB000FE01020209210D102700040101001203A7
:100DC0004D005300460054003100300030007E00DA
:100DD00028000000000104000100000000000000E5
:100DE000000157494E55534200000000000000002A
:100DF0000000000000000000320342006C006900A7
:100E00006E006B007900500065006E0064006100A8
:100E10006E007400200042006F006F0074006C00D0
:100E20006F006100640065007200040309040200A1
:040E300001000000BD
:10100000FC1F00209911000055110000551100002F
:101010005511000055110000551100006511000028
:1010200065110000651100006511000055110000F8
:101030005511000065110000551100005711000006
:1010400055110000551100009932000055110000A3
:1010500055110000551100005511000055110000F8
:1010600055110000551100005511000055110000E8
:1010700055110000551100005511000055110000D8
:1010800055110000551100005511000055110000C8
:1010900055110000551100005511000055110000B8
:1010A00055110000551100005511000055110000A8
:1010B0005511000055110000551100005511000098
:1010C0005511000055110000551100002D1D0000A4
:1010D0005511000055110000551100005511000078
:1010E0000113000055130000E1130000A1140000DB
:1010F000291500005511000010B5054C237833B9AF
:10110000044B13B10448AFF300800123237010BDDA
:1011100078EDFF1F000000001C8F0000084B10B589
:101120001BB108480849AFF300800848036803B9B9
:1011300010BD074B002BFBD0BDE81040184700BF87
:10114000000000001C8F00007CEDFF1F78EDFF1FEA
:1011500000000000FEE7024A136801331360704785
:101160001CEEFF1F08B50B4C2368580301D500F097
:10117000DDFD2368590501D5FFF7ECFF23681A054B
:1011800001D5FFF7E7FF2368DB04ECD5FFF7E2FFAB
:10119000E9E700BF3480044010B5134A134B1449EB
:1011A0008B4204D252F8041F43F8041BF7E7114B9B
:1011B000114A934203D2002243F8042BF8E70F4B65
:1011C0004BF67F321A60072243F8042C62B600F017
:1011D000EDFB0B4C0B4B9C4203D054F8043B98475F
:1011E000F8E701F00BFBFEE7188F000000E4FF1F9B
:1011F00078EDFF1F78EDFF1F54FAFF1F14E000E0A9
:10120000088F0000188F0000024A1368184410600D
:101210001846704700E4FF1FEFF313839BB9EFF309
:10122000108098B9EFF3058323B10F2B04D9084A36
:10123000985C01E04FF48070EFF311833BB198426A
:1012400028BF184670474FF0FF3070471846704768
:10125000F0E300E0084B4FF480721A604FF4007224
:101260001A604FF480621A604FF400621A604FF403
:1012700080521A60704700BF04E100E0212830B5B9
:1012800021D8042A1FD8DFE802F0070905030B0064
:10129000092306E00A2304E0082302E00C2300E00F
:1012A0000B23094A02EBC002546872B6226822F48A
:1012B0007022226042F08075044A45EA034342F8F6
:1012C0002010236062B630BD0C47000094EDFF1F74
:1012D000094B03EBC0035A6872B6136823F0877397
:1012E00023F4803343F080731360044B002243F8EF
:1012F000202062B6704700BF0C47000094EDFF1F2E
:10130000124B10B51C681C60E00404D5104BDA6861
:101310000AB1DB689847A10404D50D4B1A690AB1DC
:101320001B699847A20604D5094B1A6E0AB11B6EB9
:101330009847E30608D5064BD3F8842022B1D3F8AA
:101340008430BDE81040184710BD00BFA090044095
:1013500094EDFF1F204B10B51C681C60E00304D502
:101360001E4B1A680AB11B689847A10304D51B4B92
:101370005A680AB15B689847E20704D5174B1A6CA4
:101380000AB11B6C9847A30704D5144B5A6C0AB1D9
:101390005B6C9847200704D5104B9A6C0AB19B6C84
:1013A0009847610704D50D4BDA6C0AB1DB6C98479E
:1013B000220304D5094B5A6E0AB15B6E984763034A
:1013C00008D5064BD3F8802022B1D3F88030BDE891
:1013D0001040184710BD00BFA0A0044094EDFF1FAF
:1013E0002D4B10B51C681C60200704D52B4B5A6A86
:1013F0000AB15B6A9847E10604D5284B9A6A0AB19C
:101400009B6A9847620604D5244BDA6A0AB1DB6A04
:101410009847230604D5214B1A6B0AB11B6B9847DA
:10142000A00604D51D4B5A6B0AB15B6B9847E107C8
:1014300004D51A4BDA6B0AB1DB6B9847A20704D5C7
:10144000164B9A6D0AB19B6D9847630704D5134BF1
:10145000DA6D0AB1DB6D9847A00504D50F4BDA6E43
:101460000AB1DB6E9847E10504D50C4B1A6F0AB13F
:101470001B6F9847620504D5084B5A6F0AB15B6F22
:101480009847230506D5054B9A6F1AB19B6FBDE8A7
:101490001040184710BD00BFA0B0044094EDFF1FDE
:1014A0001F4B10B51C681C60E00704D51D4B9A68E3
:1014B0000AB19B689847210604D51A4B5A690AB1AC
:1014C0005B699847E20604D5164B9A690AB19B6995
:1014D0009847630704D5134BDA690AB1DB6998476B
:1014E000200704D50F4B1A6A0AB11B6A9847A10757
:1014F00004D50C4B9A6B0AB19B6B9847A20604D596
:10150000084B1A6D0AB11B6D9847630606D5054B4B
:101510005A6D1AB15B6DBDE81040184710BD00BF91
:10152000A0C0044094EDFF1F0A4B10B51C681C605E
:10153000A20704D5084B9A6E0AB19B6E9847E30741
:1015400006D5054BDA6F1AB1DB6FBDE810401847BE
:1015500010BD00BFA0D0044094EDFF1F014B1868E0
:10156000704700BF00D00340044B054900221A60B9
:101570000A60044A106010221A60704714D00340B9
:1015800004D0034000D0034000280EDB03024FF4D8
:101590008072B3F5004F06D3013A012AA3EB000194
:1015A00001D00B46F5E71B0A10E0404203024FF45E
:1015B0008072B3F5014F06D3013A012AA3EB000173
:1015C00001D00B46F5E71B0AC3F58073013A43EAE5
:1015D0000223014A136070470CD0034018B1102851
:1015E00028BF102000E00120014B1870704700BF99
:1015F00004E4FF1F10B500234FF437721A419142E3
:1016000002D80133072BF7D1154A1A4102EB5102D8
:10161000B2FBF1F14FF6FF720139914228BF11463A
:10162000C21E012A06D80F4A0F4C0020106020600D
:101630000E480FE0421F012A06D9A0F10902012A33
:1016400002D91438032809D8094A0A4C002010602E
:1016500020600948016043F00803136010BD00BF1B
:10166000006CDC02009003400490034008900340AB
:10167000008003400480034008800340212810B507
:1016800018D80D4B53F8302092F880423CB101231A
:1016900011B182F8803010BD82F8003110BD03EB2B
:1016A000C0035B681A6811B142F0030201E022F046
:1016B00002021A6010BD00BF0C47000021289FBF26
:1016C000044B53F8303093F80002C0B288BF0020BA
:1016D000704700BF0C470000212816D80B4A02EBC8
:1016E000C00301295B6852F8302004D182F88012CF
:1016F0004FF4A27208E0002082F8800211B94FF482
:10170000807201E040F203121A6070470C4700003B
:1017100070B53A4B1E7801250029044605FA06F3F8
:1017200001DC002102E0994205D32946FFF7A6FF1C
:10173000204629465EE0C21ED3B2012B94BF304B37
:10174000304B1B6803FB0113F340142A49D8DFE830
:1017500002F00B11171D48482329484848484848BB
:101760004848482F353B4100274A13604FF45172D7
:10177000264B34E0264A13604FF45172254B2EE07D
:10178000254A136040F24442244B28E0244A136067
:1017900040F24442234B22E0234A136040F2444289
:1017A000224B1CE0224A136040F24442214B16E0D7
:1017B000214A136040F24442204B10E0204A13605B
:1017C00040F244421F4B0AE01F4A136040F2444279
:1017D0001E4B04E01E4A13601E4B40F244421A6046
:1017E00070BD7F292046D4BF00210121FFF746FFAD
:1017F00020460121BDE87040FFF76EBF04E4FF1FE3
:10180000089003400880034010900340309004404B
:101810001890034034900440488003401CC00440AA
:101820003080034010C00440208003400CB00440CE
:101830002880034010B004403880034014C00440A6
:101840004080034018C004401080034004B00440AE
:101850001880034008B004402DE9F04180460E4650
:1018600017460825012404EA07014046FFF706FF52
:1018700030460121FFF702FF30460021FFF7FEFE50
:101880006400013DE4B2EED1BDE8F0812DE9F04104
:1018900080460E4617460824802505EA0701404683
:1018A000FFF7ECFE30460121FFF7E8FE304600214D
:1018B000FFF7E4FE013C4FEA5505EED1BDE8F081AB
:1018C00012B91A46FFF7C8BF1A46FFF7DFBF2DE966
:1018D000F04180460F4608260025012438460121A4
:1018E000FFF7CCFE4046FFF7E9FE00B1254338463E
:1018F0000021FFF7C3FE6400013EE4B2EED12846AA
:10190000BDE8F0812DE9F04180460F46082500240E
:10191000802638460121FFF7B1FE4046FFF7CEFE94
:1019200000B1344338460021FFF7A8FE013D4FEADD
:101930005606EED12046BDE8F0810AB9FFF7C7BFD1
:10194000FFF7E0BF72B60C4B0C4A0D491B68D2F88A
:101950008820096862B6490102D5322B88BF01325E
:10196000C3F53B4330207F33B3FBF0F34FF47A7081
:1019700000FB0230704700BF18E000E094EDFF1F4D
:1019800004ED00E038B50446FFF7DCFF054664B11E
:10199000FFF7D8FF401BB0F57A7F03D3013C04D09A
:1019A00005F57A7500F002FFF2E738BD10B5FFF7D4
:1019B00051FC124B124A134C00204BF6FF71186079
:1019C00059602823136093601361936113629362DB
:1019D000136393630922226004F580540434206069
:1019E0000948016009490B608B60094B04201A60AB
:1019F000FFF7C8FFBDE8104000F0C4BC04800340FE
:101A00000C80034000800340089003400C9003408A
:101A10000090034070B50646C1EBC10433782BB18A
:101A2000013CFBD1002070BD013CFBD03378002B82
:101A3000FAD0FFF787FF0546337813B1013CFBD19D
:101A4000F0E7FFF77FFF401B70BD70B50646C1EBA6
:101A5000C10433782BB9013CFBD1002070BD013C9F
:101A6000FBD03378002BFAD1FFF76CFF05463378B3
:101A700013B9013CFBD1F0E7FFF764FF401B70BDD9
:101A800021280BD8064B53F8300000F5007011B137
:101A90001146FFF7BFBF1146FFF7D7BF00207047C1
:101AA0000C470000164B84B01B680393154B1B6852
:101AB0000293154B1B680193144B1B680093144B46
:101AC00000221DF8021001324B401249102A01FB7E
:101AD00003F3F6D101220DEB02011A2011F8011CCB
:101AE0004B400C494B43B3FBF0F100FB11310A486A
:101AF000413120F812100132112AECD104B07047A4
:101B000054800440588004405C800440608004405D
:101B1000C59D1C819301000184E4FF1F70B50C4B2F
:101B20000C4D1A7842F0020605EBC60482F0010261
:101B3000606058781A70002814BFC824882480F088
:101B4000010044EA0141587045F8361070BD00BFED
:101B500020EEFF1F00E0FF1F0138032807D8054BC8
:101B600003EB80004068003018BF01207047002060
:101B7000704700BF20EEFF1F431E032B10B50ED889
:101B8000084A02EB8302506850B14168516006492F
:101B9000048831F81320121B21F8132010BD0020F7
:101BA00010BD00BF20EEFF1F44FAFF1F431E032B92
:101BB00010B510D872B6094A02EB8302506840B1E2
:101BC000416851600649048831F81320121B21F83E
:101BD000132062B610BD002010BD00BF20EEFF1F15
:101BE00044FAFF1F013803280CD8074B03EB800091
:101BF000436972B600201BB11A885B681044FAE78B
:101C000062B670470020704720EEFF1F013803289E
:101C10000BD872B6064B03EB80004369002013B16A
:101C200001305B68FBE762B670470020704700BF79
:101C300020EEFF1F10B572B60123184A1A4412F89D
:101C4000012C12071ED59A00154951F832402CB9C3
:101C500001EB431308305860124B09E042F00102D7
:101C600051F8324074B901EBC203083058600E4B92
:101C700041F832300D4A92F82430013B82F824308A
:101C800062B610BD0133052BD7D162B6074B0022D7
:101C900083F82420BDE8104000F0DEBB1C480000A3
:101CA00000E0FF1F88004000C800400020EEFF1F3A
:101CB000431E032B10B533D81A4A400140F01000E0
:101CC000104472B6184AD41894F82540032C0BD847
:101CD000DFE804F015040207052411E008300224AF
:101CE0000EE0083004240BE09B00D01844690CB9C6
:101CF000416101E0C06A41601344D9620FE00324EE
:101D0000134410F0080F0A8883F8254001F10803F6
:101D1000436014BFC823882343EA0243036062B6CA
:101D200010BD00BF00E0FF1F20EEFF1F2DE9F74FA1
:101D3000B64E3478E4B214F0040F354610D0B44BEC
:101D400093F8443053B1B34A117801F0FF0329B13D
:101D5000013BDBB213700BB900F0CCFC04233370F1
:101D600004F0080303F0FF01002B00F0B482AA4B3B
:101D7000AA4F1A78D2B213094FEA920540F01A829C
:101D800007EBC503596857F83530C3F38303013BAC
:101D90000C2B00F20B82DFE813F0CC01CC0109021E
:101DA00009020902090209020902E2010902090203
:101DB00009020D000A68964C4B68A264E36492B273
:101DC000974B47F8353040F2A15000230121824261
:101DD00023653B61BB616170254600F063811DD8BE
:101DE000B2F5817F00F0EF8009D8802A00F0D4801E
:101DF000822A00F0D680212A40F065815CE140F221
:101E0000A130824200F03A81B2F5A06F00F05F810C
:101E100040F202339A4200F0E78054E1B2F5106FCD
:101E200020D00FD8B2F5D06FC0F04D8140F2816361
:101E30009A4240F20981B2F5086F40F0448194F86B
:101E4000443035E142F221218A4200F0128142F20F
:101E500021339A4200F03B8142F221039A4200F082
:101E6000658130E194F84A2084F84420984607EBD5
:101E700008031A6A120603D5586A083800F0ECFA0B
:101E800008F10808B8F1800FF1D1DFF8B4A14FF0E4
:101E90000009DFF8B08158F829004FEA890B30B10A
:101EA0004368019300F0D8FA019B1846F7E75D4BB1
:101EB00048F80B00A3F140084BF803005BF808005A
:101EC00030B14368019300F0C7FA019B1846F7E769
:101ED000554B48F80B004BF80300544B23F81900FE
:101EE0009AF80030023B032B08D8DFE803F0020425
:101EF0000204002300E001238AF8003009F10109FF
:101F0000B9F1040F0AF1010AC3D1002384F8243087
:101F10004FF00108464A474B4244434412F8012C13
:101F20009B0012F0080F1A704FEA880925D000F0C4
:101F300075FA38B107EB4813083058603E4B47F844
:101F4000393006E095F8243047F83900013385F838
:101F5000243000F063FA49F0010338B107EBC30203
:101F6000083050602E4A47F8332006E047F8330027
:101F700095F82430013385F8243049F0020200231B
:101F800047F8323008F1010849F00302B8F1050FB3
:101F900047F83230BED19BE084F83C3084F83D30C5
:101FA00098E0B4F84C20042A00F28D8084F83C308C
:101FB00084F83D309200214B9B5C9F0740F18A8062
:101FC00084F83C1086E0B4F84C2002F07F03042B28
:101FD00079D8B4F84A30002B75D19100174A0A44D9
:101FE000117821F0020147E0B4F84C2002F07F03A1
:101FF000042B68D8B4F84A30002B64D191000F4A02
:102000000A44117841F0020136E000BF8020074009
:1020100020EEFF1F15EFFF1F9020074000E0FF1F7D
:10202000C800400074EEFF1F4CEEFF1F44FAFF1F74
:102030001C48000030C8011088004000C020074044
:1020400045EEFF1F24EEFF1FB4F84A20B4F84C10F1
:10205000B14B5D68BDB31888904208D1588888425A
:1020600005D1120A032A0CBF2B781B8934E00C33EC
:10207000EFE794F84A10A94A117029E0B4F84C200F
:10208000032A20D194F8642084F83C3084F83E3050
:1020900084F83F3084F8413084F83D1084F84020C3
:1020A000062318E0B4F84C30032B0CD194F86430BC
:1020B00084F83C300B460EE0B4F84C20032A02D1E1
:1020C00084F8641004E0964B0F221A702EE000236F
:1020D0001D4601E002233C35B4F84E709F4228BFF4
:1020E0001F46402FB84628BF4FF0400828464146BB
:1020F000FFF714FDB7EB0807454404D1B8F1400FD2
:1021000014D1B84604E0402FB84628BF4FF040082D
:1021100028464146FFF702FDB7EB0807454402D1C8
:10212000B8F1400F02D12565A4F8667001227D4BFD
:102130003BE07D4BB3F8482042F221039A420AD19A
:1021400000237A4AC85C98540133072BF9D1002048
:102150000146FFF7E3FC764B47F8353026E0724D39
:10216000D5F85080B8F1000F13D0B5F86640402C78
:10217000274628BF402740463946FFF7CFFCE01BE3
:1021800080B2A5F8660008B9402F01D108EB07001E
:102190002865B5F84820644BB2F5A06F06D100223F
:1021A00083F8492093F84A20624B1A705D4B012254
:1021B0001A708DE007EBC508013BD8F8041002F057
:1021C0000802DCB2A1F1080002F0FF03002A44D0AB
:1021D00000F042F9544B03EB840E1819DEF814207A
:1021E00022B35168CEF8141002F10801C8F80410A7
:1021F00090F82510032910D8DFE801F00205080B3C
:102200002344032107E02344022104E02344052161
:1022100001E02344042183F8251018F0080F1288E8
:1022200014BFC823882343EA02434FE090F82520D7
:10223000032A09D8DFE802F04C4C020523440022AF
:1022400008E02344012205E018F0080F14BF032220
:102250000222234483F825203AE057F835204FEA3C
:10226000124E21F808ECBEF1000F29D02E4A21F8B9
:10227000063C41F8043CA30002EB030CDCF804101C
:1022800011B9CCF8040002E0DCF8541048601344A3
:10229000294A586532F81430DFF88C909E4422F8B1
:1022A00014E000F0BBF818B10830C8F8040007E0EB
:1022B00099F8243047F83500013389F8243007E0D5
:1022C0001E4A1B4B18F0080F08BF134647F835305D
:1022D000082333702CE5E00738D5134A114C174E0C
:1022E00010460223237000F8681B154BA8321E60AD
:1022F000DA6058609E6019619961094B0D221A706D
:10230000104AFF2313702B70117413710E4B9F2210
:102310001A70012323702EE02048000016EFFF1FE3
:10232000C02007409420074020EEFF1F4CFAFF1FFB
:10233000C80040009820074044FAFF1F8800400072
:1023400000E0FF1F8820074084200740210641BF8E
:102350000A4B0D221A70802348BF2B70A20741BF81
:10236000074A1378DBB2137044BF02232B70E306D5
:1023700044BF10232B7003B0BDE8F08FC02007408E
:102380008820074008B5FFF78DFB00221D4B002178
:10239000D15098180832882A4160F7D11A490A6842
:1023A00042F480220A60194A80211170107817497E
:1023B0000006FBD4164AC3F307201070C3F307408E
:1023C0001B0E10751376FF2302F81C3C02F8143C18
:1023D00002F88C3C0B7843F040030B700123002182
:1023E00002F8083C82F8641002F8183C094B70228D
:1023F0001A70A3F21F3308221A60074B10221A70BA
:1024000008BD00BF00E0FF1F348004400C210740DE
:102410009C20074023E400E00821074010B572B675
:102420000B480268B2FA82F10B2902DD62B6002085
:1024300010BD4FF00043CB4022EA0302026062B6B7
:10244000044C48234B43E0180022E250426010BD88
:1024500080E5FF1FA0E0FF1F0C4B4822C31AB3FB0F
:10246000F2F30B2B10D80A4A127822B1094A1278DB
:102470000AB1FFF7DFBB72B607494FF00042DA40FE
:102480000B6813430B6062B6704700BFA0E0FF1FEC
:1024900044EEFF1F64EEFF1F80E5FF1F10B5104CD8
:1024A00023686BB1206843885A1C03441C7A038854
:1024B0009A4212D3FFF7D0FF094B00221A600DE0B9
:1024C000084B1B7813B94FF0FF3010BD0320FFF706
:1024D0006DFB20600028E5D1F5E74280204610BD65
:1024E00008EFFF1F64EEFF1F10B50B4C236813B1FC
:1024F00022686AB902E0094B1B7813B94FF0FF302C
:1025000010BD0320FFF752FB20600028F0D1F5E753
:1025100053881344187A10BD08EFFF1F64EEFF1FA5
:10252000044B9888044B1A681AB1138852889B1A76
:102530001844704744FAFF1F08EFFF1F2DE9F041D0
:1025400080460E46002776B3184B1B785BB3184CB9
:10255000236825464BB90320FFF728FB286010B3FA
:10256000038813B9FFF778FFF5E7256869882C8899
:10257000641AB44228BF34460831404622462944F2
:1025800006F0BAFC6B88A0442744361B1C442B88F9
:10259000A4B2A3426C80D6D82846FFF75DFF044B57
:1025A00000221A60CFE73846BDE8F08164EEFF1FD5
:1025B00008EFFF1F10B5094B1B786BB1084C206862
:1025C00018B1FFF749FF002323600320FFF7EEFA5D
:1025D00010B1FFF741FFF8E710BD00BF64EEFF1F29
:1025E00008EFFF1FF8B5294C012307460D4623715C
:1025F000002D47D0A3680BBB47F20956244B1B782C
:1026000003F0FF020BB9227112E00420FFF7FEFA7B
:10261000072807D801232371FFF700FFA06068B9DE
:102620001A4B1871013E01D0237B23B10123237380
:102630004FF0FF30F8BD00F0B9F8DFE7A1684A8835
:1026400000232373C2F14003AB4228BF2B46D018AE
:102650000A444880ED1A0732FE18B74204D017F832
:10266000013B02F8013FF8E74B883F2B06D9402396
:102670000B800420FFF71CFB0023A360052363737A
:102680003746B5E725712846F8BD00BF08EFFF1FA4
:1026900064EEFF1F07B502AB012103F8010D1846D8
:1026A000FFF7A0FF03B05DF804FB70B50F4B1B787C
:1026B000D3B10F4CA568012626714DB100266B8859
:1026C000667304202B802946FFF7F2FAA66009E022
:1026D000FFF7A4FE014620B104206573FFF7E8FA76
:1026E00000E066730023237170BD00BF64EEFF1F1E
:1026F00008EFFF1F38B50D4C237903F0FF059BB998
:10270000A16831B14B880B800420FFF7D1FAA56096
:1027100038BDFFF783FE014620B10420BDE83840F4
:10272000FFF7C6BA0123637338BD00BF08EFFF1F70
:1027300030B5A0F1080300F1300200240025E3E9E0
:1027400002459342F9D10023836330BD816B10B5FC
:102750004C1C072C00EBC1018463C1E9002304BFBA
:102760000023836310BD2DE9F8430F4D846B804631
:1027700005F13809002600270CB1013C00E00624D1
:1027800008EBC403D3E90001F5E9022301F09CF949
:1027900002460B463046394600F0E4FF4D450646FA
:1027A0000F46E9D1BDE8F883904800007047FFFF6D
:1027B00072B6044B4AF202621A804BF280421A80CF
:1027C00062B670470C2005400B4B4CF220521A8029
:1027D0004DF628121A8000BF00BFD32223F80E2C1A
:1027E00000221A814FF4B77223F80A2C4FF4585282
:1027F00023F8082C704700BF0E2005402DE9FF414B
:102800003B4D3C4FFFF7E0FF00F0D6F8284600F0C4
:10281000E1FA394800F0FAF83748396800F0F4F87E
:1028200000F07CFD00F012FA01232B7300242E46E9
:10283000324B1D7805F0FF08002D42D1FFF7B8FF9D
:10284000337B2B485BB14AF20203057319780A23E4
:10285000009310304AF20302434600F018FB24486C
:1028600000F0D0FA2448002100F016F900F01CFC1A
:10287000FFF756FE002805DC1D4800F0E7FA0028A7
:10288000D6D00CE0FFF74CFE0028F5DD1A481C49B5
:1028900000F0BAF800F05CFAFFF78AFFF2E714489C
:1028A00000F0DFFA10F0FF0FC2D1013404F007048A
:1028B00057F824108B68002BF7D00F4800F0A4F8CD
:1028C000B6E7104B104A1A60104B1A680392039D2A
:1028D0001C460A3523680293029BAB4202D2FFF7E3
:1028E00067FFF7E772B60A4B00221A70FEE700BFD7
:1028F00024F3FF1F3CE8FF1F58F4FF1F84EEFF1F67
:1029000080F4FF1FFC1F0020464362741CEEFF1F73
:102910000821074073B5234C234E0A253246009503
:1029200004F128005E21002300F0A7FA06F6043225
:102930001E4E009504F140003621002300F09DFA60
:1029400006F16002009504F158003221002300F0E6
:1029500094FA06F23C62009504F1700045210023D0
:1029600000F08BFA06F65262009504F18800782197
:10297000002300F082FA009504F1A00078210C4AAF
:10298000002300F07AFA009504F1B8005B21094AAF
:10299000002300F072FA04F1100002B0BDE87040AC
:1029A00000F064BA24F3FF1FD0480000C8590000AB
:1029B0002A7600003A840000044B40F207121A60A5
:1029C000034A136823F00803136070470C90044017
:1029D00014F00F40034B186880F00800C0F3C000EB
:1029E000704700BF10F00F4010B5064C04F10C0307
:1029F0002046211D04F1080200F04EFE012323743D
:102A000010BD00BFF8F3FF1F4161704738B51A4C85
:102A100000238360C36004F11800FFF789FE174AA2
:102A20001748136843F000731360164B04221A60B2
:102A3000154A00214FF6FF7511600560106840F0DF
:102A40000F0010601A6842F002021A600F4A136801
:102A500043F0800313600920FEF73EFE09200222A6
:102A60000B49FEF70BFC0B4BF0221A702046BDE819
:102A7000384000F0A3BD00BFF8F3FF1F3C800440C6
:102A80000890034054900340009003405890034046
:102A9000E92900002AE400E02DE9F3414C4D044609
:102AA000286800F09BFF48A3D3E9002301F00CF84D
:102AB00001F01CFA00232B60464D2A7C074632B3F6
:102AC000686820602B7400F0ABFF02460B4605F1EE
:102AD0001800FFF73BFE05F11800FFF744FE01F078
:102AE00005FAA96D064601F055FA0021804601F06D
:102AF00017FD08B1012308E04046002101F0F2FC77
:102B000010B14FF0FF3300E0EB6D2361AE65266935
:102B1000EB6D9E420DD00023002EA36001DAE3602E
:102B200007E063699868782390FBF3F001F0E8FA16
:102B3000E0602168EE65384601F036FBA16801F0DF
:102B40002BFA3946A06001F02FFBE16801F024FA6E
:102B50002149E06001F028FB01F0ECFC011E1BDBC9
:102B600060698368994217DA00F003FA0025074686
:102B700005EB45043C440026A17822786378009157
:102B80002846314600F006FA0F340EB90126F3E765
:102B90000135052DECD112E0002400252046294600
:102BA0002A462B46009500F0F5F9204600950121B4
:102BB0002A462B46013400F0EDF9052CEDD102B088
:102BC000BDE8F081AFF30080358A38DF807DD13EEB
:102BD00004900340F8F3FF1F0000F042AFF30080C1
:102BE00003490123002202700B704A6018467047A7
:102BF00070F4FF1F044B054900221A7001230B706B
:102C000002701846704700BF70F4FF1F30F3FF1FBB
:102C100003490123002202700B72CA6018467047F4
:102C200070F4FF1F044B1B7A0BB9037001E0002204
:102C300002701846704700BF70F4FF1F024A00235D
:102C4000037013720120704770F4FF1F10B5064C1B
:102C500004F1100000F024F90123A3620023E362D1
:102C600023636363A36310BD70F4FF1F10B5FFF708
:102C700015FCC0B2FF28174B4FF000021ED0D96AD6
:102C80005A634C1C1944022CDC6281F83C0020DDA4
:102C9000DA621A6B092A1CDC02EB4201194493F830
:102CA0003C0081F83F0093F83D0081F8400093F824
:102CB0003E0081F8410001321A6310BD596BDA629F
:102CC000013108295963C8BF02211A63C4BF996240
:102CD0009A6310BD70F4FF1F10B5FFF7DFFB1A4BAE
:102CE0009A6BC0B20AB9FF282CD0511C1A449963C0
:102CF00082F85D0093F85D00144B1A78FF2A03D127
:102D0000BDE81040FFF7A2BF824219D15A68914234
:102D100018DB0D4C9B6804F15E00984708B1502009
:102D200000E04620FFF7B6FC94F85E00FFF7B2FC27
:102D300094F85E1004F15F000131FFF753FCDFE708
:102D40000C33DAE710BD00BF70F4FF1FE4E8FF1F8B
:102D5000054B9B6A012B03D0022B03D1FFF7BCBFAD
:102D6000FFF784BFFFF772BF70F4FF1F0E4A13789E
:102D700013B50BB9037014E052680C4B0C4C1340A4
:102D8000002BBEBF03F1FF3363F00F0301331021AB
:102D900092FBF1F1402200929B014FF48062A04728
:102DA0000346184602B010BD70F4FF1F0F000080EC
:102DB0005DE8FF1F07B5064A0A23009302F11000E1
:102DC00001213F32002300F058F803B05DF804FB06
:102DD00070F4FF1F034B40F207121A6001230360D7
:102DE000436070470C900440044A136823F00803C2
:102DF0001360034B1868C0F3C000704714F00F4015
:102E000010F00F4038B543680F4D012B04460FD02A
:102E1000FFF7EAFF636805EB43035B78984205D14F
:102E2000A368B3F5FA7F0DDA01330AE0012363608A
:102E30002878FEF743FC6B78834203D1002363605C
:102E40002360A36038BD00BF34F5FF1F0368012B6A
:102E500005D08068A0F5FA735842584170470020A9
:102E600070470346012200681A60704700228260A2
:102E70000260027342600261704710B503739DF8EF
:102E800008304360002381600260036110BD03735A
:102E90009DF8003043600023816002600361704749
:102EA0000023036170470269436810B55343026809
:102EB00003EB430313444361002342685C1CDBB211
:102EC00093420CDA426903EB43031278CA54426915
:102ED0005278CA5442699278CA542346EDE710BD2D
:102EE0000369F0B50BB903684361002543689D424F
:102EF00027DA43695A781E789B7806F07F0603F03C
:102F0000E004DB00DFB2731C02F0F80E2B44520128
:102F100042EAD40403EB430305EB4502E4B20A445E
:102F20000B4403329A4206D002F803EC02F8024C3A
:102F300002F8017CF5E7436935440333EDB24361A0
:102F4000D4E7F0BD037B10B5044623B1012B04D1B7
:102F5000FFF7C6FF01E0FFF7A6FF2369A168013371
:102F600093FBF1F201FB1233002BC8BF0023236156
:102F700010BD037B02682BB94368594301EB410143
:102F80005018704710467047014B1878704700BFC3
:102F900038F5FF1F04280DDC01290BDC01EB810152
:102FA0000844054900EB4000084483709DF8003058
:102FB0004270C370704700BF38F5FF1F004870476C
:102FC00039F5FF1F08B5014601F0EEF8014B186016
:102FD00008BD00BF38E9FF1F2DE9F04F4FF0000991
:102FE00085B0F02303FB09F301930026831910F841
:102FF00006B05A789B78029203930027294D029BD2
:1030000016F805C035444BFA07F495F801E095F839
:1030100002A0019D4FF01E0808FB075804F00104B0
:10302000022543FA07F215FB0C8CA401039BE4B2C2
:1030300002F0010201F80C4015FB0E8E3B4192019B
:103040008C44D2B203F0010344F020048CF8014018
:1030500015FB0A8501F80E209B018E44DBB242F07D
:1030600020028EF8012001374B550D4443F0200318
:10307000082F6B70C2D103360F2EB7D10F30B9F1C4
:10308000000F02D14FF00109ABE701F5F0724B7868
:1030900043F020034B7002319142F8D105B0BDE8F6
:1030A000F08F00BF3CE9FF1F10B5054C23782BB90A
:1030B000601C216AFFF790FF0123237010BD00BF41
:1030C00038F5FF1F174B18600420988040F202204B
:1030D000D88099601448154900230B604860A0F51A
:1030E0003B30A0F2EA30013292B20B81CB604A81D0
:1030F000028003886FEA43436FEA53439BB2038025
:1031000003889BB243F4007303804B896FEA434307
:103110006FEA53439BB24B814B899BB243F40073DC
:103120004B81704700900040088003400C900040A5
:10313000174B18600420988040F20220D8809960D4
:103140001448154900230B604860A0F53B30A0F2FD
:10315000DA30013292B20B81CB604A81028003885F
:103160006FEA43436FEA53439BB2038003889BB2E9
:1031700043F4806303804B896FEA43436FEA534310
:103180009BB24B814B899BB243F480634B81704768
:1031900020900040188003402C900040194B10B53F
:1031A0001860012098801848184C00230380C0F84C
:1031B0000210174900F576207A300B604860A0F5C0
:1031C0007620623892B20B814A81028023604A8164
:1031D000028003886FEA43436FEA53439BB2038044
:1031E00003889BB243F4C06303804B896FEA434377
:1031F0006FEA53439BB24B814B899BB243F4C0634C
:103200004B8110BD409000404690004058900040D7
:103210004C9000400A4B1860012098800948002318
:103220000380C0F80210084900F5762092B21A30E7
:103230000B6048600B814A814A82044A13607047E0
:1032400060900040669000406C9000407890004094
:1032500010B50E4C042104F124001022FFF732FFB8
:1032600004F1640004211022FFF762FF04F1A400BE
:103270000A211022FFF792FF1022D4F844011E21E8
:10328000FFF7C8FF024B03221A7010BD38F5FF1F6D
:103290001D800040FFF7DCBF074B02221A70074B6E
:1032A0001A783AB1D3F84421196A1A620022C3F895
:1032B00044111A70FFF7CCBF1F80004038F5FF1F84
:1032C000114B04221A60114A00211160104940F28A
:1032D000FF200860116841F0090111601A6842F08E
:1032E00002021A60652243F8402C4FF4007243F842
:1032F0003C2C084A136843F080031360064B4FF4DC
:1033000051721A60704700BF548003400080034030
:1033100008800340588003401090044038B50620D0
:103320000121FEF7D9F914200121FEF7D5F90B2070
:103330000121FEF7D1F90D200121FEF7CDF915206D
:103340000121FEF7C9F921200121FEF7C5F9434B00
:103350000022002A14BFAF209F20002158540131C1
:103360000A29FBD1EF2101321972082A4FF0AF016F
:10337000597203F10A03ECD1394B0022002A14BF21
:103380009F20AF200021585401310A29FBD1DF21B1
:1033900001321972082A4FF09F01597203F10A0392
:1033A000ECD1002210242F4BA3F1400004F1500176
:1033B00043F8224040F822100132082A4FEA440420
:1033C0001946F0D100221023062A3ED094000D1990
:1033D00004442B6203F1500525620132082A4FEAAA
:1033E0004303F1D1204A214D136843F002031360D7
:1033F0001F4B00241C60DC7603F582531C33022231
:103400001A801C4B04221A602B6843F002032B60C5
:10341000194B99221C701A70FFF71AFF2B6843F0A2
:1034200080732B60FFF74CFF144B03F5A472C3F8B5
:10343000442103F54A7021460A2218621C7001F0EB
:103440009FF8BDE83840FFF72FBECF2BBEDC0B4CFA
:103450004FF49075C4F89C30E565BEE7DCF5FF1FBE
:103460002CF6FF1F9CF5FF1F408004403C80044069
:103470000080004000E100E00010024038F5FF1F2E
:10348000064B1A7802F0DF021A701A7802F0EF0287
:103490001A70034B1B789B06FBD4704702600640F2
:1034A00003600640074A136843F040031360064B6D
:1034B0001B221A7080225A70044A4FF40073136062
:1034C00053607047348004400160064000A004400F
:1034D000044B1A789207FBD51A7842F002021A7050
:1034E000704700BF03600640064B1A7842F0100296
:1034F0001A701A78490042F02002C9B21A70997005
:10350000FFF7E6BF0260064001B1B9E7024A13784F
:1035100043F004031370704702600640014B1970BA
:10352000FFF7D6BF0460064038B503680546EBB127
:10353000022BDFBF0E4A137843F0080313700368B1
:10354000012B06D1FFF79CFF094A137803F0F7031C
:103550001370084B1C782B68012BE4B201DDFFF7D8
:10356000B7FF2B68013B2B60204638BD184638BD9D
:103570000260064004600640490038B541F0010190
:10358000094BC9B2197005461446FFF7A1FF074A57
:10359000137803F0EF03137001342C602846BDE864
:1035A0003840FFF7C1BF00BF04600640026006401C
:1035B00000680028D4BF00200120704770B5334850
:1035C000334CFFF76FFF1D213048FFF78DFF2B2392
:1035D0002370FFF77DFF40232370FFF779FFFFF78C
:1035E0004FFF0120FEF7CEF928481D21FFF77CFF91
:1035F0000D232370FFF76CFF264A2448137843F00D
:10360000040313701D210122FFF7B6FF1F4D2B6825
:10361000002B284602DDFFF787FFF7E71D21FFF7A4
:1036200063FF0E232370FFF753FF02232370FFF77E
:103630004FFFFFF725FF28461D21FFF755FF2D23DC
:1036400023700126FFF744FF2670FFF741FFFFF7C5
:1036500017FF28461D21FFF747FF2E232370FFF792
:1036600037FF2670FFF734FFFFF70AFF28461D21BA
:10367000FFF73AFF2A232370FFF72AFF0323237063
:10368000FFF726FFBDE87040FAE600BF40FAFF1FD3
:103690000460064002600640F8B52B4C0F462046F9
:1036A0001D2116461D46FFF71FFF284B00221A70EA
:1036B000FFF70EFF264A137843F0040313702046E9
:1036C0001D210422FFF758FF2368002B02DD20464E
:1036D000FFF72AFF2368002B0DDD1B48FFF724FFAF
:1036E00040B200F08BF916A3D3E9002300F0ECF907
:1036F00000F0FCFB38602368002B0DDD1248FFF75B
:1037000013FF40B200F07AF90DA3D3E9002300F0D3
:10371000DBF900F0EBFB30602368002B0DDD0A487D
:10372000FFF702FF40B200F069F905A3D3E90023D7
:1037300000F0CAF900F0DAFB28600120F8BD00BFF4
:103740009A9999999999E33F40FAFF1F04600640BE
:1037500002600640AFF3008081F0004102E000BF4C
:1037600083F0004330B54FEA41044FEA430594EA41
:10377000050F08BF90EA020F1FBF54EA000C55EA7C
:10378000020C7FEA645C7FEA655C00F0E2804FEA4D
:103790005454D4EB5555B8BF6D420CDD2C4480EA2F
:1037A000020281EA030382EA000083EA010180EA5F
:1037B000020281EA0303362D88BF30BD11F0004FAD
:1037C0004FEA01314FF4801C4CEA113102D04042E3
:1037D00061EB410113F0004F4FEA03334CEA13331E
:1037E00002D0524263EB430394EA050F00F0A78036
:1037F000A4F10104D5F1200E0DDB02FA0EFC22FA31
:1038000005F2801841F1000103FA0EF2801843FA24
:1038100005F359410EE0A5F120050EF1200E012A15
:1038200003FA0EFC28BF4CF0020C43FA05F3C01853
:1038300051EBE37101F0004507D54FF0000EDCF1CC
:10384000000C7EEB00006EEB0101B1F5801F1BD375
:10385000B1F5001F0CD349085FEA30004FEA3C0C79
:1038600004F101044FEA445212F5800F80F09A806F
:10387000BCF1004F08BF5FEA500C50F1000041EB73
:10388000045141EA050130BD5FEA4C0C404141EB77
:10389000010111F4801FA4F10104E9D191F0000F9E
:1038A00004BF01460020B1FA81F308BF2033A3F121
:1038B0000B03B3F120020CDA0C3208DD02F1140C18
:1038C000C2F10C0201FA0CF021FA02F10CE002F153
:1038D0001402D8BFC2F1200C01FA02F120FA0CFC4C
:1038E000DCBF41EA0C019040E41AA2BF01EB045195
:1038F000294330BD6FEA04041F3C1CDA0C340EDC93
:1039000004F11404C4F1200220FA04F001FA02F3D5
:1039100040EA030021FA04F345EA030130BDC4F193
:103920000C04C4F1200220FA02F001FA04F340EA88
:103930000300294630BD21FA04F0294630BD94F039
:10394000000F83F4801306BF81F480110134013D20
:103950004EE77FEA645C18BF7FEA655C29D094EA91
:10396000050F08BF90EA020F05D054EA000C04BF0F
:103970001946104630BD91EA030F1EBF00210020FA
:1039800030BD5FEA545C05D14000494128BF41F099
:10399000004130BD14F580043CBF01F5801130BDFD
:1039A00001F0004545F0FE4141F470014FF0000088
:1039B00030BD7FEA645C1ABF194610467FEA655C39
:1039C0001CBF0B46024650EA013406BF52EA0335DB
:1039D00091EA030F41F4002130BD00BF90F0000FC9
:1039E00004BF0021704730B54FF4806404F1320405
:1039F0004FF000054FF0000150E700BF90F0000FBE
:103A000004BF0021704730B54FF4806404F13204E4
:103A100010F0004548BF40424FF000013EE700BFB4
:103A200042004FEAE2014FEA31014FEA02701FBF44
:103A300012F07F4393F07F4F81F06051704792F016
:103A4000000F14BF93F07F4F704730B54FF4607490
:103A500001F0004521F0004120E700BF50EA0102DB
:103A600008BF704730B54FF000050AE050EA010288
:103A700008BF704730B511F0004502D5404261EBF8
:103A800041014FF4806404F132045FEA915C3FF439
:103A9000DCAE4FF003025FEADC0C18BF03325FEAD2
:103AA000DC0C18BF033202EBDC02C2F1200300FA87
:103AB00003FC20FA02F001FA03FE40EA0E0021FAAC
:103AC00002F11444C1E600BF70B54FF0FF0C4CF496
:103AD000E06C1CEA11541DBF1CEA135594EA0C0F4C
:103AE00095EA0C0F00F0DEF82C4481EA030621EA87
:103AF0004C5123EA4C5350EA013518BF52EA0335C2
:103B000041F4801143F4801338D0A0FB02CE4FF073
:103B10000005E1FB02E506F00042E0FB03E54FF0A3
:103B20000006E1FB03569CF0000F18BF4EF0010E9B
:103B3000A4F1FF04B6F5007F64F5407404D25FEA97
:103B40004E0E6D4146EB060642EAC62141EA55514A
:103B50004FEAC52040EA5E504FEACE2EB4F1FD0C8C
:103B600088BFBCF5E06F1ED8BEF1004F08BF5FEA0A
:103B7000500E50F1000041EB045170BD06F00046BC
:103B800046EA010140EA020081EA0301B4EB5C0469
:103B9000C2BFD4EB0C0541EA045170BD41F4801161
:103BA0004FF0000E013C00F3AB8014F1360FDEBF86
:103BB000002001F0004170BDC4F10004203C35DA62
:103BC0000C341BDC04F11404C4F1200500FA05F3E5
:103BD00020FA04F001FA05F240EA020001F0004286
:103BE00021F0004110EBD37021FA04F642EB0601FC
:103BF0005EEA430E08BF20EAD37070BDC4F10C0426
:103C0000C4F1200500FA04F320FA05F001FA04F2E9
:103C100040EA020001F0004110EBD37041F10001D5
:103C20005EEA430E08BF20EAD37070BDC4F12005E0
:103C300000FA05F24EEA020E20FA04F301FA05F248
:103C400043EA020321FA04F001F0004121FA04F2F0
:103C500020EA020000EBD3705EEA430E08BF20EAC0
:103C6000D37070BD94F0000F0FD101F000464000FA
:103C700041EB010111F4801F08BF013CF7D041EA7C
:103C8000060195F0000F18BF704703F00046520080
:103C900043EB030313F4801F08BF013DF7D043EA51
:103CA0000603704794EA0C0F0CEA135518BF95EA07
:103CB0000C0F0CD050EA410618BF52EA4306D1D18E
:103CC00081EA030101F000414FF0000070BD50EAAD
:103CD000410606BF1046194652EA430619D094EA37
:103CE0000C0F02D150EA013613D195EA0C0F05D121
:103CF00052EA03361CBF104619460AD181EA030175
:103D000001F0004141F0FE4141F470014FF000002C
:103D100070BD41F0FE4141F4780170BD70B54FF0C7
:103D2000FF0C4CF4E06C1CEA11541DBF1CEA135547
:103D300094EA0C0F95EA0C0F00F0A7F8A4EB050429
:103D400081EA030E52EA03354FEA013100F0888020
:103D50004FEA03334FF0805545EA131343EA1263E9
:103D60004FEA022245EA111545EA10654FEA00269E
:103D70000EF000419D4208BF964244F1FD0404F557
:103D8000407402D25B084FEA3202B61A65EB0305B3
:103D90005B084FEA32024FF480104FF4002CB6EB70
:103DA000020E75EB030E22BFB61A754640EA0C00F0
:103DB0005B084FEA3202B6EB020E75EB030E22BF30
:103DC000B61A754640EA5C005B084FEA3202B6EB71
:103DD000020E75EB030E22BFB61A754640EA9C0030
:103DE0005B084FEA3202B6EB020E75EB030E22BF00
:103DF000B61A754640EADC0055EA060E18D04FEABE
:103E0000051545EA16754FEA06164FEAC30343EA5D
:103E100052734FEAC2025FEA1C1CC0D111F4801F2A
:103E20000BD141EA00014FF000004FF0004CB6E723
:103E300011F4801F04BF01430020B4F1FD0C88BFC2
:103E4000BCF5E06F3FF6AFAEB5EB030C04BFB6EBCD
:103E5000020C5FEA500C50F1000041EB045170BDC0
:103E60000EF0004E4EEA113114EB5C04C2BFD4EBED
:103E70000C0541EA045170BD41F480114FF0000E71
:103E8000013C90E645EA060E8DE60CEA135594EAED
:103E90000C0F08BF95EA0C0F3FF43BAF94EA0C0FF0
:103EA0000AD150EA01347FF434AF95EA0C0F7FF465
:103EB00025AF104619462CE795EA0C0F06D152EAB9
:103EC00003353FF4FDAE1046194622E750EA41069D
:103ED00018BF52EA43067FF4C5AE50EA41047FF4AE
:103EE0000DAF52EA43057FF4EBAE12E74FEA410211
:103EF000B2F1E04324BFB3F5001CDCF1FE5C0DD948
:103F000001F0004C4FEAC0024CEA5070B2F1004F91
:103F100040EB830008BF20F00100704711F0804F94
:103F200021D113F13872BCBF01F00040704741F459
:103F300080114FEA5252C2F11802C2F1200C10FA5D
:103F40000CF320FA02F018BF40F001004FEAC12341
:103F50004FEAD32303FA0CFC40EA0C0023FA02F3E5
:103F60004FEA4303CCE77FEA625307D150EA0133BB
:103F70001EBF4FF0FE4040F44000704701F000408B
:103F800040F0FE4040F40000704700BF80F0004069
:103F900002E000BF81F0004142001FBF5FEA410321
:103FA00092EA030F7FEA226C7FEA236C6AD04FEA21
:103FB0001262D2EB1363C1BFD21841404840414066
:103FC000B8BF5B42192B88BF704710F0004F40F418
:103FD000000020F07F4018BF404211F0004F41F434
:103FE000000121F07F4118BF494292EA030F3FD000
:103FF000A2F1010241FA03FC10EB0C00C3F1200313
:1040000001FA03F100F0004302D5494260EB4000A1
:10401000B0F5000F13D3B0F1807F06D340084FEA0C
:10402000310102F10102FE2A51D2B1F1004F40EB01
:10403000C25008BF20F0010040EA03007047490069
:1040400040EB000010F4000FA2F10102EDD1B0FA34
:1040500080FCACF1080CB2EB0C0200FA0CF0AABF29
:1040600000EBC25052421843BCBFD04018437047C7
:1040700092F0000F81F4000106BF80F400000132CD
:10408000013BB5E74FEA41037FEA226C18BF7FEAA4
:10409000236C21D092EA030F04D092F0000F08BFE6
:1040A0000846704790EA010F1CBF0020704712F0CD
:1040B0007F4F04D1400028BF40F00040704712F10C
:1040C00000723CBF00F50000704700F0004343F071
:1040D000FE4040F4000070477FEA226216BF0846A7
:1040E0007FEA23630146420206BF5FEA412390EA6A
:1040F000010F40F4800070474FF0000304E000BF60
:1041000010F0004348BF40425FEA000C08BF704710
:1041100043F0964301464FF000001CE050EA0102D4
:1041200008BF70474FF000030AE000BF50EA0102E9
:1041300008BF704711F0004302D5404261EB4101D6
:104140005FEA010C02BF84460146002043F0B643FB
:1041500008BFA3F18053A3F50003BCFA8CF2083A20
:10416000A3EBC25310DB01FA02FC634400FA02FC29
:10417000C2F12002BCF1004F20FA02F243EB020030
:1041800008BF20F00100704702F1200201FA02FC92
:10419000C2F1200250EA4C0021FA02F243EB020085
:1041A00008BF20EADC7070474FF0FF0C1CEAD052C9
:1041B0001EBF1CEAD15392EA0C0F93EA0C0F6FD08A
:1041C0001A4480EA010C400218BF5FEA41211ED068
:1041D0004FF0006343EA501043EA5111A0FB013154
:1041E0000CF00040B1F5000F3EBF490041EAD37129
:1041F0005B0040EA010062F17F02FD2A1DD8B3F1A5
:10420000004F40EBC25008BF20F00100704790F013
:10421000000F0CF0004C08BF49024CEA502040EA65
:1042200051207F3AC2BFD2F1FF0340EAC25070472B
:1042300040F400004FF00003013A5DDC12F1190F69
:10424000DCBF00F000407047C2F10002410021FADB
:1042500002F1C2F1200200FA02FC5FEA310040F1F3
:10426000000053EA4C0308BF20EADC70704792F06C
:10427000000F00F0004C02BF400010F4000F013AA4
:10428000F9D040EA0C0093F0000F01F0004C02BF9F
:10429000490011F4000F013BF9D041EA0C018FE70E
:1042A0000CEAD15392EA0C0F18BF93EA0C0F0AD014
:1042B00030F0004C18BF31F0004CD8D180EA01003A
:1042C00000F00040704790F0000F17BF90F0004FD3
:1042D000084691F0000F91F0004F14D092EA0C0FB5
:1042E00001D142020FD193EA0C0F03D14B0218BF48
:1042F000084608D180EA010000F0004040F0FE408E
:1043000040F40000704740F0FE4040F44000704729
:104310004FF0FF0C1CEAD0521EBF1CEAD15392EAA8
:104320000C0F93EA0C0F69D0A2EB030280EA010C98
:1043300049024FEA402037D04FF0805343EA111131
:1043400043EA10130CF000408B4238BF5B0042F18F
:104350007D024FF4000C8B4224BF5B1A40EA0C0034
:10436000B3EB510F24BFA3EB510340EA5C00B3EB66
:10437000910F24BFA3EB910340EA9C00B3EBD10F54
:1043800024BFA3EBD10340EADC001B0118BF5FEAA6
:104390001C1CE0D1FD2A3FF650AF8B4240EBC250CF
:1043A00008BF20F0010070470CF0004C4CEA502090
:1043B0007F32C2BFD2F1FF0340EAC250704740F4DF
:1043C00000004FF00003013A37E792F0000F00F0D1
:1043D000004C02BF400010F4000F013AF9D040EA4F
:1043E0000C0093F0000F01F0004C02BF490011F4E3
:1043F000000F013BF9D041EA0C0195E70CEAD153DB
:1044000092EA0C0F08D142027FF47DAF93EA0C0FC1
:104410007FF470AF084676E793EA0C0F04D14B02A5
:104420003FF44CAF08466EE730F0004C18BF31F057
:10443000004CCAD130F000427FF45CAF31F0004351
:104440007FF43CAF5FE700BF4FF0FF3C06E000BFEA
:104450004FF0010C02E000BF4FF0010C4DF804CD0D
:104460004FEA40024FEA41037FEA226C18BF7FEA1D
:10447000236C11D001B052EA530C18BF90EA010F1F
:1044800058BFB2EB030088BFC81738BF6FEAE170AE
:1044900018BF40F0010070477FEA226C02D15FEA4A
:1044A000402C05D17FEA236CE4D15FEA412CE1D0B6
:1044B0005DF8040B704700BF844608466146FFE77D
:1044C0000FB5FFF7C9FF002848BF10F1000F0FBD5F
:1044D0004DF808EDFFF7F4FF0CBF012000205DF858
:1044E00008FB00BF4DF808EDFFF7EAFF34BF0120DD
:1044F00000205DF808FB00BF4DF808EDFFF7E0FF76
:1045000094BF012000205DF808FB00BF4DF808EDC6
:10451000FFF7D2FF94BF012000205DF808FB00BF29
:104520004DF808EDFFF7C8FF34BF012000205DF80B
:1045300008FB00BF4FEA4002B2F1FE4F0FD34FF02D
:104540009E03B3EB12620DD94FEA002343F0004300
:1045500010F0004F23FA02F018BF404270474FF0AE
:104560000000704712F1610F01D1420205D110F035
:10457000004008BF6FF0004070474FF000007047E8
:1045800070B4840746D0541E002A41D0CDB20346F1
:1045900002E0621EE4B3144603F8015B9A07F8D107
:1045A000032C2ED9CDB245EA05250F2C45EA054549
:1045B00019D903F110022646103E0F2E42F8105C66
:1045C00042F80C5C42F8085C42F8045C02F110020C
:1045D000F2D8A4F1100222F00F0204F00F041032FE
:1045E000032C13440DD91E462246043A032A46F8EA
:1045F000045BFAD8221F22F003020432134404F0B1
:1046000003042CB1C9B21C4403F8011BA342FBD123
:1046100070BC704714460346C2E700BF024B13B19B
:10462000024800F005B87047000000003D46000059
:10463000014600200246034600F016B838B5084B84
:10464000084DED1AAC1018BFED1805D0013C55F817
:10465000043D9847002CF9D1BDE8384004F05CBC1B
:1046600000000000000000002DE9F047254C2568FF
:10467000D5F848410646884692469946CCB36068CC
:104680001F2818DC431C7EB104EB80050121C5F80E
:1046900088A0D4F8887101FA00F21743022EC4F8FA
:1046A0008871C5F808911ED00230636044F82080FC
:1046B0000020BDE8F087144B03B34FF4C870AFF38C
:1046C00000800446D0B1D5F84831002780E8880042
:1046D000C5F8484138460123C4F88871C4F88C7184
:1046E000002EE1D0D0E7D4F88C110A43C4F88C2115
:1046F000DAE705F5A674C5F84841C0E74FF0FF308A
:10470000BDE8F087E88E0000000000004008FE438E
:1047100040A004404408FE4344A004400018FE4367
:1047200000C004403000FE43309004403400FE439B
:10473000349004401C18FE431CC004401018FE4373
:1047400010C004400818FE4308C004400C18FE4383
:104750000CC004400C10FE430CB004401010FE438B
:1047600010B004401810FE4318B004401C10FE4363
:104770001CB004401410FE4314B004400418FE435F
:1047800004C004400010FE4300B004400008FE4393
:1047900000A004400408FE4304A004400C08FE43AB
:1047A0000CA004400808FE4308A004401418FE436F
:1047B00014C004401818FE4318C004400410FE43FF
:1047C00004B004400810FE4308B004401400FE4347
:1047D000149004404C08FE434CA004400420FE43C7
:1047E00004D004402410FE4324B004402010FE43B3
:1047F00020B004402810FE4328B004402C10FE4393
:104800002CB004400020FE4300D004404808FE4382
:1048100048A004401000FE431090044019151915DB
:10482000000100006BE5FF1F120000000002000005
:10483000FEE4FF1F6D00000000030000FAE4FF1F0C
:104840000000000001030904E2E4FF1F0000000073
:1048500002030904C6E4FF1F00000000030309046B
:1048600084E4FF1F00000000040309045AE4FF1F52
:1048700000000000050309042AE4FF1F00000000F7
:104880000603090406E4FF1F00000000000000000A
:10489000000000000000000028BA039F3234A43F4B
:1048A00039530C75504EBE3FE8628CD18584CA3FA7
:1048B00069514D799291CF3FE8628CD18584CA3F8E
:1048C00039530C75504EBE3F28BA039F3234A43F73
:1048D00000000000000000000000000000000000D8
:1048E00000000000000000000000000000000000C8
:1048F00000000000000000DD04DE000000000000F9
:10490000000000DF04DE000000000000000000DD09
:1049100004DEDD04DEDF04DEDD04DEDD04DEDF04D4
:10492000DEDF04DEDF04DEDF04DE00000000000066
:10493000000000DA04E0000000000000000000DCDD
:1049400004DE000000000000000000D305DED505F5
:10495000E0D505DED505E0D705E0D705DED705E0D3
:10496000D805E0D705DE000000000000000000D2FE
:1049700005DE000000000000000000D305E000009C
:104980000000000000000000000000000000000027
:104990000000000000000000000000000000000017
:1049A0000000000000C806E0C806E0C906E0C9062D
:1049B000E0C906E0C906E0CB06E0CB06E0CB06E0A6
:1049C000000000000000000000000000000000C522
:1049D00006E00000000000000000000000000000F1
:1049E00000000000000000000000C007E000000020
:1049F000C107E0000000000000000000000000000F
:104A00000000000000BD08E0000000000000000001
:104A100000BE07E0000000000000000000B808E24F
:104A2000B808E200000000000000000000000000E4
:104A30000000BB08E0BB08E200000000000000002E
:104A40000000000000000000000000000000000066
:104A5000000000000000000000000000000000B0A6
:104A600009E200000000000000000000000000005B
:104A700000B309E2000000AC0AE2000000AD09E268
:104A8000AD09E2AD09E2AD0AE2AD09E2AD09E2AF7E
:104A900009E2000000000000000000A90AE4000094
:104AA00000000000000000000000000000AC0AE26E
:104AB00000000000000000000000000000000000F6
:104AC00000000000000000000000000000000000E6
:104AD00000000000000000A00BE4A10BE2A10BE429
:104AE000A10BE2A10BE2A30BE4A40BE40000000085
:104AF00000000000009D0CE4000000000000000029
:104B000000000000000000000000000000000000A5
:104B10000000009A0DE2000000000000000000000C
:104B20000000000000000000000000000000000085
:104B300000960EE4000000000000000000000000ED
:104B40000000000000000000000000000000000065
:104B50000000930EE4930EE4930EE4940EE4940E9E
:104B6000E6940DE4000000000000000000000000DA
:104B70000000000000000000000000000000000035
:104B800000000000000000000000000000008C0F8A
:104B9000E68C0FE48C0FE68C0FE68C0FE60000002D
:104BA0000000000000000000008810E40000000089
:104BB00000008810E6000000000000890FE60000F9
:104BC000000000000000008411E60000000000006A
:104BD0008510E60000000000008610E600000000DE
:104BE00000000000008111E60000000000008111BB
:104BF000E60000000000008411E600000000000054
:104C00000000000000007D11E67D12E67E12E60045
:104C100000007E12E600000000000000000000001E
:104C20000000000000000000000000000000000084
:104C30000000000000000000000000000000000074
:104C400000007714E80000000000000000000000F1
:104C5000000000000000007314E67314E87414E808
:104C60007314E87314E87414E87414E87514E80015
:104C700000000000000000000000000000007015AF
:104C8000E80000000000000000000000007115E8CE
:104C90000000000000000000000000006E15E800A9
:104CA00000000000000000000000006F15E8000098
:104CB00000000000000000000000000000000000F4
:104CC0000000000000006B16EA0000000000000079
:104CD00000000000000000000000000000000000D4
:104CE00000000000000000000000000000000000C4
:104CF0000000006418EA000000000000000000004E
:104D000000000000006517EA0000006018EA0000DB
:104D1000006019EA6018EA6018EA6218EA6218EAA4
:104D20006218EA6318EA0000000000000000005E5C
:104D30001AEA00000000000000000000000000006F
:104D4000005F19EA00000000000000000000000001
:104D50000000000000000000000000000000000053
:104D60000000000000000000000000000000571BD1
:104D7000EA581BEC000000000000581BEC0000008B
:104D8000000000000000000000541CEC00000000C7
:104D90000000551CEC000000000000561CEC000058
:104DA00000000000000000521CEC000000000000A9
:104DB000531CEC000000000000541CEC000000003C
:104DC0000000000000501EEC000000000000501D1C
:104DD000EC000000000000511DEC0000000000008D
:104DE0000000000000004C1EEC0000000000004D20
:104DF0001EEC4D1EEC000000000000000000000052
:104E000000000000000000000000000000000000A2
:104E10000000000000000000000000004621EE47F6
:104E200021EE4721EC4720EE4821EC4821EC4820B8
:104E3000EE0000000000004421EE00000000000031
:104E4000000000000000000000000000000000461C
:104E500021EE0000004122EE0000000000000000F2
:104E6000000000000000000000000000004321EEF0
:104E70000000003F24EE00000000000000000000E1
:104E800000000000000000000000004123EE0000D0
:104E9000000000003C24EE000000000000000000C4
:104EA0000000000000003E24F000000000000000B0
:104EB00000000000000000000000000000000000F2
:104EC00000000000000000000000000000000000E2
:104ED00000000000000000000000000000000000D2
:104EE00000000000000000000000000000000000C2
:104EF000000000003627F03727F03627EE3727F07E
:104F00003727EE0000000000000000000000003322
:104F100028EE00000000000000000000000000007B
:104F2000003427F00000000000000000003129F0EC
:104F3000000000000000000000000000000000323F
:104F400028F00000000000000000002F2AF0000000
:104F500000000000000000000000000000312AF006
:104F60000000000000000000000000002D2BF02DCC
:104F70002BF22D2BF02D2BF02E2BF2000000000039
:104F80000000000000000000000000000000000021
:104F90000000000000000000000000000000000011
:104FA0000000000000292EF0292DF2292EF2292DD3
:104FB000F0292DF22A2DF22A2DF200000000000027
:104FC000000000272FF20000000000000000000099
:104FD00000000000000000000000000000000000D1
:104FE000002530F20000000000000000000000007A
:104FF000000000000000000000000000000000238E
:1050000031F200000000000000000000000000007D
:105010000000000000000000000000000000000090
:105020002132F22131F22131F42131F22131F42205
:1050300031F200000000000000000000000000004D
:105040000000000000000000000000000000000060
:105050000000000000000000001D34F21D34F41DAB
:1050600034F41E34F21E33F41E33F21E33F2000009
:10507000000000000000001B35F4000000000000EC
:105080000000000000000000000000000000000020
:1050900000000000001A36F40000000000000000CC
:1050A0000000000000000000000000000000000000
:1050B0000000001837F600000000000000000000AB
:1050C00000000000000000000000000000000000E0
:1050D000000000001639F61639F41739F61638F4C0
:1050E0001738F41738F4000000000000000000003A
:1050F00000000000000000000000000000000000B0
:10510000000000000000000000000000000000009F
:10511000143AF6143AF6143BF6143AF4143AF4003E
:105120000000000000000000000000123CF600003B
:1051300000000000123CF6000000000000123BF4EA
:10514000000000000000000000103DF6000000001C
:105150000000113DF6000000000000113CF60000C8
:10516000000000000000000F3FF6000000000000FB
:10517000103EF6000000000000103EF600000000A7
:1051800000000000000000000E40F60E40F80E4047
:10519000F80000000E3FF6000000000000000000D4
:1051A00000000000000000000000000000000000FF
:1051B00000000000000000000000000000000000EF
:1051C000000000000C42F80C42F80C41F60C41F8CB
:1051D0000C42F80000000000000000000000000A7F
:1051E00043F8000000000000000000000000000084
:1051F000000B42F80000000000000000000945F824
:105200000000000000000000000000000000000995
:1052100044F80000000000000000000846F800000C
:10522000000000000000000000000000000845F839
:105230000000000000000000000000000748F80027
:1052400000000000000000000747F8000000000018
:10525000000000000000000000000000000000004E
:10526000000000000000000000000000000000003E
:105270000000000000000000054AFA0000000000E5
:1052800000000000000000000000000000044BFAD5
:10529000044CFA044BFA044BFA044BFA054BFA059A
:1052A0004AFA054BFA000000000000000000000070
:1052B00000000000044CFA000000000000000000A4
:1052C000000000044CFA0000000000000000000094
:1052D0000000034FFA000000000000000000000082
:1052E00000034DFA00000000000000000000000074
:1052F0000000000000000000000000000250FC0060
:10530000000000000000000000000000000000009D
:10531000000000000000000000000000000000008D
:105320000000000000000000000000000152FC012D
:1053300052FC0000000000000152FC0000000000D0
:10534000000000000000000154FC0000000000000C
:105350000153FC0000000000000153FC00000000AD
:1053600000000000000055FF000000000000005495
:10537000FF0000000000000055FC000000000000DD
:105380000000000056FC0000000000000056FF0076
:1053900000000000000055FC0000000000000000BC
:1053A000000000000057FF0000000000000057FC54
:1053B0000057FF0000000000000000000000000097
:1053C00000000000000000000000000000000000DD
:1053D00000000000000000000000000000000000CD
:1053E00000000000000000000000000000000000BD
:1053F0000000000000FF5800FF5800FF5800FF5851
:1054000000FF5800FF5800FF5800FF5800FF5800E9
:10541000000000FF5800000000000000000000FF36
:105420005800000000000000000000000000000024
:1054300000FF5800000000000000000000FF5800BE
:10544000000000000000000000000000000000FF5D
:105450005800000000000000000000FF580000009D
:1054600000000000000000000000000000FF5800E5
:10547000000000000000000000000000000000002C
:10548000000000000000000000000000000000001C
:10549000000000000000000000000000000000000C
:1054A000000000000000000000000000000000FFFD
:1054B0005800FF5800FF5800FF5800FF5800FF58E1
:1054C00000FF580000000000000000000000000085
:1054D000FF58000000000000000000000000000075
:1054E0000000000000000000000000FF5800000065
:1054F00000000000000000000000000000000000AC
:10550000000000000000000000FF58000000000044
:10551000000000000000000000000000000000008B
:1055200000000000000000000000FF580000000024
:10553000000000000000000000000000000000006B
:10554000000000000000000000000000000000005B
:10555000000000000000000000000000000000004B
:10556000000000000000FF5B00FF5B00FF5B00FF2E
:105570005800FF580000000000000000000000007C
:1055800000FF5B00000000000000FF5B0000000067
:10559000000000FF5800000000000000000000FFB5
:1055A0005B00000000000000FF5B00000000000046
:1055B00000FF5800000000000000000000FF5B003A
:1055C000000000000000FF5B00000000000000FF82
:1055D0005800000000000000000000000000FF5B19
:1055E00000FF5B00FF5B00000000FF5800000000B0
:1055F00000000000000000000000000000000000AB
:10560000000000000000000000000000000000009A
:1056100000000000000000000000FF5B00FF5B00D6
:10562000FF5B00FF5800FF58000000000000000072
:105630000000000000FF5B00000000000000FF5BB6
:1056400000000000000000FF580000000000000003
:10565000000000FF5B00000000000000FF5B000096
:105660000000000000FF58000000000000000000E3
:1056700000FF5B00000000000000FF5B0000000076
:10568000000000FF580000000000000000000000C3
:105690000000FF5B00FF5B00FF5B00000000FF58A5
:1056A00000000000000000000000000000000000FA
:1056B00000000000000000000000000000000000EA
:1056C0000000000000000000000000000000FF5883
:1056D00000FF5800000000000000FF58000000001C
:1056E000000000000000000000FF58000000000063
:1056F0000000FF5800000000000000FF58000000FC
:1057000000000000000000FF580000000000000042
:10571000FF5800000000000000FF580000000000DB
:105720000000000000FF5800000000000000FF58CB
:1057300000000000000000FF580000000000000012
:10574000000000000000FF5800000000000000FF03
:105750005800FF580000000000000000000000009A
:105760000000000000000000000000000000000039
:105770000000000000000000000000000000000029
:105780000000FF5800FF5800FF5800FF5800FF5866
:1057900000000000000000000000000000FF5800B2
:1057A000000000000000000000000000000000FFFA
:1057B0005800000000000000000000FF580000003A
:1057C00000000000000000000000000000FF580082
:1057D000000000000000000000FF58000000000072
:1057E0000000000000000000000000FF5800000062
:1057F00000000000000000000000FF580000000052
:10580000000000000000FF58000000000000000041
:105810000000000000000000000000000000000088
:105820000000000000000000000000000000000078
:10583000000000000000FF5800000000000000FF12
:105840005B00FF5B000000000000000000000000A3
:1058500000FF5800000000000000FF5B0000000097
:10586000000000FF5B00000000000000000000FFDF
:105870005800000000000000FF5B00000000000076
:1058800000FF5800000000000000000000FF58006A
:10589000000000000000FF5B00000000000000FFAF
:1058A0005800000000000000000000000000FF5849
:1058B00000FF5800FF5B00FF5B00FF5B00FF5B0029
:1058C00000000000000000000000000000000000D8
:1058D00000000000000000000000000000000000C8
:1058E00000000000000000000000000000000000B8
:1058F000000000000000000000000000000000FFA9
:10590000580000000000000000000000000000003F
:1059100000000000000000FF5800000000FF5800D9
:10592000FF5800FF5800FF5800FF5800FF5800FFC5
:105930005800FF5800FF5800000000000000000061
:105940000000000000000000000000000000000057
:10595000000000FF580000000000000000000000F0
:105960000000000000000000000000000000000037
:105970000000000000000000000000000000000027
:10598000FF5B00FF5B00FF5B00FF5800FF5800005B
:105990000000000000000000000000FF5B000000AD
:1059A00000000000FF5B00000000000000FF580046
:1059B000000000000000000000FF5B00000000008D
:1059C0000000FF5B00000000000000FF5800000026
:1059D00000000000000000FF5B000000000000006D
:1059E000FF5B00000000000000FF58000000000006
:1059F0000000000000000000FF5B00FF5B00FF5B99
:105A000000000000FF58000000000000000000003F
:105A10000000000000000000000000000000000086
:105A20000000000000000000000000000000000076
:105A30000000000000000000000000000000000066
:105A4000000000000000000000000000000000FF57
:105A50005D00000000000000000000FF5C0000008E
:105A600000000000000000FF5D00FF5C00FF5C0024
:105A7000FF5D00FF5D00FF5C00FF5D00FF5D00FF5C
:105A80005D00000000000000000000FF5D0000005D
:105A900000000000000000FF5C00000000000000AB
:105AA000000000FF5D00FF5D00FF5C00FF5C00FF89
:105AB0005D00FF5C00FF5D00FF5D00FF5C0000001B
:105AC00000000000000000FF5C000000000000007B
:105AD000000000FF5C00000000000000000000006B
:105AE00000000000000000000000000000000000B6
:105AF00000000000000000000000000000FF5D004A
:105B0000FF5D00FF5D00FF5D00FF5D00FF5D00FFCA
:105B10005C00FF5D00FF5D00000000FF5C00000016
:105B200000000000000000FF5D0000000000000019
:105B3000000000000000000000FF5D000000000009
:105B40000000000000FF5C000000000000000000FA
:105B500000000000000000FF5C00000000000000EA
:105B6000000000FF5D0000000000000000000000D9
:105B70000000000000FF5C000000000000000000CA
:105B80000000000000000000000000000000000015
:105B90000000000000000000000000000000000005
:105BA00000000000000000000000000000000000F5
:105BB00000FF5D0000000000000000000000000089
:105BC000000000000000000000000000000000FFD6
:105BD0005D00000000000000000000000000000068
:105BE00000000000000000000000000000FF5C005A
:105BF000FF5D00FF5D00FD5B00FD5800FB5500F9F7
:105C00005201F74D01F64A03000000FF5C0000005E
:105C10000000000000000000000000000000000084
:105C2000000000000000000000FF5C000000000019
:105C30000000000000000000000000000000000064
:105C40000000000000000000000000000000000054
:105C50000000000000000000000000000000000044
:105C60000000000000FB5300F75001F64B02F4481F
:105C700003F24405F04007EF3B0AEB390EEB341119
:105C8000000000F74F02000000000000000000F0DC
:105C90003F090000000000000000000000000000BC
:105CA00000F44803000000000000000000ED390D82
