:10000000FC1F0020F900000003E2FF1F03E2FF1FB6
:1000100003E2FF1F03E2FF1F03E2FF1F01E2FF1FD6
:1000200001E2FF1F01E2FF1F01E2FF1F03E2FF1FCA
:1000300003E2FF1F01E2FF1F03E2FF1F03E2FF1FB6
:1000400003E2FF1F03E2FF1F03E2FF1F03E2FF1FA4
:1000500003E2FF1F03E2FF1F03E2FF1F03E2FF1F94
:1000600003E2FF1F03E2FF1F03E2FF1F03E2FF1F84
:1000700003E2FF1F03E2FF1F03E2FF1F03E2FF1F74
:10008000B9E6FF1F03E2FF1F03E2FF1F03E2FF1FAA
:1000900003E2FF1F03E2FF1F03E2FF1F03E2FF1F54
:1000A00003E2FF1F03E2FF1F03E2FF1F03E2FF1F44
:1000B00003E2FF1F03E2FF1F03E2FF1F03E2FF1F34
:1000C00003E2FF1F03E2FF1F03E2FF1F45E2FF1FE2
:1000D00003E2FF1F03E2FF1F03E2FF1F03E2FF1F14
:1000E00003E2FF1F03E2FF1F03E2FF1F03E2FF1F04
:1000F00003E2FF1F03E2FF1F3D4B4CF220521A8028
:100100004DF628121A8000BF00BFD32223F80E2C10
:1001100000221A81072223F80A2C4FF4A64223F862
:10012000082CA3F51F43D63B324A1A60324A5A6064
:1001300003F5533303F2CA331A78110703D51A783B
:1001400042F008021A702D4B0A221A70A3F6FF73B0
:1001500024221A70A02203F8012C294B1A78920746
:10016000FBD51A78D006FCD41A7802F00C02082AC3
:10017000FAD1244B03221A7040225A700023224ADB
:1001800022499818884204D2214959589950043379
:10019000F5E7204A204B9A424FF0000302D242F882
:1001A000043BF7E71D491E4A595899500433B3F5EB
:1001B000807FF7D11B4B1A60114B1A789106FBD543
:1001C0001A785206FCD5184B184A1A60184B202290
:1001D0001A700B4B1B7803F00C030C2BF9D1154B49
:1001E00002221A60443B144A1A6062B600F028B832
:1001F0000E200540823F04000100002B0050064005
:10020000064006400440064000E2FF1F0CECFF1FC2
:100210001004000000F0FF1F34F9FF1F0000000071
:1002200000F0FF1F08ED00E04480044000000311CF
:100230000040064048800440C0100500FFFFFFFF5B
:1002400001B40248844601BC604700BFBDE7FF1F00
:10025000FFFFFFFFFFFFFFFFFFFFFFFFFFFFFFFFAE
:10026000FFFFFFFFFFFFFFFFFFFFFFFFFFFFFFFF9E
:10027000FFFFFFFFFFFFFFFFFFFFFFFFFFFFFFFF8E
:10028000FFFFFFFFFFFFFFFFFFFFFFFFFFFFFFFF7E
:10029000FFFFFFFFFFFFFFFFFFFFFFFFFFFFFFFF6E
:1002A000FFFFFFFFFFFFFFFFFFFFFFFFFFFFFFFF5E
:1002B000FFFFFFFFFFFFFFFFFFFFFFFFFFFFFFFF4E
:1002C000FFFFFFFFFFFFFFFFFFFFFFFFFFFFFFFF3E
:1002D000FFFFFFFFFFFFFFFFFFFFFFFFFFFFFFFF2E
:1002E000FFFFFFFFFFFFFFFFFFFFFFFFFFFFFFFF1E
:1002F000FFFFFFFFFFFFFFFFFFFFFFFFFFFFFFFF0E
:10030000FFFFFFFFFFFFFFFFFFFFFFFFFFFFFFFFFD
:10031000FFFFFFFFFFFFFFFFFFFFFFFFFFFFFFFFED
:10032000FFFFFFFFFFFFFFFFFFFFFFFFFFFFFFFFDD
:10033000FFFFFFFFFFFFFFFFFFFFFFFFFFFFFFFFCD
:10034000FFFFFFFFFFFFFFFFFFFFFFFFFFFFFFFFBD
:10035000FFFFFFFFFFFFFFFFFFFFFFFFFFFFFFFFAD
:10036000FFFFFFFFFFFFFFFFFFFFFFFFFFFFFFFF9D
:10037000FFFFFFFFFFFFFFFFFFFFFFFFFFFFFFFF8D
:10038000FFFFFFFFFFFFFFFFFFFFFFFFFFFFFFFF7D
:10039000FFFFFFFFFFFFFFFFFFFFFFFFFFFFFFFF6D
:1003A000FFFFFFFFFFFFFFFFFFFFFFFFFFFFFFFF5D
:1003B000FFFFFFFFFFFFFFFFFFFFFFFFFFFFFFFF4D
:1003C000FFFFFFFFFFFFFFFFFFFFFFFFFFFFFFFF3D
:1003D000FFFFFFFFFFFFFFFFFFFFFFFFFFFFFFFF2D
:1003E000FFFFFFFFFFFFFFFFFFFFFFFFFFFFFFFF1D
:1003F000FFFFFFFFFFFFFFFFFFFFFFFFFFFFFFFF0D
:10040000FFFFFFFFFFFFFFFFFEFFFFFFFEFFFF40BD
:10041000FEE7FEE7F0B50C4B0C4C1A7842F00205F3
:1004200004EBC50682F00102706009481A70067874
:10043000002E0CBF8827C82786F0010647EA014135
:10044000067044F83510F0BD48F4FF1F00E0FF1FB0
:100450009FF4FF1F2DE9F743944E3378DBB213F07E
:10046000040F18BF042103F0080018BF3170324692
:1004700000F0FF01002800F093818D4B1F78FFB240
:100480003B0940F08A818B4CBF0804EBC7025168DE
:1004900054F83720C2F38302092A00F057810D2A4D
:1004A00003D0012A40F076811CE1834D0A68496837
:1004B0006960824944F8371081492A600120087038
:1004C000804F81493B6092B2B2F5A06F0B8067D03C
:1004D00024D840F221139A4200F08980B2F5917F2E
:1004E0000CD2822A3FD0B2F5817F4BD0802A40F0D7
:1004F000A880764C002323706370A5E040F2A133FE
:100500009A4200F0848040F221439A4200F08680B3
:1005100040F202339A4240F0948043E040F281611D
:100520008A420BD8B2F5D06F4AD240F2A1539A4218
:1005300079D040F221639A427DD082E0B2F5106F0B
:100540000ED007D8B2F5086F7BD1614B5F4C1B789A
:1005500023706EE0A2F5FD42403A012A43D970E0D3
:10056000A9785B4A1BE0AA885A4B0AB10F2210E116
:10057000564C0022227062701B78980764D50123C4
:10058000237061E0AA8851065BD14B4B5B88002B3E
:1005900057D191004F4A0A44117821F0020111709D
:1005A0001C4658E0AA8853064BD1434B5B88002B6E
:1005B00047D19100474A0A44117841F00201EEE721
:1005C0006A88454B53F8084CA3F10C01002C38D035
:1005D0000C3333F8180C9042F4D1120A032A0CBFE2
:1005E00023780B8937E0AB88042B2AD12EE0AB8827
:1005F0003BBBE98849B9688800910A460B4600F080
:1006000095FA10B9334B0F221A700023C8E7AB8854
:10061000BBB92E4800F026FBD8B912E0AB8883B9ED
:1006200000F054FB0BE0AB885BB900F079FA274C83
:10063000207001230FE0AB881BB900F05DFB0028A0
:10064000E3D10F22234BA4E0022304E02823234C10
:1006500001E01E4C0623B5F80680434538BF984696
:10066000B8F1400F34BF4546402520462946FFF7E4
:10067000D1FEB8EB05082C4404D1402D40F08A800F
:10068000454604E0B8F1400F34BF454640252046BA
:100690002946FFF7BFFEB8EB05082C4401D1402DD9
:1006A00078D10F4A3C60A2F8008073E080200740B8
:1006B0009020074000E0FF1F8CF4FF1F80004000E7
:1006C0009FF4FF1F00F4FF1F04F4FF1F96F4FF1FA9
:1006D0009EF4FF1FC02007400CEBFF1FACEBFF1F79
:1006E00094F4FF1F4A48028840F221139A4229D10C
:1006F0008388484A1BB11588C3889D421FD8C38888
:10070000128840880091C2EB0308B8F1400F28BF5F
:100710004FF04008194643463E4D00F007FA70B1CD
:100720002B8898443A4BDB881FFA88F84345A5F894
:10073000008007D838480021FFF76CFE02E0374BF5
:100740000F221A70364B44F8373023E0354F3D689E
:10075000B5B1DFF8F480B8F80090B9F1400F34BFBC
:100760004C46402428462146FFF754FEC4EB0903BB
:100770009BB2A8F800300BB9402C00D12B193B607C
:10078000234B1A88B2F5A06F04D100225A709A78D0
:10079000254B1A70254B01221A70082333705BE633
:1007A000DC071FD521481E4C214D1F4A0223037030
:1007B000204B1970204B1C609C60204CDC605D60FD
:1007C00019619961154B0D241C701D4CFF2323707A
:1007D0003370117002F80C3C1A4B9F221A700123DF
:1007E000037012E0180604D50C490D200870802112
:1007F0003170990705D512490878C0B208700221F6
:100800001170DB0644BF1023137003B0BDE8F08302
:100810008CF4FF1F04F4FF1F96F4FF1FC020074055
:100820008000400000F4FF1F9820074094200740FC
:1008300008F4FF1F48F4FF1F00E0FF1F4CF4FF1FE8
:10084000882007408420074094F4FF1F184B1A6843
:1008500042F480221A6003F52833D83380221A70BC
:100860001978144A0906FBD4134B1449C3F3072023
:100870000870C3F307401B0E08750B76FF2301F8C1
:100880001C3C01F8143C01F88C3C137843F0400305
:1008900013700021012302F8783C02F80C1C02F8C6
:1008A000883C074B08221A60064B10221A707047CA
:1008B000348004400C21074000E0FF1F9C200740CB
:1008C00004E100E008210740F0B52E4A137813F048
:1008D000300F25D072B62C4B2C4C1B7803F0FF0048
:1008E0002BB923782A4B4021197062B618E062B602
:1008F000284B294D19782E78C9B2F6B21D464B1CEB
:10090000DBB2402B277828BF0023B342FFB202D0CE
:100910002249CF541946431E13F0FF00EFD129702E
:100920001F4B1978C9B20D0620D513781C061DD5AA
:100930001C4B1D481E780378F6B2DBB2B3420ED0D2
:100940000133DBB2402B1478184C28BF0023E55C40
:100950000E4CEDB225700D342478072CEED90370BF
:100960001378180602D50E4B7C201870490608D55E
:1009700013785B0605D50E4B00221A70084B3C22FB
:100980001A70F0BD04A0064016A0064007A006405D
:1009900011A0064022F5FF1FA1F4FF1FE2F4FF1F84
:1009A00003A0064024F5FF1F23F5FF1FA2F4FF1F3D
:1009B000A0F4FF1F72B6044B4AF202621A804BF297
:1009C00080421A8062B670470C20054038B5254B2E
:1009D00040F207121A6003F5362308331A6822F032
:1009E00008021A60043B1B681B070BD51E4C63688A
:1009F000A3F58053B3F5F83F04D21C4D1C4A2B6875
:100A000093421FD100F08AF8FFF720FF00F088F82A
:100A1000072806D072B600F0EBF862B6FFF7CAFFFF
:100A2000F4E7124B00221A600B24124DFFF7C2FFAD
:100A3000013DFBD1013CF8D1FFF7BCFF72B60E4B74
:100A40001C70FEE772B60D4B1C60FFF7B3FF00236E
:100A50002B60226861684FF0FF339E469546084739
:100A6000002038BD0C90044000100000FC1F002046
:100A700046436274A08601000821074008ED00E0AB
:100A80000E4B06221A70C0F3074203F8012CC0F384
:100A90000722C0B203F8022C03F8030CCA781A71BB
:100AA0008A78DA704A789A700A785A70702203F855
:100AB000072C802203F8072C704700BF0700024074
:100AC000030610B522D500F0400303F0FF043BB14C
:100AD0000F4B0A221A700F4B0E221A70002213E0DD
:100AE00010F0300208D00A4B0A221A70094B082273
:100AF0001A70094B1C7009E010F0010007D0044B7C
:100B00000A201870034B1970034B1A70012010BD96
:100B100004ECFF1F31F9FF1F30F9FF1F7047000081
:100B2000014B1878704700BF04ECFF1FF0B5D418D4
:100B3000B4F5806F059E01D88C4205D9254B0A2259
:100B40001A700822244B20E0244D2A4400259D429F
:100B500003D0775D57550135F9E78C4238D11D4AEE
:100B60001D4B1578022D114605D0052D03D00A2105
:100B700011700F2209E01A4D2A78120602D5194F7A
:100B80003A782AB10A220A700E221A700020F0BDAB
:100B90001CB906220A701C701AE08402124804F57F
:100BA00080540460012611483E7009270770C4F381
:100BB0000747240AE4B200F8017C00F8024C00F870
:100BC000032C7020287080202870032008701A7071
:100BD0000120F0BD04ECFF1F31F9FF1F2CF5FF1FB2
:100BE0000000024030F9FF1F28F5FF1F07000240F8
:100BF00070B5174B174D18782B78012BC0B202D067
:100C0000022B0FD070BD0421FFF75AFFF0B9022369
:100C10002B70114B11491860114BBDE870401868DA
:100C2000FFF72EBF0721FFF74BFF78B90A4E346854
:100C3000B4F5806F09D20A4B084918682144204452
:100C40000434FFF71DFF346070BD287070BD00BF15
:100C50000000024030F9FF1F2CF9FF1F2CF5FF1F89
:100C600028F5FF1F70B5154D154E2B78032B044644
:100C700015D3042B07D9062B11D107232B704FF462
:100C80007A7333600BE0FFF7B3FF2B780A2B06D0A3
:100C90000C4B1B780BB9052300E004232B700A4B87
:100CA0001B782370336863701A0A1B0CE3702B786F
:100CB00023710023A2706371012070BD04ECFF1F3B
:100CC00008ECFF1F30F9FF1F31F9FF1F084B1A789E
:100CD0000A2A084A05D10221197000231370012045
:100CE00070470A2119700F2313700020704700BF4E
:100CF00004ECFF1F31F9FF1F034B02221A70034B54
:100D000000221A700120704704ECFF1F31F9FF1F09
:100D10000001000054EBFF1F120000000002000061
:100D20007EEBFF1F1B0000000003000000ECFF1F14
:100D3000000000000103000066EBFF1F0000000040
:100D400002030000D4EBFF1F00000000EE030000D0
:100D50009AEBFF1F000000000000000000000000F0
:100D6000000000001201000200000040501DA960B8
:100D7000000101020001180342006C0069006E00CE
:100D80006B0069006E006C00610062007300090274
:100D90001B0001010280320904000000FE01020272
:100DA00009210D1027000401010012034D0053001A
:100DB000460054003100300030007E002800000062
:100DC000000104000100000000000000000157497C
:100DD0004E555342000000000000000000000000DB
:100DE000000000002C0350004F005600500065002A
:100DF0006E00640061006E007400200042006F000D
:100E00006F0074006C006F00610064006500720088
:0C0E1000040309040200000001000000BF
:10100000FC1F00209911000055110000551100002F
:101010005511000055110000551100006511000028
:1010200065110000651100006511000055110000F8
:101030005511000065110000551100005711000006
:101040005511000055110000A1320000551100009B
:1010500055110000551100005511000055110000F8
:1010600055110000551100005511000055110000E8
:1010700055110000551100005511000055110000D8
:1010800055110000551100005511000055110000C8
:1010900055110000551100005511000055110000B8
:1010A00055110000551100005511000055110000A8
:1010B0005511000055110000551100005511000098
:1010C000551100005511000055110000451D00008C
:1010D0005511000055110000551100005511000078
:1010E0000113000055130000E1130000A1140000DB
:1010F000291500005511000010B5054C237833B9AF
:10110000044B13B10448AFF300800123237010BDDA
:1011100060ECFF1F0000000048620000084B10B5A3
:101120001BB108480849AFF300800848036803B9B9
:1011300010BD074B002BFBD0BDE81040184700BF87
:10114000000000004862000064ECFF1F60ECFF1F1D
:1011500000000000FEE7024A136801331360704785
:1011600004EDFF1F08B50B4C2368580301D500F0B0
:10117000E9FD2368590501D5FFF7ECFF23681A053F
:1011800001D5FFF7E7FF2368DB04ECD5FFF7E2FFAB
:10119000E9E700BF3480044010B5134A134B1449EB
:1011A0008B4204D252F8041F43F8041BF7E7114B9B
:1011B000114A934203D2002243F8042BF8E70F4B65
:1011C0004BF67F321A60072243F8042C62B600F017
:1011D000EDFB0B4C0B4B9C4203D054F8043B98475F
:1011E000F8E701F011FBFEE74462000000E4FF1F96
:1011F00060ECFF1F60ECFF1FB806002014E000E069
:101200003862000044620000024A1368184410600B
:101210001846704700E4FF1FEFF313839BB9EFF309
:10122000108098B9EFF3058323B10F2B04D9084A36
:10123000985C01E04FF48070EFF311833BB198426A
:1012400028BF184670474FF0FF3070471846704768
:10125000F0E300E0084B4FF480721A604FF4007224
:101260001A604FF480621A604FF400621A604FF403
:1012700080521A60704700BF04E100E0212830B5B9
:1012800021D8042A1FD8DFE802F0070905030B0064
:10129000092306E00A2304E0082302E00C2300E00F
:1012A0000B23094A02EBC002546872B6226822F48A
:1012B0007022226042F08075044A45EA034342F8F6
:1012C0002010236062B630BD284900007CECFF1F6F
:1012D000094B03EBC0035A6872B6136823F0877397
:1012E00023F4803343F080731360044B002243F8EF
:1012F000202062B6704700BF284900007CECFF1F29
:10130000124B10B51C681C60E00404D5104BDA6861
:101310000AB1DB689847A10404D50D4B1A690AB1DC
:101320001B699847A20604D5094B1A6E0AB11B6EB9
:101330009847E30608D5064BD3F8842022B1D3F8AA
:101340008430BDE81040184710BD00BFA090044095
:101350007CECFF1F204B10B51C681C60E00304D51B
:101360001E4B1A680AB11B689847A10304D51B4B92
:101370005A680AB15B689847E20704D5174B1A6CA4
:101380000AB11B6C9847A30704D5144B5A6C0AB1D9
:101390005B6C9847200704D5104B9A6C0AB19B6C84
:1013A0009847610704D50D4BDA6C0AB1DB6C98479E
:1013B000220304D5094B5A6E0AB15B6E984763034A
:1013C00008D5064BD3F8802022B1D3F88030BDE891
:1013D0001040184710BD00BFA0A004407CECFF1FC8
:1013E0002D4B10B51C681C60200704D52B4B5A6A86
:1013F0000AB15B6A9847E10604D5284B9A6A0AB19C
:101400009B6A9847620604D5244BDA6A0AB1DB6A04
:101410009847230604D5214B1A6B0AB11B6B9847DA
:10142000A00604D51D4B5A6B0AB15B6B9847E107C8
:1014300004D51A4BDA6B0AB1DB6B9847A20704D5C7
:10144000164B9A6D0AB19B6D9847630704D5134BF1
:10145000DA6D0AB1DB6D9847A00504D50F4BDA6E43
:101460000AB1DB6E9847E10504D50C4B1A6F0AB13F
:101470001B6F9847620504D5084B5A6F0AB15B6F22
:101480009847230506D5054B9A6F1AB19B6FBDE8A7
:101490001040184710BD00BFA0B004407CECFF1FF7
:1014A0001F4B10B51C681C60E00704D51D4B9A68E3
:1014B0000AB19B689847210604D51A4B5A690AB1AC
:1014C0005B699847E20604D5164B9A690AB19B6995
:1014D0009847630704D5134BDA690AB1DB6998476B
:1014E000200704D50F4B1A6A0AB11B6A9847A10757
:1014F00004D50C4B9A6B0AB19B6B9847A20604D596
:10150000084B1A6D0AB11B6D9847630606D5054B4B
:101510005A6D1AB15B6DBDE81040184710BD00BF91
:10152000A0C004407CECFF1F0A4B10B51C681C6077
:10153000A20704D5084B9A6E0AB19B6E9847E30741
:1015400006D5054BDA6F1AB1DB6FBDE810401847BE
:1015500010BD00BFA0D004407CECFF1F014B1868F9
:10156000704700BF00D00340044B054900221A60B9
:101570000A60044A106010221A60704714D00340B9
:1015800004D0034000D0034000280EDB03024FF4D8
:101590008072B3F5004F06D3013A012AA3EB000194
:1015A00001D00B46F5E71B0A10E0404203024FF45E
:1015B0008072B3F5014F06D3013A012AA3EB000173
:1015C00001D00B46F5E71B0AC3F58073013A43EAE5
:1015D0000223014A136070470CD0034018B1102851
:1015E00028BF102000E00120014B1870704700BF99
:1015F00004E4FF1F10B500234FF437721A419142E3
:1016000002D80133072BF7D1154A1A4102EB5102D8
:10161000B2FBF1F14FF6FF720139914228BF11463A
:10162000C21E012A06D80F4A0F4C0020106020600D
:101630000E480FE0421F012A06D9A0F10902012A33
:1016400002D91438032809D8094A0A4C002010602E
:1016500020600948016043F00803136010BD00BF1B
:10166000006CDC02009003400490034008900340AB
:10167000008003400480034008800340212810B507
:1016800018D80D4B53F8302092F880423CB101231A
:1016900011B182F8803010BD82F8003110BD03EB2B
:1016A000C0035B681A6811B142F0030201E022F046
:1016B00002021A6010BD00BF2849000021289FBF08
:1016C000044B53F8303093F80002C0B288BF0020BA
:1016D000704700BF28490000212816D80B4A02EBAA
:1016E000C00301295B6852F8302004D182F88012CF
:1016F0004FF4A27208E0002082F8800211B94FF482
:10170000807201E040F203121A607047284900001D
:1017100070B53A4B1E7801250029044605FA06F3F8
:1017200001DC002102E0994205D32946FFF7A6FF1C
:10173000204629465EE0C21ED3B2012B94BF304B37
:10174000304B1B6803FB0113F340142A49D8DFE830
:1017500002F00B11171D48482329484848484848BB
:101760004848482F353B4100274A13604FF45172D7
:10177000264B34E0264A13604FF45172254B2EE07D
:10178000254A136040F24442244B28E0244A136067
:1017900040F24442234B22E0234A136040F2444289
:1017A000224B1CE0224A136040F24442214B16E0D7
:1017B000214A136040F24442204B10E0204A13605B
:1017C00040F244421F4B0AE01F4A136040F2444279
:1017D0001E4B04E01E4A13601E4B40F244421A6046
:1017E00070BD7F292046D4BF00210121FFF746FFAD
:1017F00020460121BDE87040FFF76EBF04E4FF1FE3
:10180000089003400880034010900340309004404B
:101810001890034034900440488003401CC00440AA
:101820003080034010C00440208003400CB00440CE
:101830002880034010B004403880034014C00440A6
:101840004080034018C004401080034004B00440AE
:101850001880034008B004402DE9F04180460E4650
:1018600017460825012404EA07014046FFF706FF52
:1018700030460121FFF702FF30460021FFF7FEFE50
:101880006400013DE4B2EED1BDE8F0812DE9F04104
:1018900080460E4617460824802505EA0701404683
:1018A000FFF7ECFE30460121FFF7E8FE304600214D
:1018B000FFF7E4FE013C4FEA5505EED1BDE8F081AB
:1018C00012B91A46FFF7C8BF1A46FFF7DFBF2DE966
:1018D000F04180460F4608260025012438460121A4
:1018E000FFF7CCFE4046FFF7E9FE00B1254338463E
:1018F0000021FFF7C3FE6400013EE4B2EED12846AA
:10190000BDE8F0812DE9F04180460F46082500240E
:10191000802638460121FFF7B1FE4046FFF7CEFE94
:1019200000B1344338460021FFF7A8FE013D4FEADD
:101930005606EED12046BDE8F0810AB9FFF7C7BFD1
:10194000FFF7E0BF72B60C4B0C4A0D491B68D2F88A
:101950008820096862B6490102D5322B88BF01325E
:10196000C3F53B4330207F33B3FBF0F34FF47A7081
:1019700000FB0230704700BF18E000E07CECFF1F66
:1019800004ED00E038B50446FFF7DCFF054664B11E
:10199000FFF7D8FF401BB0F57A7F03D3013C04D09A
:1019A00005F57A7500F00EFFF2E738BD10B5FFF7C8
:1019B00051FC124B124A134C00204BF6FF71186079
:1019C00059602823136093601361936113629362DB
:1019D000136393630922226004F580540434206069
:1019E0000948016009490B608B60094B04201A60AB
:1019F000FFF7C8FFBDE8104000F0D0BC04800340F2
:101A00000C80034000800340089003400C9003408A
:101A10000090034070B50646C1EBC10433782BB18A
:101A2000013CFBD1002070BD013CFBD03378002B82
:101A3000FAD0FFF787FF0546337813B1013CFBD19D
:101A4000F0E7FFF77FFF401B70BD70B50646C1EBA6
:101A5000C10433782BB9013CFBD1002070BD013C9F
:101A6000FBD03378002BFAD1FFF76CFF05463378B3
:101A700013B9013CFBD1F0E7FFF764FF401B70BDD9
:101A800021280BD8064B53F8300000F5007011B137
:101A90001146FFF7BFBF1146FFF7D7BF00207047C1
:101AA00028490000164B84B01B680393154B1B6834
:101AB0000293154B1B680193144B1B680093144B46
:101AC00000221DF8021001324B401249102A01FB7E
:101AD00003F3F6D101220DEB02011A2011F8011CCB
:101AE0004B400C494B43B3FBF0F100FB11310A486A
:101AF000413120F812100132112AECD104B07047A4
:101B000054800440588004405C800440608004405D
:101B1000C59D1C819301000172E4FF1F70B50C4B41
:101B20000C4D1A7842F0020605EBC60482F0010261
:101B3000606058781A70002814BFC824882480F088
:101B4000010044EA0141587045F8361070BD00BFED
:101B500008EDFF1F00E0FF1F08B5044B5B681BB1D9
:101B600000F032FE0028F8D108BD00BF08EDFF1FCD
:101B70000138032807D8054B03EB8000406800308C
:101B800018BF012070470020704700BF08EDFF1FFD
:101B9000431E032B10B50ED8084A02EB830250688F
:101BA00050B1416851600649048831F81320121B76
:101BB00021F8132010BD002010BD00BF08EDFF1F4D
:101BC000A8060020431E032B10B510D872B6094A90
:101BD00002EB8302506840B14168516006490488B5
:101BE00031F81320121B21F8132062B610BD00201B
:101BF00010BD00BF08EDFF1FA80600200138032814
:101C00000CD8074B03EB8000436972B600201BB170
:101C10001A885B681044FAE762B670470020704784
:101C200008EDFF1F013803280BD872B6064B03EBF3
:101C300080004369002013B101305B68FBE762B6A6
:101C400070470020704700BF08EDFF1F10B572B647
:101C50000123184A1A4412F8012C12071ED59A00C3
:101C6000154951F832402CB901EB43130830586044
:101C7000124B09E042F0010251F8324074B901EB15
:101C8000C203083058600E4B41F832300D4A92F8CA
:101C90002430013B82F8243062B610BD0133052B9D
:101CA000D7D162B6074B002283F82420BDE810404C
:101CB00000F0DEBB384A000000E0FF1F8800400053
:101CC000C800400008EDFF1F431E032B10B533D89A
:101CD0001A4A400140F01000104472B6184AD41855
:101CE00094F82540032C0BD8DFE804F01504020714
:101CF000052411E0083002240EE0083004240BE033
:101D00009B00D01844690CB9416101E0C06A416090
:101D10001344D9620FE00324134410F0080F0A881B
:101D200083F8254001F10803436014BFC8238823CA
:101D300043EA0243036062B610BD00BF00E0FF1F2C
:101D400008EDFF1F2DE9F74FB64E3478E4B214F0DA
:101D5000040F354610D0B44B93F8443053B1B34A16
:101D6000117801F0FF0329B1013BDBB213700BB90D
:101D700000F0CCFC0423337004F0080303F0FF01EF
:101D8000002B00F0B482AA4BAA4F1A78D2B21309E2
:101D90004FEA920540F01A8207EBC503596857F8DD
:101DA0003530C3F38303013B0C2B00F20B82DFE8D9
:101DB00013F0CC01CC01090209020902090209024F
:101DC0000902E2010902090209020D000A68964CA3
:101DD0004B68A264E36492B2974B47F8353040F207
:101DE000A15000230121824223653B61BB616170E8
:101DF000254600F063811DD8B2F5817F00F0EF80A9
:101E000009D8802A00F0D480822A00F0D680212AC6
:101E100040F065815CE140F2A130824200F03A81FD
:101E2000B2F5A06F00F05F8140F202339A4200F0F9
:101E3000E78054E1B2F5106F20D00FD8B2F5D06F23
:101E4000C0F04D8140F281639A4240F20981B2F5BF
:101E5000086F40F0448194F8443035E142F221218A
:101E60008A4200F0128142F221339A4200F03B8113
:101E700042F221039A4200F0658130E194F84A2051
:101E800084F84420984607EB08031A6A120603D523
:101E9000586A083800F0ECFA08F10808B8F1800F29
:101EA000F1D1DFF8B4A14FF00009DFF8B08158F8A4
:101EB00029004FEA890B30B14368019300F0D8FA4A
:101EC000019B1846F7E75D4B48F80B00A3F140086B
:101ED0004BF803005BF8080030B14368019300F051
:101EE000C7FA019B1846F7E7554B48F80B004BF82B
:101EF0000300544B23F819009AF80030023B032BDF
:101F000008D8DFE803F002040204002300E0012304
:101F10008AF8003009F10109B9F1040F0AF1010A48
:101F2000C3D1002384F824304FF00108464A474BC0
:101F30004244434412F8012C9B0012F0080F1A701F
:101F40004FEA880925D000F075FA38B107EB48133D
:101F5000083058603E4B47F8393006E095F8243099
:101F600047F83900013385F8243000F063FA49F06E
:101F7000010338B107EBC302083050602E4A47F81E
:101F8000332006E047F8330095F82430013385F814
:101F9000243049F00202002347F8323008F10108EA
:101FA00049F00302B8F1050F47F83230BED19BE08B
:101FB00084F83C3084F83D3098E0B4F84C20042A92
:101FC00000F28D8084F83C3084F83D309200214B43
:101FD0009B5C9F0740F18A8084F83C1086E0B4F84F
:101FE0004C2002F07F03042B79D8B4F84A30002B40
:101FF00075D19100174A0A44117821F0020147E097
:10200000B4F84C2002F07F03042B68D8B4F84A30AF
:10201000002B64D191000F4A0A44117841F002016B
:1020200036E000BF8020074008EDFF1FFDEDFF1FD9
:102030009020074000E0FF1FC80040005CEDFF1F3C
:1020400034EDFF1FA8060020384A000030C80110F8
:1020500088004000C02007402DEDFF1F0CEDFF1F42
:10206000B4F84A20B4F84C10B14B5D68BDB3188881
:10207000904208D15888884205D1120A032A0CBF21
:102080002B781B8934E00C33EFE794F84A10A94A07
:10209000117029E0B4F84C20032A20D194F8642070
:1020A00084F83C3084F83E3084F83F3084F8413086
:1020B00084F83D1084F84020062318E0B4F84C3032
:1020C000032B0CD194F8643084F83C300B460EE0BE
:1020D000B4F84C20032A02D184F8641004E0964B33
:1020E0000F221A702EE000231D4601E002233C352A
:1020F000B4F84E709F4228BF1F46402FB84628BFF5
:102100004FF0400828464146FFF708FDB7EB0807A7
:10211000454404D1B8F1400F14D1B84604E0402F33
:10212000B84628BF4FF0400828464146FFF7F6FC66
:10213000B7EB0807454402D1B8F1400F02D125653D
:10214000A4F8667001227D4B3BE07D4BB3F848203C
:1021500042F221039A420AD100237A4AC85C985479
:102160000133072BF9D100200146FFF7D7FC764B4E
:1021700047F8353026E0724DD5F85080B8F1000FA1
:1021800013D0B5F86640402C274628BF402740466C
:102190003946FFF7C3FCE01B80B2A5F8660008B91A
:1021A000402F01D108EB07002865B5F84820644BA3
:1021B000B2F5A06F06D1002283F8492093F84A2097
:1021C000624B1A705D4B01221A708DE007EBC50857
:1021D000013BD8F8041002F00802DCB2A1F10800BB
:1021E00002F0FF03002A44D000F042F9544B03EB05
:1021F000840E1819DEF8142022B35168CEF814109A
:1022000002F10801C8F8041090F82510032910D82D
:10221000DFE801F00205080B2344032107E0234413
:10222000022104E02344052101E02344042183F832
:10223000251018F0080F128814BFC823882343EA1A
:1022400002434FE090F82520032A09D8DFE802F086
:102250004C4C02052344002208E02344012205E0FF
:1022600018F0080F14BF03220222234483F825200C
:102270003AE057F835204FEA124E21F808ECBEF14B
:10228000000F29D02E4A21F8063C41F8043CA30057
:1022900002EB030CDCF8041011B9CCF8040002E0E6
:1022A000DCF8541048601344294A586532F8143059
:1022B000DFF88C909E4422F814E000F0BBF818B1CF
:1022C0000830C8F8040007E099F8243047F83500D2
:1022D000013389F8243007E01E4A1B4B18F0080F21
:1022E00008BF134647F83530082333702CE5E00764
:1022F00038D5134A114C174E10460223237000F8AC
:10230000681B154BA8321E60DA6058609E60196128
:102310009961094B0D221A70104AFF2313702B701C
:10232000117413710E4B9F221A70012323702EE03B
:102330003C4A0000FEEDFF1FC020074094200740EC
:1023400008EDFF1FB0060020C8004000982007409D
:10235000A80600208800400000E0FF1F88200740FA
:1023600084200740210641BF0A4B0D221A708023AA
:1023700048BF2B70A20741BF074A1378DBB2137026
:1023800044BF02232B70E30644BF10232B7003B01D
:10239000BDE8F08FC02007408820074008B5FFF750
:1023A00081FB00221D4B0021D15098180832882A49
:1023B0004160F7D11A490A6842F480220A60194A3A
:1023C00080211170107817490006FBD4164AC3F318
:1023D00007201070C3F307401B0E10751376FF2300
:1023E00002F81C3C02F8143C02F88C3C0B7843F0D9
:1023F00040030B700123002102F8083C82F86410AE
:1024000002F8183C094B70221A70A3F21F330822FD
:102410001A60074B10221A7008BD00BF00E0FF1FB2
:10242000348004400C2107409C20074023E400E056
:102430000821074010B572B60B480268B2FA82F163
:102440000B2902DD62B6002010BD4FF00043CB40E7
:1024500022EA0302026062B6044C48234B43E018B0
:102460000022E250426010BD68E5FF1FA0E0FF1FA0
:102470000C4B4822C31AB3FBF2F30B2B10D80A4AB9
:10248000127822B1094A12780AB1FFF7DFBB72B69F
:1024900007494FF00042DA400B6813430B6062B605
:1024A000704700BFA0E0FF1F2CEDFF1F4CEDFF1F8A
:1024B00068E5FF1F10B5104C23686BB12068438896
:1024C0005A1C03441C7A03889A4212D3FFF7D0FFA8
:1024D000094B00221A600DE0084B1B7813B94FF02E
:1024E000FF3010BD0320FFF76DFB20600028E5D111
:1024F000F5E74280204610BDF0EDFF1F4CEDFF1FB9
:1025000010B50B4C236813B122686AB902E0094B7D
:102510001B7813B94FF0FF3010BD0320FFF752FBBB
:1025200020600028F0D1F5E753881344187A10BDD5
:10253000F0EDFF1F4CEDFF1F044B9888044B1A6809
:102540001AB1138852889B1A18447047A8060020B5
:10255000F0EDFF1F2DE9F04180460E46002776B3CF
:10256000184B1B785BB3184C236825464BB90320E6
:10257000FFF728FB286010B3038813B9FFF778FF33
:10258000F5E7256869882C88641AB44228BF344668
:10259000083140462246294402F066F86B88A04480
:1025A0002744361B1C442B88A4B2A3426C80D6D887
:1025B0002846FFF75DFF044B00221A60CFE738463C
:1025C000BDE8F0814CEDFF1FF0EDFF1F10B5094B8A
:1025D0001B786BB1084C206818B1FFF749FF002346
:1025E00023600320FFF7EEFA10B1FFF741FFF8E791
:1025F00010BD00BF4CEDFF1FF0EDFF1FF8B5294CDB
:10260000012307460D462371002D47D0A3680BBB5D
:1026100047F20956244B1B7803F0FF020BB92271D5
:1026200012E00420FFF7FEFA072807D801232371E0
:10263000FFF700FFA06068B91A4B1871013E01D086
:10264000237B23B1012323734FF0FF30F8BD00F04B
:10265000B9F8DFE7A1684A8800232373C2F1400379
:10266000AB4228BF2B46D0180A444880ED1A0732E7
:10267000FE18B74204D017F8013B02F8013FF8E713
:102680004B883F2B06D940230B800420FFF71CFB0F
:102690000023A360052363733746B5E725712846F9
:1026A000F8BD00BFF0EDFF1F4CEDFF1F07B502ABFB
:1026B000012103F8010D1846FFF7A0FF03B05DF8F4
:1026C00004FB70B50F4B1B78D3B10F4CA5680126E6
:1026D00026714DB100266B88667304202B80294635
:1026E000FFF7F2FAA66009E0FFF7A4FE014620B169
:1026F00004206573FFF7E8FA00E066730023237196
:1027000070BD00BF4CEDFF1FF0EDFF1F38B50D4C45
:10271000237903F0FF059BB9A16831B14B880B8089
:102720000420FFF7D1FAA56038BDFFF783FE01460C
:1027300020B10420BDE83840FFF7C6BA0123637317
:1027400038BD00BFF0EDFF1F30B5A0F1080300F168
:10275000300200240025E3E902459342F9D1002329
:10276000836330BD816B10B54C1C072C00EBC1019D
:102770008463C1E9002304BF0023836310BD2DE9F6
:10278000F8430F4D846B804605F138090026002779
:102790000CB1013C00E0062408EBC403D3E90001BE
:1027A000F5E9022301F004FA02460B4630463946A9
:1027B00001F04CF84D4506460F46E9D1BDE8F883D7
:1027C000B04A00007047FFFF014800F05DBE00BF47
:1027D00000EEFF1F0B4B4CF220521A804DF62812D0
:1027E0001A8000BF00BFD32223F80E2C00221A81CA
:1027F0004FF4B77223F80A2C4FF4585223F8082CE0
:10280000704700BF0E20054037B5FFF7E3FF2D4DA1
:1028100000F0B6F82C4800F065FA2C4800F0DAF821
:102820002A48296800F0D4F800F07CFD00F0DAF9BD
:102830000024274B1B784BBB72B6264B4AF2026230
:102840001A804BF280421A8062B61F4800F062FA8A
:102850001E48002100F006F900F02CFC1A4800F098
:102860007DFA0028E5D0184800F083FA10F0FF0F39
:10287000DFD10134032394FBF3F303EB4303E41AA6
:10288000124855F8241000F0A3F8D2E7124B134A6F
:102890001A60134B1A680192019A0A321968009162
:1028A0000099914209D272B60A494AF20260088040
:1028B0004BF28040088062B6F0E772B6094B002206
:1028C0001A70FEE76CE5FF1F34EEFF1F6001002069
:1028D0006CEDFF1F0C200540FC1F00204643627476
:1028E00004EDFF1F08210740F7B51A4C1A4E0A25C0
:1028F0000095324604F140005E21002300F06DFA9D
:10290000009506F6043204F557703621002300F0D6
:1029100064FA04F10C073221104A0095002304F5F3
:10292000CF6000F05AFA04F11406384600F018F8A7
:1029300004F11C05304600F013F8284600F010F8AA
:1029400004F1240000F00CF827606660A56003B075
:10295000F0BD00BF00EEFF1FF04A0000485C000021
:1029600010B50446FFF766FDC31D00F147020021C4
:1029700003F8011F9342FAD12060204610BDFFFFEB
:10298000044B40F207121A60034A136823F008034D
:10299000136070470C90044014F00F40034B18680C
:1029A00080F00800C0F3C000704700BF10F00F4077
:1029B00010B5064C04F10C032046211D04F1080259
:1029C00000F0DEFE0123237410BD00BFA0F7FF1F3F
:1029D0004161704738B51B4C002300258360C360FC
:1029E00004F118006561FFF7AFFE174A1749136835
:1029F00043F000731360164B04221A60154A4FF619
:102A0000FF7015600860116841F00F0111601A68CD
:102A100042F002021A60104A136843F08003136008
:102A200029460920FEF758FE092002220B49FEF72D
:102A300025FC0B4BF0221A702046BDE8384000F010
:102A400031BE00BFA0F7FF1F3C8004400890034048
:102A5000549003400090034058900340B129000077
:102A60002AE400E02DE9F3414B4D0446286801F0CB
:102A700029F847A3D3E9002301F09AF801F0AAFA54
:102A800000232B60454D2A7C074632B368682060DE
:102A90002B7401F039F802460B4605F11800FFF7D8
:102AA00061FE05F11800FFF76AFE01F093FAA96DC7
:102AB000064601F0E3FA0021804601F0A5FD08B1C9
:102AC000012308E04046002101F080FD10B14FF0E5
:102AD000FF3300E0EB6D2361AE652669EB6D9E422E
:102AE0000DD00023002EA36001DAE36007E06369E4
:102AF0009868782390FBF3F001F076FBE0602168A2
:102B0000EE65384601F0C4FBA16801F0B9FA394618
:102B1000A06001F0BDFBE16801F0B2FA2049E0607D
:102B200001F0B6FB01F07AFD011E1BDB60698368D2
:102B3000994217DA00F023FA0025074605EB450411
:102B40003C440026A17822786378009128463146DB
:102B500000F026FA0F340EB90126F3E70135052DF2
:102B6000ECD112E000240025204629462A462B46B7
:102B7000009500F015FA2046009501212A462B46C3
:102B8000013400F00DFA052CEDD102B0BDE8F08162
:102B9000358A38DF807DD13E04900340A0F7FF1FC7
:102BA0000000F042AFF3008000207047014B01208D
:102BB0001870704794F7FF1F00207047002070477F
:102BC00000207047002070470020704700207047A9
:102BD0000020704700207047002070470020704799
:102BE00000207047044B01221A6000225A609A604C
:102BF000DA601A61704700BF7801002010B5FFF756
:102C000059FCC0B2FF280F4B4FF000020ED059689C
:102C1000DA604C1C1944022C5C60087511DD5A60A6
:102C20009A68092A0DDC01329A6010BDD9685A6091
:102C300001310829D960C8BF02219A60C4BF196058
:102C40001A6110BD7801002038B5FFF733FC1C4B2A
:102C50001A69C0B20AB9FF2831D0511C1A4419614F
:102C6000D075D87D174B1A78FF2A03D1BDE83840BC
:102C7000FFF7B8BF824220D15A6891421FDB104C47
:102C80009B6804F118009847054660B15020FFF793
:102C90000DFD207EFFF70AFD217E04F119000131B0
:102CA000FFF7ACFCE2E74620FFF700FD2846FFF700
:102CB000FDFC2846FFF7FAFCD8E70C33D3E738BD14
:102CC0007801002078E5FF1F054B1B68012B03D01E
:102CD000022B03D1FFF7B8BFFFF790BFFFF782BF0A
:102CE00078010020034B40F207121A6001230360B1
:102CF000436070470C900440044A136823F00803B3
:102D00001360034B1868C0F3C000704714F00F4005
:102D100010F00F4038B543680F4D012B04460FD01B
:102D2000FFF7EAFF636805EB43035B78984205D140
:102D3000A368B3F5FA7F0DDA01330AE0012363607B
:102D40002878FEF7BBFC6B78834203D100236360D5
:102D50002360A36038BD00BF940100200368012BED
:102D600005D08068A0F5FA7358425841704700209A
:102D700070470346012200681A6070470022826093
:102D80000260027342600261704710B50373023B38
:102D90008160012B9DF80810026041601AD812F87A
:102DA000013B8361032404FB030300F11C011F3377
:102DB0000331994202F103020CD012F8034C01F8DE
:102DC000034C12F8024C01F8024C12F8014C01F8C5
:102DD000014CEDE70023036110BD37B59DF8185095
:102DE00000950446FFF7D1FF00232046236103B07E
:102DF00030BD0023036170470269436810B5534337
:102E0000026803EB430313444361002342685C1CE4
:102E1000DBB293420CDA426903EB43031278CA54E3
:102E200042695278CA5442699278CA542346EDE7FF
:102E300010BD0369F0B50BB9036843610025436811
:102E40009D4227DA43695A781E789B7806F07F0600
:102E500003F0E004DB00DFB2731C02F0F80E2B4439
:102E6000520142EAD40403EB430305EB4502E4B20A
:102E70000A440B4403329A4206D002F803EC02F8EB
:102E8000024C02F8017CF5E7436935440333EDB2A7
:102E90004361D4E7F0BD836970B503EB4302446836
:102EA000036904FB032302680133134443610023D5
:102EB00042685C1CDBB293420EDA466903EB4302C4
:102EC000F35C03EB430303448D1833F81C6F8E52FD
:102ED0009B78AB702346EBE770BD03692DE9F041A9
:102EE00033B98369026803EB43030133134443613D
:102EF000002243689A4220DA43695C1C44611C4604
:102F000002EB420514F8026B44615F780D44002423
:102F1000E3B2B3420FD207EB4703034404EB440E82
:102F200033F81C8F25F80E8005EB0E0C9B788CF87F
:102F300002300134ECE73244DBE7BDE8F081037B8B
:102F400010B50446032B0ED8DFE803F00205080B8A
:102F5000FFF752FF07E0FFF76CFF04E0FFF79BFF6E
:102F600001E0FFF7BAFF2369A168013393FBF1F297
:102F700001FB1233002BC8BF0023236110BD037B6C
:102F800002682BB94368594301EB4101501870475F
:102F900010467047014B1878704700BF9801002019
:102FA00004280DDC01290BDC01EB810108440549F3
:102FB00000EB4000084483709DF800304270C370FD
:102FC000704700BF98010020004870479901002019
:102FD00008B5014601F05CF9014B186008BD00BF5F
:102FE00020E6FF1F2DE9F04F4FF0000985B0F023D8
:102FF00003FB09F301930026831910F806B05A78F1
:103000009B78029203930027294D029B16F805C076
:1030100035444BFA07F495F801E095F802A0019DBC
:103020004FF01E0808FB075804F00104022543FA7C
:1030300007F215FB0C8CA401039BE4B202F0010221
:1030400001F80C4015FB0E8E3B4192018C44D2B22C
:1030500003F0010344F020048CF8014015FB0A85BD
:1030600001F80E209B018E44DBB242F020028EF864
:10307000012001374B550D4443F02003082F6B709E
:10308000C2D103360F2EB7D10F30B9F1000F02D1E4
:103090004FF00109ABE701F5F0724B7843F02003E4
:1030A0004B7002319142F8D105B0BDE8F08F00BFFE
:1030B00024E6FF1F10B5054C23782BB9601C216A4C
:1030C000FFF790FF0123237010BD00BF980100207F
:1030D000174B18600420988040F20220D880996035
:1030E0001448154900230B604860A0F53B30A0F25E
:1030F000EA30013292B20B81CB604A8102800388B0
:103100006FEA43436FEA53439BB2038003889BB249
:1031100043F4007303804B896FEA43436FEA5343E0
:103120009BB24B814B899BB243F400734B81704738
:1031300000900040088003400C900040174B18603E
:103140000420988040F20220D880996014481549E4
:1031500000230B604860A0F53B30A0F2DA3001326A
:1031600092B20B81CB604A81028003886FEA4343AD
:103170006FEA53439BB2038003889BB243F480639E
:1031800003804B896FEA43436FEA53439BB24B8101
:103190004B899BB243F480634B8170472090004081
:1031A000188003402C900040194B10B51860012086
:1031B00098801848184C00230380C0F80210174963
:1031C00000F576207A300B604860A0F576206238F2
:1031D00092B20B814A81028023604A810280038877
:1031E0006FEA43436FEA53439BB2038003889BB269
:1031F00043F4C06303804B896FEA43436FEA534350
:103200009BB24B814B899BB243F4C0634B8110BD91
:103210004090004046900040589000404C90004044
:103220000A4B186001209880094800230380C0F8E9
:103230000210084900F5762092B21A300B604860FF
:103240000B814A814A82044A1360704760900040B3
:10325000669000406C9000407890004010B50E4C95
:10326000042104F124001022FFF732FF04F164006E
:1032700004211022FFF762FF04F1A4000A211022AA
:10328000FFF792FF1022D4F844011E21FFF7C8FF78
:10329000024B03221A7010BD980100201D800040CF
:1032A000074B02221A70074B1A783AB1D3F844211F
:1032B000196A1A620022C3F844111A70FFF7CEBFD0
:1032C0001F80004098010020114B04221A60114A0F
:1032D00000211160104940F2FF200860116841F0A0
:1032E000090111601A6842F002021A60652243F86F
:1032F000402C4FF4007243F83C2C084A136843F00A
:1033000080031360064B4FF451721A60704700BF80
:1033100054800340008003400880034058800340ED
:103320001090044038B506200121FEF7D5F914208D
:103330000121FEF7D1F90B200121FEF7CDF90D2077
:103340000121FEF7C9F915200121FEF7C5F9212059
:103350000121FEF7C1F9434B0022002A14BFAF2020
:103360009F200021585401310A29FBD1EF2101325D
:103370001972082A4FF0AF01597203F10A03ECD118
:10338000394B0022002A14BF9F20AF20002158543F
:1033900001310A29FBD1DF2101321972082A4FF0CD
:1033A0009F01597203F10A03ECD1002210242F4B24
:1033B000A3F1400004F1500143F8224040F82210EC
:1033C0000132082A4FEA44041946F0D100221023A2
:1033D000062A3ED094000D1904442B6203F15005D7
:1033E00025620132082A4FEA4303F1D1204A214DD8
:1033F000136843F0020313601F4B00241C60DC764B
:1034000003F582531C3302221A801C4B04221A60DB
:103410002B6843F002032B60194B99221C701A7021
:10342000FFF71CFF2B6843F080732B60FFF74CFF06
:10343000144B03F5A472C3F8442103F54A702146E6
:103440000A2218621C7001F0A9F9BDE83840FFF7A4
:1034500031BECF2BBEDC0B4C4FF49075C4F89C30C2
:10346000E565BEE73C0200208C020020FC01002044
:10347000408004403C8004400080004000E100E0C7
:103480000010024098010020F8B51D4C2368054645
:103490005BB120681A4F067A16F0C00312D0802B59
:1034A00023D1437A85F82C301FE0164B1B7813B9D3
:1034B0004FF0FF30F8BD0120FEF76AFB20600028C6
:1034C000E7D1F5E795F82E20BAB9AB68F20602BF4E
:1034D0001A6818601046FEF7CBFF00232360B3067E
:1034E00007D5012385F82E3003E0FEF7C1FF002346
:1034F0003B60012085F82D00F8BD1846F8BD00BFDF
:10350000A00600204CEDFF1F064983680968026889
:1035100082B00191019959604168826080E80A0097
:1035200002B0704704EDFF1F38B590F82E3000252B
:10353000044680F82D503BB1FFF7E6FF012084F8E8
:103540002E5084F8300038BD184638BD90F8300051
:103550007047436A024A5B895B081380704700BF6B
:1035600096F7FF1FFFFFFFFF064B1A7802F0DF02FE
:103570001A701A7802F0EF021A70034B1B789B0640
:10358000FBD470470260064003600640074A136898
:1035900043F040031360064B1B221A7080225A70BE
:1035A000044A4FF400731360536070473480044042
:1035B0000160064000A00440044B1A789207FBD536
:1035C0001A7842F002021A70704700BF036006408A
:1035D000064B1A7842F010021A701A78490042F02D
:1035E0002002C9B21A709970FFF7E6BF0260064068
:1035F00001B1B9E7024A137843F00403137070472E
:1036000002600640014B1970FFF7D6BF0460064008
:1036100038B503680546EBB1022BDFBF0E4A1378BD
:1036200043F0080313700368012B06D1FFF79CFFDA
:10363000094A137803F0F7031370084B1C782B68C2
:10364000012BE4B201DDFFF7B7FF2B68013B2B60D4
:10365000204638BD184638BD02600640046006406A
:10366000490038B541F00101094BC9B2197005464E
:103670001446FFF7A1FF074A137803F0EF03137016
:1036800001342C602846BDE83840FFF7C1BF00BFB9
:10369000046006400260064000680028D4BF002095
:1036A0000120704770B53348334CFFF76FFF1D2181
:1036B0003048FFF78DFF2B232370FFF77DFF40235A
:1036C0002370FFF779FFFFF74FFF0120FEF75AF94C
:1036D00028481D21FFF77CFF0D232370FFF76CFFA7
:1036E000264A2448137843F0040313701D21012255
:1036F000FFF7B6FF1F4D2B68002B284602DDFFF7B2
:1037000087FFF7E71D21FFF763FF0E232370FFF705
:1037100053FF02232370FFF74FFFFFF725FF2846D3
:103720001D21FFF755FF2D2323700126FFF744FFCE
:103730002670FFF741FFFFF717FF28461D21FFF70F
:1037400047FF2E232370FFF737FF2670FFF734FF64
:10375000FFF70AFF28461D21FFF73AFF2A232370AF
:10376000FFF72AFF03232370FFF726FFBDE8704011
:10377000FAE600BFA406002004600640026006408E
:10378000F8B52B4C0F4620461D2116461D46FFF767
:103790001FFF284B00221A70FFF70EFF264A1378EE
:1037A00043F00403137020461D210422FFF758FF45
:1037B0002368002B02DD2046FFF72AFF2368002B39
:1037C0000DDD1B48FFF724FF40B200F08BF916A374
:1037D000D3E9002300F0ECF900F0FCFB386023682B
:1037E000002B0DDD1248FFF713FF40B200F07AF90D
:1037F0000DA3D3E9002300F0DBF900F0EBFB306010
:103800002368002B0DDD0A48FFF702FF40B200F0ED
:1038100069F905A3D3E9002300F0CAF900F0DAFB47
:1038200028600120F8BD00BF9A9999999999E33FC2
:10383000A40600200460064002600640AFF300804A
:1038400081F0004102E000BF83F0004330B54FEA51
:1038500041044FEA430594EA050F08BF90EA020FBE
:103860001FBF54EA000C55EA020C7FEA645C7FEA51
:10387000655C00F0E2804FEA5454D4EB5555B8BF74
:103880006D420CDD2C4480EA020281EA030382EAE5
:10389000000083EA010180EA020281EA0303362D77
:1038A00088BF30BD11F0004F4FEA01314FF4801C4A
:1038B0004CEA113102D0404261EB410113F0004F5C
:1038C0004FEA03334CEA133302D0524263EB430313
:1038D00094EA050F00F0A780A4F10104D5F1200EB1
:1038E0000DDB02FA0EFC22FA05F2801841F100010C
:1038F00003FA0EF2801843FA05F359410EE0A5F1E0
:1039000020050EF1200E012A03FA0EFC28BF4CF010
:10391000020C43FA05F3C01851EBE37101F00045C6
:1039200007D54FF0000EDCF1000C7EEB00006EEBD3
:103930000101B1F5801F1BD3B1F5001F0CD349085D
:103940005FEA30004FEA3C0C04F101044FEA4452B4
:1039500012F5800F80F09A80BCF1004F08BF5FEA3B
:10396000500C50F1000041EB045141EA050130BD1B
:103970005FEA4C0C404141EB010111F4801FA4F1BE
:103980000104E9D191F0000F04BF01460020B1FA13
:1039900081F308BF2033A3F10B03B3F120020CDA4B
:1039A0000C3208DD02F1140CC2F10C0201FA0CF029
:1039B00021FA02F10CE002F11402D8BFC2F1200C8E
:1039C00001FA02F120FA0CFCDCBF41EA0C01904044
:1039D000E41AA2BF01EB0451294330BD6FEA04048D
:1039E0001F3C1CDA0C340EDC04F11404C4F1200278
:1039F00020FA04F001FA02F340EA030021FA04F38A
:103A000045EA030130BDC4F10C04C4F1200220FAE0
:103A100002F001FA04F340EA0300294630BD21FA1E
:103A200004F0294630BD94F0000F83F4801306BFE4
:103A300081F480110134013D4EE77FEA645C18BFD8
:103A40007FEA655C29D094EA050F08BF90EA020F6F
:103A500005D054EA000C04BF1946104630BD91EA67
:103A6000030F1EBF0021002030BD5FEA545C05D16A
:103A70004000494128BF41F0004130BD14F58004A9
:103A80003CBF01F5801130BD01F0004545F0FE411D
:103A900041F470014FF0000030BD7FEA645C1ABF52
:103AA000194610467FEA655C1CBF0B46024650EA89
:103AB000013406BF52EA033591EA030F41F40021B5
:103AC00030BD00BF90F0000F04BF0021704730B53B
:103AD0004FF4806404F132044FF000054FF0000110
:103AE00050E700BF90F0000F04BF0021704730B5D1
:103AF0004FF4806404F1320410F0004548BF4042A6
:103B00004FF000013EE700BF42004FEAE2014FEAFA
:103B100031014FEA02701FBF12F07F4393F07F4FD5
:103B200081F06051704792F0000F14BF93F07F4F07
:103B3000704730B54FF4607401F0004521F000414A
:103B400020E700BF50EA010208BF704730B54FF0D0
:103B500000050AE050EA010208BF704730B511F0D5
:103B6000004502D5404261EB41014FF4806404F10D
:103B700032045FEA915C3FF4DCAE4FF003025FEA8F
:103B8000DC0C18BF03325FEADC0C18BF033202EB17
:103B9000DC02C2F1200300FA03FC20FA02F001FA71
:103BA00003FE40EA0E0021FA02F11444C1E600BF10
:103BB00070B54FF0FF0C4CF4E06C1CEA11541DBFC3
:103BC0001CEA135594EA0C0F95EA0C0F00F0DEF88E
:103BD0002C4481EA030621EA4C5123EA4C5350EA73
:103BE000013518BF52EA033541F4801143F48013C4
:103BF00038D0A0FB02CE4FF00005E1FB02E506F055
:103C00000042E0FB03E54FF00006E1FB03569CF0A9
:103C1000000F18BF4EF0010EA4F1FF04B6F5007FAF
:103C200064F5407404D25FEA4E0E6D4146EB060621
:103C300042EAC62141EA55514FEAC52040EA5E50AA
:103C40004FEACE2EB4F1FD0C88BFBCF5E06F1ED854
:103C5000BEF1004F08BF5FEA500E50F1000041EB8B
:103C6000045170BD06F0004646EA010140EA020038
:103C700081EA0301B4EB5C04C2BFD4EB0C0541EA5A
:103C8000045170BD41F480114FF0000E013C00F36F
:103C9000AB8014F1360FDEBF002001F0004170BD93
:103CA000C4F10004203C35DA0C341BDC04F11404AC
:103CB000C4F1200500FA05F320FA04F001FA05F238
:103CC00040EA020001F0004221F0004110EBD37005
:103CD00021FA04F642EB06015EEA430E08BF20EA31
:103CE000D37070BDC4F10C04C4F1200500FA04F3D4
:103CF00020FA05F001FA04F240EA020001F0004166
:103D000010EBD37041F100015EEA430E08BF20EAD8
:103D1000D37070BDC4F1200500FA05F24EEA020E20
:103D200020FA04F301FA05F243EA020321FA04F04F
:103D300001F0004121FA04F220EA020000EBD37006
:103D40005EEA430E08BF20EAD37070BD94F0000F06
:103D50000FD101F00046400041EB010111F4801F3A
:103D600008BF013CF7D041EA060195F0000F18BFEB
:103D7000704703F00046520043EB030313F4801F27
:103D800008BF013DF7D043EA0603704794EA0C0FE1
:103D90000CEA135518BF95EA0C0F0CD050EA4106F7
:103DA00018BF52EA4306D1D181EA030101F0004174
:103DB0004FF0000070BD50EA410606BF104619469C
:103DC00052EA430619D094EA0C0F02D150EA0136A8
:103DD00013D195EA0C0F05D152EA03361CBF1046E9
:103DE00019460AD181EA030101F0004141F0FE4188
:103DF00041F470014FF0000070BD41F0FE4141F40C
:103E0000780170BD70B54FF0FF0C4CF4E06C1CEA0B
:103E100011541DBF1CEA135594EA0C0F95EA0C0FC0
:103E200000F0A7F8A4EB050481EA030E52EA03357B
:103E30004FEA013100F088804FEA03334FF080559C
:103E400045EA131343EA12634FEA022245EA1115C9
:103E500045EA10654FEA00260EF000419D4208BF7A
:103E6000964244F1FD0404F5407402D25B084FEA27
:103E70003202B61A65EB03055B084FEA32024FF4D3
:103E800080104FF4002CB6EB020E75EB030E22BF30
:103E9000B61A754640EA0C005B084FEA3202B6EBF0
:103EA000020E75EB030E22BFB61A754640EA5C009F
:103EB0005B084FEA3202B6EB020E75EB030E22BF2F
:103EC000B61A754640EA9C005B084FEA3202B6EB30
:103ED000020E75EB030E22BFB61A754640EADC00EF
:103EE00055EA060E18D04FEA051545EA16754FEA51
:103EF00006164FEAC30343EA52734FEAC2025FEA6F
:103F00001C1CC0D111F4801F0BD141EA00014FF0FD
:103F100000004FF0004CB6E711F4801F04BF0143CE
:103F20000020B4F1FD0C88BFBCF5E06F3FF6AFAEEA
:103F3000B5EB030C04BFB6EB020C5FEA500C50F17A
:103F4000000041EB045170BD0EF0004E4EEA1131FD
:103F500014EB5C04C2BFD4EB0C0541EA045170BD04
:103F600041F480114FF0000E013C90E645EA060E48
:103F70008DE60CEA135594EA0C0F08BF95EA0C0F76
:103F80003FF43BAF94EA0C0F0AD150EA01347FF4BE
:103F900034AF95EA0C0F7FF425AF104619462CE795
:103FA00095EA0C0F06D152EA03353FF4FDAE1046F8
:103FB000194622E750EA410618BF52EA43067FF449
:103FC000C5AE50EA41047FF40DAF52EA43057FF4D9
:103FD000EBAE12E74FEA4102B2F1E04324BFB3F582
:103FE000001CDCF1FE5C0DD901F0004C4FEAC00270
:103FF0004CEA5070B2F1004F40EB830008BF20F054
:104000000100704711F0804F21D113F13872BCBF0D
:1040100001F00040704741F480114FEA5252C2F162
:104020001802C2F1200C10FA0CF320FA02F018BFAB
:1040300040F001004FEAC1234FEAD32303FA0CFCFE
:1040400040EA0C0023FA02F34FEA4303CCE77FEA8D
:10405000625307D150EA01331EBF4FF0FE4040F4D7
:104060004000704701F0004040F0FE4040F4000086
:10407000704700BF80F0004002E000BF81F00041C7
:1040800042001FBF5FEA410392EA030F7FEA226CFE
:104090007FEA236C6AD04FEA1262D2EB1363C1BF8E
:1040A000D218414048404140B8BF5B42192B88BFFD
:1040B000704710F0004F40F4000020F07F4018BF20
:1040C000404211F0004F41F4000121F07F4118BF40
:1040D000494292EA030F3FD0A2F1010241FA03FCE8
:1040E00010EB0C00C3F1200301FA03F100F00043D0
:1040F00002D5494260EB4000B0F5000F13D3B0F198
:10410000807F06D340084FEA310102F10102FE2A06
:1041100051D2B1F1004F40EBC25008BF20F0010076
:1041200040EA03007047490040EB000010F4000F24
:10413000A2F10102EDD1B0FA80FCACF1080CB2EBB7
:104140000C0200FA0CF0AABF00EBC2505242184316
:10415000BCBFD0401843704792F0000F81F40001BB
:1041600006BF80F400000132013BB5E74FEA41038E
:104170007FEA226C18BF7FEA236C21D092EA030FFA
:1041800004D092F0000F08BF0846704790EA010F74
:104190001CBF0020704712F07F4F04D1400028BFA1
:1041A00040F00040704712F100723CBF00F5000083
:1041B000704700F0004343F0FE4040F400007047B9
:1041C0007FEA226216BF08467FEA23630146420265
:1041D00006BF5FEA412390EA010F40F48000704778
:1041E0004FF0000304E000BF10F0004348BF40421E
:1041F0005FEA000C08BF704743F0964301464FF05A
:1042000000001CE050EA010208BF70474FF00003B5
:104210000AE000BF50EA010208BF704711F00043F6
:1042200002D5404261EB41015FEA010C02BF8446C6
:104230000146002043F0B64308BFA3F18053A3F525
:104240000003BCFA8CF2083AA3EBC25310DB01FA6C
:1042500002FC634400FA02FCC2F12002BCF1004FF0
:1042600020FA02F243EB020008BF20F00100704781
:1042700002F1200201FA02FCC2F1200250EA4C00D5
:1042800021FA02F243EB020008BF20EADC7070471B
:104290004FF0FF0C1CEAD0521EBF1CEAD15392EA29
:1042A0000C0F93EA0C0F6FD01A4480EA010C400205
:1042B00018BF5FEA41211ED04FF0006343EA50105F
:1042C00043EA5111A0FB01310CF00040B1F5000FA1
:1042D0003EBF490041EAD3715B0040EA010062F150
:1042E0007F02FD2A1DD8B3F1004F40EBC25008BF3A
:1042F00020F00100704790F0000F0CF0004C08BF58
:1043000049024CEA502040EA51207F3AC2BFD2F124
:10431000FF0340EAC250704740F400004FF0000332
:10432000013A5DDC12F1190FDCBF00F0004070476C
:10433000C2F10002410021FA02F1C2F1200200FAAA
:1043400002FC5FEA310040F1000053EA4C0308BF71
:1043500020EADC70704792F0000F00F0004C02BFC2
:10436000400010F4000F013AF9D040EA0C0093F03D
:10437000000F01F0004C02BF490011F4000F013B97
:10438000F9D041EA0C018FE70CEAD15392EA0C0F05
:1043900018BF93EA0C0F0AD030F0004C18BF31F070
:1043A000004CD8D180EA010000F00040704790F046
:1043B000000F17BF90F0004F084691F0000F91F0EA
:1043C000004F14D092EA0C0F01D142020FD193EAB0
:1043D0000C0F03D14B0218BF084608D180EA010038
:1043E00000F0004040F0FE4040F40000704740F014
:1043F000FE4040F4400070474FF0FF0C1CEAD052E2
:104400001EBF1CEAD15392EA0C0F93EA0C0F69D03D
:10441000A2EB030280EA010C49024FEA402037D0A8
:104420004FF0805343EA111143EA10130CF000409F
:104430008B4238BF5B0042F17D024FF4000C8B428F
:1044400024BF5B1A40EA0C00B3EB510F24BFA3EB6F
:10445000510340EA5C00B3EB910F24BFA3EB91033F
:1044600040EA9C00B3EBD10F24BFA3EBD10340EA99
:10447000DC001B0118BF5FEA1C1CE0D1FD2A3FF6DF
:1044800050AF8B4240EBC25008BF20F00100704794
:104490000CF0004C4CEA50207F32C2BFD2F1FF0337
:1044A00040EAC250704740F400004FF00003013A68
:1044B00037E792F0000F00F0004C02BF400010F40C
:1044C000000F013AF9D040EA0C0093F0000F01F020
:1044D000004C02BF490011F4000F013BF9D041EA42
:1044E0000C0195E70CEAD15392EA0C0F08D1420275
:1044F0007FF47DAF93EA0C0F7FF470AF084676E748
:1045000093EA0C0F04D14B023FF44CAF08466EE720
:1045100030F0004C18BF31F0004CCAD130F00042EE
:104520007FF45CAF31F000437FF43CAF5FE700BF46
:104530004FF0FF3C06E000BF4FF0010C02E000BF6F
:104540004FF0010C4DF804CD4FEA40024FEA410311
:104550007FEA226C18BF7FEA236C11D001B052EAC7
:10456000530C18BF90EA010F58BFB2EB030088BF8D
:10457000C81738BF6FEAE17018BF40F001007047FC
:104580007FEA226C02D15FEA402C05D17FEA236CDE
:10459000E4D15FEA412CE1D05DF8040B704700BF25
:1045A000844608466146FFE70FB5FFF7C9FF0028BC
:1045B00048BF10F1000F0FBD4DF808EDFFF7F4FFF5
:1045C0000CBF012000205DF808FB00BF4DF808ED8E
:1045D000FFF7EAFF34BF012000205DF808FB00BFB1
:1045E0004DF808EDFFF7E0FF94BF012000205DF8D3
:1045F00008FB00BF4DF808EDFFF7D2FF94BF012084
:1046000000205DF808FB00BF4DF808EDFFF7C8FF7C
:1046100034BF012000205DF808FB00BF4FEA4002D4
:10462000B2F1FE4F0FD34FF09E03B3EB12620DD9E0
:104630004FEA002343F0004310F0004F23FA02F04A
:1046400018BF404270474FF00000704712F1610FF1
:1046500001D1420205D110F0004008BF6FF00040C8
:1046600070474FF000007047844641EA000313F0A2
:1046700003036DD1403A41D351F8043B40F8043B69
:1046800051F8043B40F8043B51F8043B40F8043B2C
:1046900051F8043B40F8043B51F8043B40F8043B1C
:1046A00051F8043B40F8043B51F8043B40F8043B0C
:1046B00051F8043B40F8043B51F8043B40F8043BFC
:1046C00051F8043B40F8043B51F8043B40F8043BEC
:1046D00051F8043B40F8043B51F8043B40F8043BDC
:1046E00051F8043B40F8043B51F8043B40F8043BCC
:1046F00051F8043B40F8043B403ABDD2303211D36C
:1047000051F8043B40F8043B51F8043B40F8043BAB
:1047100051F8043B40F8043B51F8043B40F8043B9B
:10472000103AEDD20C3205D351F8043B40F8043B6B
:10473000043AF9D2043208D0D2071CBF11F8013B69
:1047400000F8013B01D30B8803806046704700BF2F
:10475000082A13D38B078DD010F003038AD0C3F13E
:104760000403D21ADB071CBF11F8013B00F8013B20
:1047700080D331F8023B20F8023B7BE7043AD9D3DF
:10478000013A11F8013B00F8013BF9D20B780370B4
:104790004B7843708B7883706046704770B48407A1
:1047A00046D0541E002A41D0CDB2034602E0621E1C
:1047B000E4B3144603F8015B9A07F8D1032C2ED911
:1047C000CDB245EA05250F2C45EA054519D903F177
:1047D00010022646103E0F2E42F8105C42F80C5C88
:1047E00042F8085C42F8045C02F11002F2D8A4F12D
:1047F000100222F00F0204F00F041032032C1344B5
:104800000DD91E462246043A032A46F8045BFAD81C
:10481000221F22F003020432134404F003042CB1DB
:10482000C9B21C4403F8011BA342FBD170BC704702
:1048300014460346C2E700BF024B13B1024800F022
:1048400005B87047000000005948000001460020EC
:104850000246034600F016B838B5084B084DED1A6D
:10486000AC1018BFED1805D0013C55F8043D984731
:10487000002CF9D1BDE8384001F0E4BC0000000094
:10488000000000002DE9F047254C2568D5F8484187
:104890000646884692469946CCB360681F2818DCC5
:1048A000431C7EB104EB80050121C5F888A0D4F833
:1048B000887101FA00F21743022EC4F88871C5F816
:1048C00008911ED00230636044F820800020BDE8CB
:1048D000F087144B03B34FF4C870AFF30080044665
:1048E000D0B1D5F84831002780E88800C5F84841A4
:1048F00038460123C4F88871C4F88C71002EE1D0C9
:10490000D0E7D4F88C110A43C4F88C21DAE705F516
:10491000A674C5F84841C0E74FF0FF30BDE8F08706
:1049200028620000000000004008FE4340A0044050
:104930004408FE4344A004400018FE4300C0044065
:104940003000FE43309004403400FE433490044075
:104950001C18FE431CC004401018FE4310C0044045
:104960000818FE4308C004400C18FE430CC0044065
:104970000C10FE430CB004401010FE4310B0044075
:104980001810FE4318B004401C10FE431CB0044035
:104990001410FE4314B004400418FE4304C0044045
:1049A0000010FE4300B004400008FE4300A0044095
:1049B0000408FE4304A004400C08FE430CA004407D
:1049C0000808FE4308A004401418FE4314C0044025
:1049D0001818FE4318C004400410FE4304B00440FD
:1049E0000810FE4308B004401400FE431490044035
:1049F0004C08FE434CA004400420FE4304D0044075
:104A00002410FE4324B004402010FE4320B0044094
:104A10002810FE4328B004402C10FE432CB0044064
:104A20000020FE4300D004404808FE4348A0044054
:104A30001000FE43109004401915191500010000E4
:104A400053E5FF1F1200000000020000E6E4FF1F14
:104A50006D00000000030000E2E4FF1F0000000002
:104A600001030904CAE4FF1F000000000203090457
:104A7000B4E4FF1F000000000303090472E4FF1FF9
:104A800000000000040309044EE4FF1F00000000C2
:104A90000503090424E4FF1F0000000006030904C5
:104AA00006E4FF1F000000000000000000000000FE
:104AB00000000000FFFFFFFF28BA039F3234A43F2D
:104AC00039530C75504EBE3FE8628CD18584CA3F85
:104AD00069514D799291CF3FE8628CD18584CA3F6C
:104AE00039530C75504EBE3F28BA039F3234A43F51
:104AF00000000000000000000000000000000000B6
:104B000000000000000000000000000000000000A5
:104B100000000000000000DD04DE000000000000D6
:104B2000000000DF04DE000000000000000000DDE7
:104B300004DEDD04DEDF04DEDD04DEDD04DEDF04B2
:104B4000DEDF04DEDF04DEDF04DE00000000000044
:104B5000000000DA04E0000000000000000000DCBB
:104B600004DE000000000000000000D305DED505D3
:104B7000E0D505DED505E0D705E0D705DED705E0B1
:104B8000D805E0D705DE000000000000000000D2DC
:104B900005DE000000000000000000D305E000007A
:104BA0000000000000000000000000000000000005
:104BB00000000000000000000000000000000000F5
:104BC0000000000000C806E0C806E0C906E0C9060B
:104BD000E0C906E0C906E0CB06E0CB06E0CB06E084
:104BE000000000000000000000000000000000C500
:104BF00006E00000000000000000000000000000CF
:104C000000000000000000000000C007E0000000FD
:104C1000C107E000000000000000000000000000EC
:104C20000000000000BD08E00000000000000000DF
:104C300000BE07E0000000000000000000B808E22D
:104C4000B808E200000000000000000000000000C2
:104C50000000BB08E0BB08E200000000000000000C
:104C60000000000000000000000000000000000044
:104C7000000000000000000000000000000000B084
:104C800009E2000000000000000000000000000039
:104C900000B309E2000000AC0AE2000000AD09E246
:104CA000AD09E2AD09E2AD0AE2AD09E2AD09E2AF5C
:104CB00009E2000000000000000000A90AE4000072
:104CC00000000000000000000000000000AC0AE24C
:104CD00000000000000000000000000000000000D4
:104CE00000000000000000000000000000000000C4
:104CF00000000000000000A00BE4A10BE2A10BE407
:104D0000A10BE2A10BE2A30BE4A40BE40000000062
:104D100000000000009D0CE4000000000000000006
:104D20000000000000000000000000000000000083
:104D30000000009A0DE200000000000000000000EA
:104D40000000000000000000000000000000000063
:104D500000960EE4000000000000000000000000CB
:104D60000000000000000000000000000000000043
:104D70000000930EE4930EE4930EE4940EE4940E7C
:104D8000E6940DE4000000000000000000000000B8
:104D90000000000000000000000000000000000013
:104DA00000000000000000000000000000008C0F68
:104DB000E68C0FE48C0FE68C0FE68C0FE60000000B
:104DC0000000000000000000008810E40000000067
:104DD00000008810E6000000000000890FE60000D7
:104DE000000000000000008411E600000000000048
:104DF0008510E60000000000008610E600000000BC
:104E000000000000008111E6000000000000811198
:104E1000E60000000000008411E600000000000031
:104E20000000000000007D11E67D12E67E12E60023
:104E300000007E12E60000000000000000000000FC
:104E40000000000000000000000000000000000062
:104E50000000000000000000000000000000000052
:104E600000007714E80000000000000000000000CF
:104E7000000000000000007314E67314E87414E8E6
:104E80007314E87314E87414E87414E87514E800F3
:104E9000000000000000000000000000000070158D
:104EA000E80000000000000000000000007115E8AC
:104EB0000000000000000000000000006E15E80087
:104EC00000000000000000000000006F15E8000076
:104ED00000000000000000000000000000000000D2
:104EE0000000000000006B16EA0000000000000057
:104EF00000000000000000000000000000000000B2
:104F000000000000000000000000000000000000A1
:104F10000000006418EA000000000000000000002B
:104F200000000000006517EA0000006018EA0000B9
:104F3000006019EA6018EA6018EA6218EA6218EA82
:104F40006218EA6318EA0000000000000000005E3A
:104F50001AEA00000000000000000000000000004D
:104F6000005F19EA000000000000000000000000DF
:104F70000000000000000000000000000000000031
:104F80000000000000000000000000000000571BAF
:104F9000EA581BEC000000000000581BEC00000069
:104FA000000000000000000000541CEC00000000A5
:104FB0000000551CEC000000000000561CEC000036
:104FC00000000000000000521CEC00000000000087
:104FD000531CEC000000000000541CEC000000001A
:104FE0000000000000501EEC000000000000501DFA
:104FF000EC000000000000511DEC0000000000006B
:105000000000000000004C1EEC0000000000004DFD
:105010001EEC4D1EEC00000000000000000000002F
:105020000000000000000000000000000000000080
:105030000000000000000000000000004621EE47D4
:1050400021EE4721EC4720EE4821EC4821EC482096
:10505000EE0000000000004421EE0000000000000F
:1050600000000000000000000000000000000046FA
:1050700021EE0000004122EE0000000000000000D0
:10508000000000000000000000000000004321EECE
:105090000000003F24EE00000000000000000000BF
:1050A00000000000000000000000004123EE0000AE
:1050B000000000003C24EE000000000000000000A2
:1050C0000000000000003E24F0000000000000008E
:1050D00000000000000000000000000000000000D0
:1050E00000000000000000000000000000000000C0
:1050F00000000000000000000000000000000000B0
:10510000000000000000000000000000000000009F
:10511000000000003627F03727F03627EE3727F05B
:105120003727EE0000000000000000000000003300
:1051300028EE000000000000000000000000000059
:10514000003427F00000000000000000003129F0CA
:10515000000000000000000000000000000000321D
:1051600028F00000000000000000002F2AF00000DE
:1051700000000000000000000000000000312AF0E4
:105180000000000000000000000000002D2BF02DAA
:105190002BF22D2BF02D2BF02E2BF2000000000017
:1051A00000000000000000000000000000000000FF
:1051B00000000000000000000000000000000000EF
:1051C0000000000000292EF0292DF2292EF2292DB1
:1051D000F0292DF22A2DF22A2DF200000000000005
:1051E000000000272FF20000000000000000000077
:1051F00000000000000000000000000000000000AF
:10520000002530F200000000000000000000000057
:10521000000000000000000000000000000000236B
:1052200031F200000000000000000000000000005B
:10523000000000000000000000000000000000006E
:105240002132F22131F22131F42131F22131F422E3
:1052500031F200000000000000000000000000002B
:10526000000000000000000000000000000000003E
:105270000000000000000000001D34F21D34F41D89
:1052800034F41E34F21E33F41E33F21E33F20000E7
:10529000000000000000001B35F4000000000000CA
:1052A00000000000000000000000000000000000FE
:1052B00000000000001A36F40000000000000000AA
:1052C00000000000000000000000000000000000DE
:1052D0000000001837F60000000000000000000089
:1052E00000000000000000000000000000000000BE
:1052F000000000001639F61639F41739F61638F49E
:105300001738F41738F40000000000000000000017
:10531000000000000000000000000000000000008D
:10532000000000000000000000000000000000007D
:10533000143AF6143AF6143BF6143AF4143AF4001C
:105340000000000000000000000000123CF6000019
:1053500000000000123CF6000000000000123BF4C8
:10536000000000000000000000103DF600000000FA
:105370000000113DF6000000000000113CF60000A6
:10538000000000000000000F3FF6000000000000D9
:10539000103EF6000000000000103EF60000000085
:1053A00000000000000000000E40F60E40F80E4025
:1053B000F80000000E3FF6000000000000000000B2
:1053C00000000000000000000000000000000000DD
:1053D00000000000000000000000000000000000CD
:1053E000000000000C42F80C42F80C41F60C41F8A9
:1053F0000C42F80000000000000000000000000A5D
:1054000043F8000000000000000000000000000061
:10541000000B42F80000000000000000000945F801
:105420000000000000000000000000000000000973
:1054300044F80000000000000000000846F80000EA
:10544000000000000000000000000000000845F817
:105450000000000000000000000000000748F80005
:1054600000000000000000000747F80000000000F6
:10547000000000000000000000000000000000002C
:10548000000000000000000000000000000000001C
:105490000000000000000000054AFA0000000000C3
:1054A00000000000000000000000000000044BFAB3
:1054B000044CFA044BFA044BFA044BFA054BFA0578
:1054C0004AFA054BFA00000000000000000000004E
:1054D00000000000044CFA00000000000000000082
:1054E000000000044CFA0000000000000000000072
:1054F0000000034FFA000000000000000000000060
:1055000000034DFA00000000000000000000000051
:105510000000000000000000000000000250FC003D
:10552000000000000000000000000000000000007B
:10553000000000000000000000000000000000006B
:105540000000000000000000000000000152FC010B
:1055500052FC0000000000000152FC0000000000AE
:10556000000000000000000154FC000000000000EA
:105570000153FC0000000000000153FC000000008B
:1055800000000000000055FF000000000000005473
:10559000FF0000000000000055FC000000000000BB
:1055A0000000000056FC0000000000000056FF0054
:1055B00000000000000055FC00000000000000009A
:1055C000000000000057FF0000000000000057FC32
:1055D0000057FF0000000000000000000000000075
:1055E00000000000000000000000000000000000BB
:1055F00000000000000000000000000000000000AB
:10560000000000000000000000000000000000009A
:105610000000000000FF0000FF0000FF0000FF008E
:1056200000FF0000FF0000FF0000FF0000FF00007F
:10563000000000FF0000000000000000000000FF6C
:10564000000000000000000000000000000000005A
:1056500000FF0000000000000000000000FF00004C
:10566000000000000000000000000000000000FF3B
:105670000000000000000000000000FF000000002B
:1056800000000000000000000000000000FF00001B
:10569000000000000000000000000000000000000A
:1056A00000000000000000000000000000000000FA
:1056B00000000000000000000000000000000000EA
:1056C000000000000000000000000000000000FFDB
:1056D0000000FF0000FF0000FF0000FF0000FF00CF
:1056E00000FF0000000000000000000000000000BB
:1056F000FF000000000000000000000000000000AB
:105700000000000000000000000000FF000000009A
:105710000000000000000000000000000000000089
:10572000000000000000000000FF0000000000007A
:105730000000000000000000000000000000000069
:1057400000000000000000000000FF00000000005A
:105750000000000000000000000000000000000049
:105760000000000000000000000000000000000039
:105770000000000000000000000000000000000029
:10578000000000000000FF0000FF0000FF0000FF1D
:105790000000FF000000000000000000000000000A
:1057A00000FF0000000000000000FF0000000000FB
:1057B000000000FF0000000000000000000000FFEB
:1057C0000000000000000000FF00000000000000DA
:1057D00000FF0000000000000000000000FF0000CB
:1057E000000000000000FF0000000000000000FFBB
:1057F0000000000000000000000000000000FF00AA
:1058000000FF0000FF0000000000FF00000000009B
:105810000000000000000000000000000000000088
:105820000000000000000000000000000000000078
:1058300000000000000000000000FF0000FF00006A
:10584000FF0000FF0000FF0000000000000000005B
:105850000000000000FF0000000000000000FF004A
:1058600000000000000000FF000000000000000039
:10587000000000FF0000000000000000FF0000002A
:105880000000000000FF0000000000000000000019
:1058900000FF0000000000000000FF00000000000A
:1058A000000000FF000000000000000000000000F9
:1058B0000000FF0000FF0000FF0000000000FF00EC
:1058C00000000000000000000000000000000000D8
:1058D00000000000000000000000000000000000C8
:1058E0000000000000000000000000000000FF00B9
:1058F00000FF0000000000000000FF0000000000AA
:10590000000000000000000000FF00000000000098
:105910000000FF0000000000000000FF0000000089
:1059200000000000000000FF000000000000000078
:10593000FF0000000000000000FF00000000000069
:105940000000000000FF0000000000000000FF0059
:1059500000000000000000FF000000000000000048
:10596000000000000000FF0000000000000000FF39
:105970000000FF0000000000000000000000000028
:105980000000000000000000000000000000000017
:105990000000000000000000000000000000000007
:1059A0000000FF0000FF0000FF0000FF0000FF00FC
:1059B00000000000000000000000000000FF0000E8
:1059C000000000000000000000000000000000FFD8
:1059D0000000000000000000000000FF00000000C8
:1059E00000000000000000000000000000FF0000B8
:1059F000000000000000000000FF000000000000A8
:105A00000000000000000000000000FF0000000097
:105A100000000000000000000000FF000000000087
:105A2000000000000000FF00000000000000000077
:105A30000000000000000000000000000000000066
:105A40000000000000000000000000000000000056
:105A5000000000000000FF0000000000000000FF48
:105A60000000FF0000000000000000000000000037
:105A700000FF0000000000000000FF000000000028
:105A8000000000FF0000000000000000000000FF18
:105A90000000000000000000FF0000000000000007
:105AA00000FF0000000000000000000000FF0000F8
:105AB000000000000000FF0000000000000000FFE8
:105AC0000000000000000000000000000000FF00D7
:105AD00000FF0000FF0000FF0000FF0000FF0000CB
:105AE00000000000000000000000000000000000B6
:105AF00000000000000000000000000000000000A6
:105B00000000000000000000000000000000000095
:105B1000000000000000000000000000000000FF86
:105B20000000000000000000000000000000000075
:105B300000000000000000FF0000000000FF000067
:105B4000FF0000FF0000FF0000FF0000FF0000FF5B
:105B50000000FF0000FF0000000000000000000047
:105B60000000000000000000000000000000000035
:105B7000000000FF00000000000000000000000026
:105B80000000000000000000000000000000000015
:105B90000000000000000000000000000000000005
:105BA000FF0000FF0000FF0000FF0000FF000000FA
:105BB0000000000000000000000000FF00000000E6
:105BC00000000000FF0000000000000000FF0000D7
:105BD000000000000000000000FF000000000000C6
:105BE0000000FF0000000000000000FF00000000B7
:105BF00000000000000000FF0000000000000000A6
:105C0000FF0000000000000000FF00000000000096
:105C10000000000000000000FF0000FF0000FF0087
:105C200000000000FF000000000000000000000075
:105C30000000000000000000000000000000000064
:105C40000000000000000000000000000000000054
:105C50000000000000000000000000000000000044
:105C6000000000000000000000000000000000FF35
:105C70009100000000000000000000FF9100000003
:105C800000000000000000FF9100FF9100FF930062
:105C9000FF9100FF9100FF9100FF9100FD9100F93D
:105CA0009100000000000000000000FF91000000D3
:105CB00000000000000000F9930000000000000058
